:100000000C944C030C947D030C947D030C947D03A1
:100010000C947D030C947D030C947D030C947D0360
:100020000C947D030C947D030C947D030C947D0350
:100030000C941F320C947D030C947D030C947D036F
:100040000C947D030C947D030C947D030C947D0330
:100050000C947D030C947D030C947D030C94B227C7
:100060000C947D030C947C270C9452270C947D03F4
:100070000C947D030C947D030C947D030C947D0300
:100080000C947D030C947D030C947D030C947D03F0
:100090000C947D030C947D030C947D030C947D03E0
:1000A0000C947D030C947D030C947D030C947D03D0
:1000B0000C947D030C947D030C947D030C947D03C0
:1000C0000C947D030C947D030C947D030C947D03B0
:1000D0000C947D030C947D030C947D030C947D03A0
:1000E0000C947D030C9455140C948D040C94DB0536
:1000F0000C9493050C948A150C9422320C94AA0546
:100100000C94C5040C94FF130C94AE050C94981138
:100110000C94E5050C94B6050C941C030C94C905CD
:100120000C946B040C94E9050C9408140C946D0168
:100130000C942F040C94AB020C9420240C94BA025F
:100140000C9428140C94B2050C942E040C94DF0526
:100150000C94CD050C94B9050C94C0020C94C30505
:100160000C94BF050C945C040C9438140C94880215
:100170000C94D1050C94D61A0C94BD330C94D7056D
:100180000C947F040C9494150C9498050C9412050F
:100190000C949E137C3C3E5E2B3D3F2F5B5D3B2CC5
:1001A0002A225C0045000082000040002063825348
:1001B000630001080006040001000021002400275C
:1001C000002A002D00300033000101000004010767
:1001D000010A0100002200250028002B002E00311A
:1001E00000340002010000050108010B0100000AB3
:1001F0000B02090C0D0E08070304010000000000AB
:1002000000000000000000000000000000000000EE
:1002100000000000000000000012111000000000AB
:1002200000000000000000000000000000000000CE
:10023000000000000020002300260029002C002FD1
:100240000032000001000003010601090105050557
:1002500005070508080808020202020A0A0808043D
:10026000040404010101010101010103030303036B
:10027000030303040707070C0C0C0C0C0C0C0C02FA
:1002800002020206060606060606060B0B0B0B0B01
:100290000B0B0B01021020200808102040102040FA
:1002A000800201020108040201010204081020403A
:1002B0008080402010080402018004020180402058
:1002C0001008040201080402010102040810204081
:1002D00080010204081020408000CF93DF9300D0FB
:1002E00000D000D01F92CDB7DEB7E091EB08F091BF
:1002F000EC08F08010E000E0FF2029F00580F68196
:10030000E02D008111810E9439280E942F286C0164
:100310008091DD089091DE08C816D90608F07EC0ED
:100320000E94E82CD092DE08C092DD080E94AF2A1D
:1003300000910609109107091A86198680E0680164
:10034000B1E1CB0ED11C0FB6F8940F92F801F28CEC
:10035000FF2009F41AC1448D4423C1F050E0868186
:100360009781840F951F9783868324813581821717
:10037000930720F08081918197838683D801169618
:100380006D917C91CE0101960E94ED37FA94F801AF
:10039000F28E8085882339F0C80108960E948E2845
:1003A00081110E94E9290F900FBED980D7FCC0CFE0
:1003B0000C811D81D8011A968D919C91892B21F079
:1003C000C80102960E946A280E942F287C01809111
:1003D000DD089091DE08E816F90610F40E94E82C7A
:1003E000F092DE08E092DD08B9E0BD1508F4A0CF78
:1003F000ED2DDD0CFF0BD80152969C918827EC5F08
:10040000FD4F8F4F0C94F736880288028802C00295
:10041000AB02BA0288028802C002AB02D092DE08A8
:10042000C092DD08FF2099F1C016D106C0F10E94EC
:10043000AF2AE091EB08F091EC080580F681E02D01
:10044000E680F780C70102960E946A28D70152967B
:100450008C91529782FF17C01C966D917C91600F12
:10046000711F9801A601C7010E944529882321F028
:10047000B801C7010E94C12CD7015096ED91FC91A3
:10048000C701199555CF8E7FF701828BF5CFE0918B
:10049000E908F091EA088081BB24B3948111B12C62
:1004A000E0900609F09007090FB6F8940F92F70153
:1004B000858D8F3F09F4158ED7015E968C915E97DE
:1004C0008F3F11F45E961C920F900FBEF701828D44
:1004D000811114C06091B4057091B505645F7F4FC0
:1004E000C70141960E944A28C8018C199D09BB206A
:1004F00011F08FEF9FEF6B2D0E946F29C7010E94B3
:10050000CD280E94AF2A811113CF0E94E92910CF74
:100510009160F801928BCA80DB80648575856C0DD3
:100520007D1D9601A701C8010E944529882309F471
:10053000FFCED8015096ED91FC91C8011995F801B4
:10054000828982FFF5CE648575856C0D7D1DC8019D
:100550000E94C12CEDCE9160F801928B6A817B8163
:10056000758764876E0D7F1D9701A701C8010E94E2
:100570004529DECE91FD04C0C8010E94CC2ED8CE04
:100580009E7FD80152969C93D3CE29853A85232B02
:1005900019F40F900FBEA9CE811109C08091480BAC
:1005A0008E838091460B9091470B98878F830F9095
:1005B0000FBE0E9439280FB6F8940F92D8015D96AD
:1005C0008C915D978F3F11F45D961C92F801868D9A
:1005D0008F3F09F4168E0F900FBEBE01675F7F4FED
:1005E000CE0106960E94FC2781111BC0C8010E9403
:1005F0003F28882381F069857A85C6010E94CA292F
:10060000C8010E94CD280E94AF2A811102C00E9419
:10061000E92981E098CEC8010E94CD280E94AF2A26
:10062000F8CFC8010E94CD280E94AF2AC8010E94BD
:100630003F28882371F359CE8091D908811109C0D0
:100640008091490B823010F00E94E9290E94320506
:10065000F3CF0FB6F8940F92E0911A09F0911B09AD
:10066000C681D781CE0102960E946A2880913B09FB
:10067000815080933B098091D90881508093D9089B
:100680000F900FBE8F89988D0E94CC2ECE010E94B4
:10069000CC2ED2CF2232BD3311241FBECFEFD1E2F8
:1006A000DEBFCDBF00E00CBF15E0A0E0B2E0EEE79A
:1006B000F0E700E00BBF02C007900D92A43BB1072A
:1006C000D9F72CE0A4EBB5E001C01D92AD38B2071C
:1006D000E1F713E0CBE4D3E000E006C02197010985
:1006E000802FFE010E94F736CA34D10780E0080748
:1006F000A9F70E94A9320C942D380C940000CF93D6
:10070000DF93FC01828193819093590C8093580C64
:1007100084819581A681B78180935A0C90935B0C5C
:10072000A0935C0CB0935D0C80859185A285B38508
:1007300080935E0C90935F0CA093600CB093610C5F
:10074000DF011C96CF014996C2E6DCE02D9129938A
:10075000A817B907D9F7818D928D9093700C80936B
:100760006F0C86E59CE0DF91CF9108958F929F9268
:10077000AF92BF92CF92DF92EF92FF92CF93DF932F
:10078000A091780C30E081113A2F8091790C90E0A3
:10079000880F991FAC014D5C5D4FC0907E0CD090CE
:1007A0007F0CE090800CF090810C60E070E0CB0159
:1007B000FA01C591D49128812A2323130FC04B013C
:1007C0005C012FEF821A920AA20AB20A6C157D050B
:1007D0008E059F0570F060E070E0CB01DF91CF9156
:1007E000FF90EF90DF90CF90BF90AF909F908F9051
:1007F0000895C501B401DCCFCF93DF932091420B64
:100800002223C1F0FC0120812223A1F0C2E4DBE01D
:10081000AEE3BBE09C012C5F3F4F899141919D91DC
:100820008427892339F4E217F307B9F781E0DF91D0
:10083000CF91089580E0FBCFFC01248135816217C0
:10084000730720F480819181009729F41092E808C1
:1008500088EE98E00895860F971F08950895AF9247
:10086000BF92CF92DF92EF92FF920F931F93CF939D
:10087000DF936C017B018B01040F151FEB015E01FF
:10088000AE18BF08C017D10759F06991D601ED9194
:10089000FC910190F081E02DC6011995892B79F723
:1008A000C501DF91CF911F910F91FF90EF90DF90E5
:1008B000CF90BF90AF900895FC01538D448D252FAC
:1008C00030E0842F90E0821B930B541710F0CF96EA
:1008D000089501970895FC01918D828D981761F01C
:1008E000A28DAE0FBF2FB11D5D968C91928D9F5F33
:1008F0009F73928F90E008958FEF9FEF0895FC0112
:10090000918D828D981731F0828DE80FF11D858DC4
:1009100090E008958FEF9FEF0895FC01918D228D57
:10092000892F90E0805C9F4F821B91098F739927DC
:1009300008958EE69BE00E948D0421E0892B09F446
:1009400020E0822F0895FC01A48DA80FB92FB11DBE
:10095000A35ABF4F2C91848D90E001968F739927F5
:10096000848FA689B7892C93A089B1898C918370D3
:1009700080648C93938D848D981306C00288F389CC
:10098000E02D80818F7D80830895EF92FF920F93F9
:100990001F93CF93DF93EC0181E0888F9B8D8C8D2B
:1009A00098131AC0E889F989808185FF15C09FB71F
:1009B000F894EE89FF896083E889F98980818370E2
:1009C000806480839FBF81E090E0DF91CF911F9191
:1009D0000F91FF90EF900895F62E0B8D10E00F5FB2
:1009E0001F4F0F731127E02E8C8D8E110CC00FB688
:1009F00007FCFACFE889F989808185FFF5CFCE0120
:100A00000E94A304F1CFEB8DEC0FFD2FF11DE35AF3
:100A1000FF4FF0829FB7F8940B8FEA89FB898081A2
:100A20008062CFCFCF93DF93EC01888D8823B9F01C
:100A3000AA89BB89E889F9898C9185FD03C08081E9
:100A400086FD0DC00FB607FCF7CF8C9185FFF2CF66
:100A5000808185FFEDCFCE010E94A304E9CFDF9115
:100A6000CF91089580E090E0892B29F00E949904AD
:100A700081110E94000080E090E0892B49F080E025
:100A800090E0892B29F00E94000081110E94000053
:100A900080E090E0892B49F080E090E0892B29F0FC
:100AA0000E94000081110E94000080E090E0892BEC
:100AB00049F080E090E0892B29F00E94000081112C
:100AC0000C9400000895282F30E0F901E351FE4F07
:100AD0009491F901ED56FD4F4491235B3D4FF9018F
:100AE0002491222309F435C0992311F191509231B8
:100AF000F8F4E92FF0E08827EF57FA4F8F4F0C9466
:100B0000F736B205B6059305AA05AE059805B905F1
:100B1000BF05C305C905CD05D105D705DB0598057A
:100B2000DF05E505E905809180008F7780938000DF
:100B3000E22FF0E0EE0FFF1FED52FE4FA591B491B2
:100B40008FB7F894EC91611148C040954E234C93B7
:100B50008FBF0895809180008F7DE8CF80918000C5
:100B6000877FE4CF84B58F7784BDE2CF84B58F7D56
:100B7000FBCF8091B0008F778093B000D9CF809168
:100B8000B0008F7DF9CF809190008F778093900097
:100B9000CFCF809190008F7DF9CF80919000877F9B
:100BA000F5CF8091A0008F778093A000C1CF809176
:100BB000A0008F7DF9CF8091A000877FF5CF809135
:100BC00020018F7780932001B3CF809120018F7D0A
:100BD000F9CF80912001877FF5CF4E2BB8CFCF93EF
:100BE000DF9390E0FC01ED56FD4F2491835B9D4F18
:100BF000FC0184918823C9F090E0880F991FFC01C3
:100C0000E754FE4FA591B491FC01ED52FE4FC59102
:100C1000D49161110DC09FB7F8948C9120958223D7
:100C20008C938881282328839FBFDF91CF910895DB
:100C3000623051F49FB7F8943C91822F80958323C2
:100C40008C93E8812E2BEFCF8FB7F894EC912E2B5D
:100C50002C938FBFEACF3FB7F8948091E40890912E
:100C6000E508A091E608B091E70826B5A89B05C065
:100C70002F3F19F00196A11DB11D3FBFBA2FA92F1B
:100C8000982F8827BC01CD01620F711D811D911D18
:100C900042E0660F771F881F991F4A95D1F7089584
:100CA0008F929F92AF92BF92CF92DF92EF92FF927C
:100CB0004B015C010E942B066B017C010E942B06FC
:100CC0006C197D098E099F09683E73408105910565
:100CD000A8F321E0821A9108A108B10888EEC80E95
:100CE00083E0D81EE11CF11C81149104A104B1041D
:100CF00029F7FF90EF90DF90CF90BF90AF909F903B
:100D00008F9008952FB7F8946091E0087091E108F2
:100D10008091E2089091E3082FBF0895CF92DF926F
:100D2000EF92FF920F931F93CF93DF93CDB7DEB770
:100D3000C054D1400FB6F894DEBF0FBECDBF0E94A5
:100D4000820600917A0C10917B0C20917C0C3091E2
:100D50007D0C6B017C01C01AD10AE20AF30A9701EB
:100D60008601003D17402105310590F48091820CE9
:100D7000C05CDE4F0FB6F894DEBF0FBECDBFDF9173
:100D8000CF911F910F91FF90EF90DF90CF9008953A
:100D900060937A0C70937B0C80937C0C90937D0C09
:100DA0001092750C1092740C1092730C1092720CBD
:100DB0001092710C61E08091760C0E9463056AEFDD
:100DC00070E080E090E00E94500661E08091760C37
:100DD0000E94EF0560E08091760C0E94630564E15B
:100DE00070E080E090E00E945006F89461E080910D
:100DF000760C0E9463058BE990E00197F1F762E0C1
:100E00008091760C0E94EF0583E290E00197F1F764
:100E100080E00E94B603672B682B692B29F410929F
:100E2000820C789480E0A4CF81E00E94B603672B07
:100E3000682B692BA1F38E010F5F1F4F6E018FEBA3
:100E4000C81A8EEFD80A780180E00E94B603F70135
:100E5000608371838283938381E00E94B603F701EC
:100E60006483758386839783F8E0EF0EF11CEC149E
:100E7000FD0451F7789430E020E0F801C080D18083
:100E8000E280F3804481558166817781C114D10469
:100E9000E104F10429F0411551056105710519F4CA
:100EA0001092820CBFCFF90183E0F595E7958A9502
:100EB000E1F7EF58F34F8081880FC416D506E60698
:100EC000F70610F180832F5F3F4F085F1F4F2832D6
:100ED000310599F64091750C2091710C8091720C3E
:100EE000280F3327331F8091730C280F311D8091F9
:100EF000740C820F932F911D99274817190681F6BC
:100F000081E08093820C34CF8160DCCFE0910A09CC
:100F1000F0910B098081811107C08FEF9FEF9093B3
:100F20000209809301090895E0910A09F0910B09E3
:100F30000580F681E02D0680F781E02D8281938186
:100F4000EECF80912D0690912E069827892798271D
:100F5000449720914B0630E044E0359527954A951B
:100F6000E1F7220F331F220F331F821B930B97FFD2
:100F700002C090E080E008952091410630913F0644
:100F80003093410620933F0620914206309140065F
:100F90003093420620934006EDE1F6E021A5820F52
:100FA000911D25A585A7662381F021A7892F992763
:100FB000319726E0E931F20789F710924F06109237
:100FC000500680E580934B06089511A6EFCF0F934E
:100FD0001F93CF93DF9370E0635E794F8A01075FC1
:100FE0001F4F213029F0223031F48A0102501109BB
:100FF00030E020E003C000E010E09801EB01FA01CE
:10100000E230F10558F0A991B991BA27AB27BA2778
:101010000A0F1B1F211D311D3297F2CFFA01EE7FFF
:101020006E0F7F1F4E175F0769F0FB01408150E094
:1010300070E060E0762F652F542F4427040F151FB2
:10104000261F371FA901662777274115510561051E
:10105000710519F022273327F1CF00951095E82F5D
:10106000F0E0E35EF94F10830183DF91CF911F9190
:101070000F910895EDE1F6E0108E118E80E4848BDF
:10108000158A868B20E044E150E06EE088E10C9404
:10109000E7078EBD0DB407FEFDCF089561E0809196
:1010A0000E060E94630578940895F89460E080919C
:1010B0000E060C9463050F931F93CF93DF93EC01FF
:1010C0008B010E9455082097B9F08AE30E944908D5
:1010D0001EBCF801CE01019739F00DB407FEFDCF1B
:1010E0002EB51EBC2193F7CF2197C00FD11F0DB491
:1010F00007FEFDCF8EB58883DF91CF911F910F91B1
:101100000C944E081F93CF93DF93182FC62FD42F24
:101110000E9455088C2F8F71812B0E9449088D2FBA
:101120000E944908DF91CF911F910C944E08CF93F4
:10113000C82FC07680910F068C1799F043E06FE1BD
:1011400080EA0E948208C0930F064C2F50E085E091
:10115000559547958A95E1F76FE180E8CF910C941A
:101160008208CF910895CF93DF93C82FD62F0E9486
:1011700097084D2F6C2F80E4DF91CF910C9482085B
:10118000CF93DF93C82FD72F0E94B3086D2F81E034
:101190008C0FDF91CF910C94B308CF93C82F0E948E
:1011A00097080E9455088C2F8F710E94490880E093
:1011B0000E944908C7FF03C080E00E944908CEB5DD
:1011C0000E944E088C2FCF91089561E184ED0E941A
:1011D000B30861E082ED0E94B3088AEE0E94CD0858
:1011E00080FDFBCF60E082ED0E94B30889ED0E9494
:1011F000CD0890E008950F931F93CF93DF9300D015
:1012000000D0CDB7DEB780911406882379F06091C5
:101210001206709113066115710509F053C06FEF46
:101220007BE08CE00E94C0081092140689E30E94C3
:10123000CD0810E000E08823C9F16091120670919A
:10124000130680E00E94C008BE016F5F7F4F86E0FA
:1012500090E00E945B0889819A81909313068093A5
:1012600012068D819E818C010078112787FF12C0A4
:101270008B819C81049700911006109111060150FA
:1012800011098017910708F48C016DE176E0C8011F
:101290000E945B08F801E35EF94F108281E08093C1
:1012A000140640E46EE180E80E948208C801269698
:1012B0000FB6F894DEBF0FBECDBFDF91CF911F9167
:1012C0000F91089561507109ACCFCF93DF93EC017A
:1012D00040E86FE180E80E94820840E86FE180EA20
:1012E0000E9482084AE06CE180EA0E94820860E085
:1012F0007CE082E00E94C008BE01745F86E00E942C
:10130000C00840E060E08AE70E9482080E94550819
:101310002097B1F08AE70E94490880911D068EBD92
:10132000EEE1F6E0C35ED94FEC17FD0731F0819195
:101330000DB407FEFDCF8EBDF7CF0DB407FEFDCF78
:101340000E944E0848E06FE180E80E948208D0E0E9
:10135000C0E08CE10E94CD088A7029F42196C83E35
:1013600083E0D807B1F78CE10E94CD0881FD03C06E
:10137000C83ED34039F448E06FE180EADF91CF9175
:101380000C948208DF91CF9108950F931F93CF9310
:10139000DF938C018896CDE1D6E0988B898B0E94F3
:1013A0003A081AAA1BAAA801445E5F4F22E06AE12C
:1013B00082E30E94E707C801C696DF91CF911F9193
:1013C0000F910C946509CF93DF93EB01682F84EDA7
:1013D0000E94B308BE0186ED0E94C0088AEE0E94FA
:1013E000CD0880FDFBCFDF91CF910895CF92DF92A2
:1013F000EF92FF920F931F938634910568F120912D
:101400004006233449F5C0904B06D0904C06E0903E
:101410004D06F0904E060091FD051091FE052091BD
:10142000FF0530910006C016D106E206F306A1F4CE
:10143000E7E3F7E0835E994F9F012E5F3F4F4181C5
:101440005081553319F45281651771F0F901E40F99
:10145000F11DE817F90780F380E01F910F91FF90CD
:10146000EF90DF90CF90089581E0F7CFE091EB050A
:10147000F091EC059F012F5F3F4F3093EC052093D7
:10148000EB0580830895FF920F931F93CF93DF9313
:10149000162FF42E052F0E94360A812F0E94360A3D
:1014A000CF2DD02F115020F089910E94360AFACF0B
:1014B000DF91CF911F910F91FF9008958FB7F8940E
:1014C0008091D5058FBF089561E0FC0184810E9461
:1014D00063058091D40581111092D40508958EBDC5
:1014E00000000DB407FEFDCF8EB508958FEF0C946C
:1014F0006F0A0F931F93CF93DF93EC010E94820634
:101500008B010E94760A8F3F69F00E948206601B61
:10151000710B6C177D07A8F380E0DF91CF911F91CD
:101520000F91089581E0F9CF8CBD9DBD0895CF93B3
:10153000DF93EC018091D405811109C081E0809393
:10154000D40580910B0C90910C0C0E94940A60E0E1
:101550008C81DF91CF910C9463058F929F92AF9213
:10156000BF92FF920F931F93CF93DF93EC01F62E60
:1015700049015A018E81882389F08F8198859C01C9
:101580002F5F3F4F38872F838230924018F40E949C
:10159000760AF3CFCE010E94640A1E82CE010E9419
:1015A000970A8CE291E00E94790A8F2D80640E9454
:1015B0006F0A08E110E0D501C401002E04C0B69501
:1015C000A795979587950A94D2F70E946F0A0850BD
:1015D0001109083F8FEF180771F785E9FF2021F007
:1015E00028E087E8F2128FEF0E946F0A10E00E9455
:1015F000760A8A8787FF04C01F3F11F01F5FF7CF6D
:10160000DF91CF911F910F91FF90BF90AF909F906E
:101610008F900895AF92BF92CF92DF92EF92FF9298
:101620000F931F93CF93DF93EC016901C801820FE1
:10163000931F8130924050F58E81882379F0888104
:101640009981AA81BB8184179507A607B70731F452
:101650008F819885C816D90608F042C048835983FF
:101660006A837B838B85833039F089E0440F551F73
:10167000661F771F8A95D1F79A01AB0161E1CE0110
:101680000E94AD0A882389F083E08D83CE010E94F9
:10169000640A80E0DF91CF911F910F91FF90EF904E
:1016A000DF90CF90BF90AF9008950E9482065B01BB
:1016B0000E94760A8A878F3F69F40E9482066A191F
:1016C0007B096D327140A0F38FE08D83CE010E94C3
:1016D000640ADCCF8E3F89F418861F8281E08E83F6
:1016E0008F8198858C159D0550F40E94760A8F8114
:1016F0009885019698878F83F3CF8DE0E6CF6701B9
:10170000E00EF11E0E94760AF60181936F01EE153C
:10171000FF05C1F78F819885080F191F18870F8360
:101720008985882319F001151240A0F08E81882345
:1017300089F08F8198859C012F5F3F4F38872F83D9
:101740008230924018F40E94760AF3CFCE010E94B4
:10175000640A1E8281E09ECFCF92DF92EF92FF92C9
:101760000F93CF93DF93EC01690182E1411551059D
:101770006105710599F08B85833039F089E0440F5C
:10178000551F661F771F8A95D1F79A01AB0168E153
:10179000CE010E94AD0A882319F084E08D832DC00C
:1017A0008EEF0E946F0A76018EEFD81AF7018191B1
:1017B0007F010E946F0AEC14FD04C1F78FEF0E94B5
:1017C0006F0A8FEF0E946F0A0E94760A8A878F71D4
:1017D000853071F4011116C0CE010E94640A81E0C7
:1017E000DF91CF910F91FF90EF90DF90CF90089510
:1017F00081E18D83CE010E94640ACE010E94640AB9
:1018000080E0EECF88E592E00E94790A811102C063
:1018100085E1C4CF20E030E0A9016DE0CE010E9457
:10182000AD0A882311F084E1B9CF0E94760A8111B4
:10183000FACFD2CF0F934091D7055091D805609140
:10184000D9057091DA05411551056105710599F0C9
:10185000082F2CE339E080913C0B90913D0B0E94C6
:10186000AC0B882349F01092D7051092D80510923E
:10187000D9051092DA0581E00F9108950F93CF9367
:10188000C82F8091D605811105C0C1E08C2FCF9162
:101890000F910895409108025091090260910A0247
:1018A00070910B020C2F2CE339E080913C0B90914E
:1018B0003D0B0E94AC0B811102C0C0E0E7CFCC23EE
:1018C00021F381E00E941A0C8823B9F31092D60507
:1018D000DDCF8F929F92AF92BF92EF92FF920F93C4
:1018E0001F93CF934B015C01C42F8091080290910C
:1018F0000902A0910A02B0910B0288159905AA0568
:10190000BB0551F181E00E943E0C81110BC080E0CB
:10191000CF911F910F91FF90EF90BF90AF909F904C
:101920008F9008958CE3E82E89E0F82E00E012E015
:1019300030E020E0B501A40180913C0B90913D0B7B
:101940000E940A0B882319F38092080290920902E0
:10195000A0920A02B0920B024091D6054C2B409304
:10196000D60581E0D5CF8F929F92AF92BF92CF9252
:10197000DF92EF92FF92CF932DE03CE030933D0B4E
:1019800020933C0B882309F46DC040E060E070E0D8
:10199000CB010E94690C81110BC080E0CF91FF90B8
:1019A000EF90DF90CF90BF90AF909F908F90089571
:1019B0008091FA0A8F7789F78091060B9091070B37
:1019C000A091080BB091090B84369105A105B105D2
:1019D00020F3C090020BD090030BE090040BF0902A
:1019E000050BC114D104E104F104B9F240E0C701D0
:1019F000B6010E94690C882381F280914709909179
:101A000048098115924049F6A0914C09AA2329F270
:101A100060914A0970914B096115710509F4BDCFB8
:101A200020914909222309F4B8CFA0932B0C2093CD
:101A30001D0C90E080E030E0E1E0F0E0C82FAF0165
:101A4000082E02C0440F551F0A94E2F724173507E9
:101A500069F041E0480F01968930910579F740938C
:101A6000260C9BCFC12CD12C7601C0CF8093260CA5
:101A7000209152093091530950E040E02115310581
:101A800041F42091600930916109409162095091BF
:101A9000630920931E0C30931F0C4093200C50932D
:101AA000210C46015701860E971EA11CB11C809285
:101AB0002C0C90922D0CA0922E0CB0922F0CE09139
:101AC0004D09F0914E09F093320CE093310CB0E0E7
:101AD0000E941F36DC01CB01880D991DAA1DBB1D7C
:101AE0008093330C9093340CA093350CB093360C48
:101AF00025E0EE0FFF1F2A95E1F7E150FE4FEF2F93
:101B0000FF27E6958E0F9F1FA11DB11D8093270C07
:101B10009093280CA093290CB0932A0C80904F0925
:101B200090905009B12CA12C8114910441F4809023
:101B30005C0990905D09A0905E09B0905F09C81A99
:101B4000D90AEA0AFB0AC80CD91CEA1CFB1C04C00F
:101B5000F694E794D794C794CA95D2F7C092220C12
:101B6000D092230CE092240CF092250C85EFC8163D
:101B70008FE0D806E104F10428F48CE08093300C67
:101B800081E00CCF80E125EFC2162FEFD206E104F1
:101B9000F104A0F38091680990916909A0916A0904
:101BA000B0916B098093330C9093340CA093350C57
:101BB000B093360C80E2E2CF4F925F926F927F92A9
:101BC0008F929F92AF92BF92CF92DF92EF92FF924D
:101BD0000F931F93CF93DF93EC01423051056105C2
:101BE000710590F480E0DF91CF911F910F91FF90EC
:101BF000EF90DF90CF90BF90AF909F908F907F90AD
:101C00006F905F904F90089589859A85AB85BC85CC
:101C10000196A11DB11D84179507A607B70710F3FC
:101C2000CB88DC88ED88FE888F89803109F042C03E
:101C3000BB27A72F962F852F480159012A013B0169
:101C4000C80ED91EEA1EFB1E80910802909109025F
:101C5000A0910A02B0910B02C816D906EA06FB064B
:101C600099F58F898031C1F5B301A2015527662707
:101C70007727440F551F445C564FFA0191828082AA
:101C80008091D60581608093D6058A89823080F064
:101C90008D819E81AF81B8858C0D9D1DAE1DBF1DB0
:101CA0008093D7059093D805A093D905B093DA0512
:101CB00081E099CFDB01CA01E7E0B695A79597953A
:101CC0008795EA95D1F7B8CF40E0C701B6010E94E9
:101CD000690C8111C6CF86CFB301A2014F7755277A
:101CE00066277727440F551F440F551F445C564FF6
:101CF000FA0180829182A282B382C2CF8F929F9298
:101D0000AF92BF92CF92DF92EF92FF920F931F9309
:101D1000CF93DF93FC0181859285A385B4850196DD
:101D2000A11DB11D84179507A607B70770F480E0C1
:101D3000DF91CF911F910F91FF90EF90DF90CF90A7
:101D4000BF90AF909F908F90089583889488A588C6
:101D5000B6888789803189F5BB27A72F962F852FD5
:101D6000E9016A017B018F01BC01CD01680D791D7C
:101D70008A1D9B1D8090080290900902A0900A0283
:101D8000B0900B0286169706A806B90601F5F80171
:101D90008789803111F5DD24EE24FF24F601EE0F52
:101DA000FF1FE45CF64F80819181B0E0A0E0888362
:101DB0009983AA83BB8381E0BBCFDB01CA01C7E063
:101DC000B695A79597958795CA95D1F7C9CF40E065
:101DD0000E94690C8111DBCFAACFE894C7F8DD24FB
:101DE000EE24FF24F601EE0FFF1FEE0FFF1FE45C51
:101DF000F64F80819181A281B381BF70D8CF4F927D
:101E00005F926F927F92AF92BF92CF92DF92EF92EA
:101E1000FF920F931F93CF93DF9300D01F92CDB704
:101E2000DEB78C0149835A836B837C835901C12CB3
:101E3000D12C7601412C82E0582E612C712C4981E5
:101E40005A816B817C819E012F5F3F4FC8010E94A8
:101E50007E0E882339F1F8018585A301920104C023
:101E6000220F331F441F551F8A95D2F7DA01C9018B
:101E7000C80ED91EEA1EFB1E49815A816B817C81E6
:101E80008789803111F188EF9FEFAFEFBFE04817EE
:101E900059076A077B0798F2F501C082D182E28276
:101EA000F38281E00F900F900F900F90DF91CF9110
:101EB0001F910F91FF90EF90DF90CF90BF90AF9068
:101EC0007F906F905F904F90089588EF9FEFA0E014
:101ED000B0E0DDCFCF93DF93FC012581222321F0F9
:101EE00080E0DF91CF910895EC018091300C80313A
:101EF00059F582E08583178A108E118E128E80919B
:101F0000310C9091320CB0E0A0E025E0880F991FD1
:101F1000AA1FBB1F2A95D1F7838B948BA58BB68BF9
:101F200089E19CE09C8F8B8F81E08C831E821F82D5
:101F3000188619861A861B861C861D861E861F8695
:101F4000188A198A1A8ACDCF803251F683E08583A8
:101F50004091330C5091340C6091350C7091360CDB
:101F6000478B508F618F728F9F012D5E3F4F89E1AC
:101F70009CE00E94FF0E8111D3CFB2CF8F929F922F
:101F8000AF92BF92CF92DF92EF92FF920F931F9387
:101F9000CF93DF93EC018D8181110EC080E0DF9142
:101FA000CF911F910F91FF90EF90DF90CF90BF9056
:101FB000AF909F908F9008950B891C892D893E8941
:101FC000041715072607370748F34A015B018230DB
:101FD00031F48A869B86AC86BD8681E0E0CF811491
:101FE0009104A104B10449F41E821F821886198647
:101FF0001A861B861C861D86F0CF0A851B852C85BC
:102000003D85EB8DFC8D858590E00996B901A80191
:102010004150510961097109082E04C076956795F0
:10202000579547950A94D2F775016401E1E0CE1AFD
:10203000D108E108F10804C0F694E794D794C79456
:102040008A95D2F7C416D506E606F70620F0012BCE
:10205000022B032B11F58F89988DA98DBA8D8E8354
:102060009F83A887B9878E010A5F1F4FC114D104CF
:10207000E104F10409F4ADCF4E815F816885798573
:1020800098018B8D9C8D0E947E0E91E0C91AD1081B
:10209000E108F1088111EACF81CFC41AD50AE60A16
:1020A000F70AE1CF3F924F925F926F927F928F92A9
:1020B0009F92AF92BF92CF92DF92EF92FF920F93D7
:1020C0001F93CF93DF93CDB7DEB72C970FB6F8945D
:1020D000DEBF0FBECDBF5C01DC015B968D909C9096
:1020E0005C9716964D905D906D907C901997411479
:1020F00051046104710409F468C0BFEF4B1A5B0A14
:102100006B0A7B0A312CF40181859285A385B48505
:102110009C01AD012F5F3F4F4F4F5F4F29873A879B
:102120004B875C87730162011D821E821F821886A5
:10213000F40181859285A385B4852D813E814F81EF
:102140005885281739074A075B0708F056C0898564
:102150009A85AB85BC858C159D05AE05BF0550F4F1
:1021600082E0C82ED12CE12CF12C92E0492E512C8A
:10217000612C712C9E012F5F3F4FB701A601C40156
:102180000E947E0E8823C9F189819A81AB81BC812E
:10219000892B8A2B8B2B09F1260137019FEF491AD6
:1021A000590A690A790A2D813E814F8158852F5F2E
:1021B0003F4F4F4F5F4F2D833E834F8358873FEFF5
:1021C000C31AD30AE30AF30AB3CFF4014080518063
:1021D000628073803324339496CFC414D504E6040C
:1021E000F70409F70FEF1FEF2FEF3FE0B701A6014C
:1021F000C4010E94DC0D811119C080E02C960FB63D
:10220000F894DEBF0FBECDBFDF91CF911F910F912C
:10221000FF90EF90DF90CF90BF90AF909F908F9006
:102220007F906F905F904F903F900895D5011696E4
:102230004D915D916D917C91199741155105610505
:10224000710539F097018601C4010E94DC0D8823D5
:10225000A1F2D5011696CD92DD92ED92FC921997DE
:10226000332051F0D701C6010196A11DB11DF40123
:1022700080839183A283B383F5018789908DA18D9B
:10228000B28D892B8A2B8B2B39F48481C78AD08E0F
:10229000E18EF28E80688483F5018481806284837C
:1022A00081E0ACCF1F93CF93DF93FC0125812223E4
:1022B000D1F1162FEC01848187FF2AC066857785CE
:1022C0008089918941E00E94690C882361F1EA8943
:1022D00080E2E89FF0011124E45CF64F309719F199
:1022E0008D81823040F48B899C89AD89BE89848F31
:1022F000958FA68FB78F8F89988D938F828F8F89B7
:10230000988DA98DBA8DB58BA48B8C818F778C839A
:10231000111103C08C818F7E8C83812FDF91CF912F
:102320001F910C943E0C80E0DF91CF911F91089596
:10233000FF920F931F93CF93DF93EC018D81813038
:1023400041F090E080E0DF91CF911F910F91FF90DD
:1023500008958C8181FFF5CF82FD1BC000913C0B5D
:1023600010913D0BC8010E94970A0E94760AF82E30
:10237000C8010E94640A8FEFF812E3CF8C8185FFB9
:102380001BC060E0CE010E9452118C818F7D8C8336
:10239000D8CF4B895C896D897E898A859B85AC8580
:1023A000BD8584179507A607B707C1F2CE010E9425
:1023B000BE0F8111D3CFC5CF4091D7055091D8051D
:1023C0006091D9057091DA05452B462B472B21F0FA
:1023D00080E00E941A0CB5CF80618C832A853B85F2
:1023E000317080E092E0821B930BADCFCF93DF93EF
:1023F000EC0161E00E945211882311F01D8281E0FE
:10240000DF91CF9108952F923F924F925F926F92FA
:102410007F928F929F92AF92BF92CF92DF92EF9274
:10242000FF920F931F93CF93DF9300D01F921F92C1
:10243000CDB7DEB77C015B01342E5D83DC011596E0
:102440008C911597813009F0CEC014962C9021FE06
:10245000CAC022FCB4C0C32CDD8022947FE02722B6
:102460002094B22DB1702B2ED7011A964D915D910B
:102470006D917C911D97C114D10409F428C15B961C
:102480008D919C915C97FC0174807A948A019B01E8
:1024900069E036952795179507956A95D1F77022CB
:1024A0008A011170711020C001151105E9F416960A
:1024B0004D915D916D917C91199741155105610583
:1024C000710509F099C057968D919D910D90BC9121
:1024D000A02D0097A105B10509F0B0C0C7010E9469
:1024E0005210882309F47FC080E092E0801B910B9A
:1024F00046018C159D0508F44C01D7015B964D9162
:102500005C915C9716968D919D910D90BC91A02D3C
:102510000297A109B109FA01258504C0880F991F06
:10252000AA1FBB1F2A95D2F74685578560897189F6
:10253000840F951FA61FB71F9C01AD01270D311DEC
:10254000411D511D29013A01811432E0930609F021
:102550007BC08091080290910902A0910A02B0917B
:102560000B0284159505A605B70559F48FEF9FEF6B
:10257000DC018093080290930902A0930A02B093B1
:102580000B02022D9501B301A20180913C0B9091A9
:102590003D0B0E94AC0B882331F19EEFB91AC8188D
:1025A000D908F70182859385A485B585880D991D85
:1025B000A11DB11D82879387A487B58755CFF701E9
:1025C000438954896589768982859385A485B585F3
:1025D000481759076A077B0709F43DCFC7010E94D6
:1025E000BE0F811138CF81E090E0D70113969C9304
:1025F0008E93129780E007C09E012F5F3F4F0E948D
:102600007E0E811102C090E079C089819A81AB81F0
:10261000BC81F701238D348DF901278948EF5FEFE5
:1026200060E070E0203121F048EF5FEF6FEF7FE076
:1026300084179507A607B70708F050CFF7018683E0
:102640009783A087B18750CF0115110599F5D70160
:102650001A964D915D916D917C911D9753968D9138
:102660009D910D90BC91A02D481759076A077B07D3
:1026700008F181E00E943E0C882309F4B4CF409217
:1026800008025092090260920A0270920B02809135
:10269000D60581608093D605C801845C964FD5012C
:1026A0009C01280D391DFC012E173F0759F04D9153
:1026B0004193FACF41E0C301B2010E94690C81113C
:1026C000EBCF91CF281B390BA20EB31E68CFF701B9
:1026D00083899489A589B68984179507A607B707C2
:1026E00038F48481438B548B658B768B806884832C
:1026F000F701848183FD1AC0832D9D810F900F9077
:102700000F900F900F90DF91CF911F910F91FF903D
:10271000EF90DF90CF90BF90AF909F908F907F9081
:102720006F905F904F903F902F90089561E0C701A8
:102730000E945211882309F456CFDECFCF93DF9346
:102740001F92CDB7DEB7698341E050E0BE016F5FF5
:102750007F4F0E9403120F90DF91CF910895FC01EB
:10276000DB0112968D919C911397938382838EE463
:1027700092E09183808314968C91149784831596AC
:102780008C911597858316964D915D916D917C91F5
:10279000199746835783608771871A964D915D918B
:1027A0006D917C911D9742875387648775871E962C
:1027B0004D915D916D917C91519746875787608BC4
:1027C000718B52968C915297828B53964D915D915D
:1027D0006D917C915697438B548B658B768B579676
:1027E0004D915D916D917C915A97478B508F618F80
:1027F000728F5B968D919C91948F838F0895FC01CD
:10280000818D928D009719F061E00C94521108951A
:10281000DC015996ED91FC913097B9F08389948948
:10282000A589B6894285538564857585841B950B7A
:10283000A60BB70B811520E89207A105B10538F06A
:102840008FEF9FE7A0E0B0E0089590E080E008956A
:10285000DC0159968D919C91009739F0DC01ED9146
:10286000FC910480F581E02D199490E080E00895BA
:10287000CF93DF93EC01E98DFA8D309749F481E035
:1028800090E09B838A8390E080E0DF91CF91089570
:1028900013821282898D9A8D0E940312E98DFA8D1E
:1028A00022813381232B59F7F0CFCF93DF931F92EF
:1028B000CDB7DEB76983DC01ED91FC910280F38135
:1028C000E02D41E050E0BE016F5F7F4F19950F9002
:1028D000DF91CF9108952F923F924F925F926F9226
:1028E0007F928F929F92AF92BF92CF92DF92EF92A0
:1028F000FF920F931F93CF93DF9300D0CDB7DEB736
:10290000FC018581811118C08FEF9FEF0F900F9010
:102910000F90DF91CF911F910F91FF90EF90DF907B
:10292000CF90BF90AF909F908F907F906F905F906F
:102930004F903F902F900895848180FFE5CF438989
:1029400054896589768982859385A485B585312CDE
:10295000212C481759076A077B0719F02224239472
:10296000312C6F012101CE0101963C01DF01169649
:10297000BB83AA834114510409F4C5C0F601428502
:102980005385648575854A01F1E09F22D6015B96E7
:102990008D919C915C978A019B01E9E03695279582
:1029A00017950795EA95D1F71596EC91E230E9F580
:1029B000FC01628D738D848D958D600F711F821F58
:1029C000931FA12C22E0B22EA818B9084A145B0468
:1029D00008F45201F601248126FD04C0A114F2E09E
:1029E000BF0671F4009108021091090220910A02B9
:1029F00030910B02061717072807390709F05EC048
:102A000040E00E94690C882309F47ECFC401845CF5
:102A1000964FD3019C012A0D3B1DFC012E173F0749
:102A200009F46CC041914D93F9CFDC011496BC9030
:102A3000BA94B0228114910479F4B1100DC0452BE1
:102A4000462B472B69F5F6018789908DA18DB28DB4
:102A500086839783A087B187D6015B96ED91FC9121
:102A60005C9716966D917D918D919C91199762500E
:102A7000710981099109258504C0660F771F881F98
:102A8000991F2A95D2F70685178520893189600F0D
:102A9000711F821F931F6B0D711D811D911D91CFA1
:102AA000D60116964D915D916D917C9119972A8171
:102AB0003B810E947E0E8111CFCF26CF730185010D
:102AC0009401AB01BC0180913C0B90913D0B0E94A5
:102AD0000A0B882309F418CF6A0C7B1CF601828547
:102AE0009385A485B5858A0D9B1DA11DB11D828787
:102AF0009387A487B5874A185B083CCF281B390BFE
:102B0000620E731EEBCF2A94232809F0FDCE898133
:102B100090E0FCCEFC01818D928D009711F00C9419
:102B20006B148FEF9FEF08950F931F93CF93DF9355
:102B3000EC01898D9A8D10E000E0009799F00E94D9
:102B40006B148C010F3F100769F0898D9A8DFC0181
:102B50004285538564857585415051096109710924
:102B60000E94BE0FC801DF91CF911F910F91089570
:102B7000CF92DF92EF92FF921F93CF93DF93EC01FE
:102B800080E2689FF0011124E45CF64F9385917117
:102B900061F0842F827449F080E0DF91CF911F9122
:102BA000FF90EF90DF90CF900895142F6A8B809163
:102BB000080290910902A0910A02B0910B028E873F
:102BC0009F87A88BB98BC488D588F12CE12C76011E
:102BD000DD24CC24CF8AD88EE98EFA8E828D938D17
:102BE000B0E0A0E0AC01BD014C295D296E297F2930
:102BF0004F8B588F698F7A8F83858871B1F4848D5C
:102C0000958DA68DB78D8B8B9C8BAD8BBE8B81E00C
:102C10008D831F701C831E821F82188619861A8658
:102C20001B861C861D8681E0B8CF803109F0B4CFA9
:102C30009E012D5E3F4F8B8D9C8D0E94FF0E882341
:102C400009F4AACF84E0E4CFDC0196E0FB01019017
:102C50000D929A95E1F70895BC018DE196E00E94EE
:102C6000241667E176E083E296E00C942416DC01FA
:102C700094E0FB0101900D929A95E1F7089583E2AB
:102C800096E00E942C1667E376E08BE396E00E94C4
:102C9000371662E47BE087E396E00E9437160C94D7
:102CA0003A08262F206120934C06643021F00097CB
:102CB00011F481E090E061E00E94BC0710922D06C3
:102CC00088E280932E060E943F1684E080934D0692
:102CD00010924E0622E04CE150E06AE182E30E944D
:102CE000E70786E390E00C946509CF93DF93EC014E
:102CF00060E080911506909116060E94511689E1B8
:102D000080934C06CE01DF91CF910C94C509CF93EF
:102D1000DF93EB010E942C16BE018BE396E00E942C
:102D2000371662E47BE087E396E0DF91CF910C9465
:102D30003716CF93DF93DC0114962D913C911597B4
:102D4000232B79F0FB01CD91DC9160817181CE0163
:102D50000E941338009729F08C1B9D0BDF91CF91B7
:102D600008958FEF9FEFFACFFB0101900020E9F764
:102D70003197AF01461B570BDC01ED91FC910280AE
:102D8000F381E02D19948F929F92AF92BF920F938F
:102D90001F93CF93DF93CDB7DEB7A1970FB6F8940B
:102DA000DEBF0FBECDBF19A2423008F44AE08E014B
:102DB0000F5D1F4F842E912CB12CA12CA5019401E5
:102DC0000E94D536E62FB901CA01EA3004F5E05D6C
:102DD000D801EE938D01232B242B252B79F790E03E
:102DE00080E0109729F0BD0186E59CE00E94B416B2
:102DF000A1960FB6F894DEBF0FBECDBFDF91CF9185
:102E00001F910F91BF90AF909F908F900895E95CB4
:102E1000DFCF0F931F93CF93DF93EC010E94B41683
:102E20008C0168E672E0CE010E94B416800F911FFB
:102E3000DF91CF911F910F9108950F931F93CF931F
:102E4000DF93EC0188819981009759F02A813B81B9
:102E50002617370730F081E0DF91CF911F910F9156
:102E600008958B016F5F7F4F0E94FF36009759F0E6
:102E7000998388831B830A832C813D81232B59F7F7
:102E8000FC011082E8CF80E0E7CFEF92FF920F9332
:102E90001F93CF93DF936115710541F480E0DF91BB
:102EA000CF911F910F91FF90EF900895411551051B
:102EB000B1F07B01EC010C811D81040F151FB801DD
:102EC0000E941D17882351F3288139818C819D81AF
:102ED000B701820F931F0E94FD371D830C8381E091
:102EE000DECFCF93DF93EC0188819981009711F0B9
:102EF0000E945D34198218821D821C821B821A82F4
:102F0000DF91CF910895CF93DF93EC01FB01019006
:102F10000020E9F73197AF01461B570B0E94451778
:102F2000811103C0CE010E947117CE01DF91CF91B4
:102F30000895CF93DF93EC01FB01448155816081BB
:102F400071810E944517811103C0CE010E94711743
:102F5000CE01DF91CF910895EF92FF920F931F93CF
:102F6000CF93DF93EC017B018A01BA010E941D1708
:102F700081110BC0CE010E947117CE01DF91CF915C
:102F80001F910F91FF90EF9008951D830C83B7015F
:102F9000888199810E94FD37F0CFFB0101900020CC
:102FA000E9F73197AF01461B570B0C94AC170F9301
:102FB0001F93CF93DF9300D000D000D0CDB7DEB702
:102FC0008C01862FF80111821082138212821582E1
:102FD00014824AE0BE016F5F7F4F90E00E94FA3496
:102FE000BE016F5F7F4FC8010E94CD1729960FB6B3
:102FF000F894DEBF0FBECDBFDF91CF911F910F912F
:1030000008950F931F93CF93DF93CDB7DEB76297E9
:103010000FB6F894DEBF0FBECDBF8C01CB01F80117
:103020001182108213821282158214824AE0BE013C
:103030006F5F7F4F0E94EF34BE016F5F7F4FC8010B
:103040000E94CD1762960FB6F894DEBF0FBECDBFBB
:10305000DF91CF911F910F910895CF93DF93EC01F2
:10306000FB018617970749F0608171816115710531
:1030700041F0448155810E94AC17CE01DF91CF9180
:1030800008950E947117F9CFFC01118210821382FA
:103090001282158214826115710551F0FB010190B5
:1030A0000020E9F73197AF01461B570B0C94AC1782
:1030B0000895FC0180819181009711F00C945D349A
:1030C0000895EF92FF920F931F93CF93DF93EC013C
:1030D0007B018A011B821A8288EE93E0A0E0B0E0B7
:1030E0008C839D83AE83BF838AE592E09983888336
:1030F0008DE190E00E94C1339A8F898F009779F01B
:103100002DE1F701DC0101900D922A95E1F74CE0E9
:1031100050E0B801CE010C960E940438188EDF9161
:10312000CF911F910F91FF90EF900895CF93DF9370
:10313000EB0144E050E0BC0189E396E00E94E037F7
:10314000892B49F463E376E0CE010E94241681E0E6
:10315000DF91CF91089580E0FBCF3F924F925F9235
:103160006F927F928F929F92AF92BF92CF92DF9297
:10317000EF92FF920F931F93CF93DF9300D000D075
:1031800000D01F921F92CDB7DEB77C01FE013196B1
:10319000CE010C966F0130E23193E817F907E1F7A1
:1031A000DA0130E087E09D91B92E992309F43CC003
:1031B0009E32F1F48A30C9F480E02B960FB6F89471
:1031C000DEBF0FBECDBFDF91CF911F910F91FF905A
:1031D000EF90DF90CF90BF90AF909F908F907F90B7
:1031E0006F905F904F903F90089538E08AE0DBCF7A
:1031F000E4E9F1E04491442321F031969413FACFAD
:10320000DBCF8317C8F24FED490F4E35A8F64FE9D3
:10321000490F4A3118F440EEB42EB90EF601E30F0F
:10322000F11DB0823F5FBFCF8981803229F2322EFB
:103230008B01DB015B968D919C915C97F701948FDC
:10324000838F16961D921D921D921C921997FB0159
:103250001286138614861586F80182859385A485C7
:10326000B585438954896589768984179507A607AA
:10327000B70708F04DC025E0B695A79597958795B7
:103280002A95D1F7F82FFF70AF2ED80115968C91A3
:10329000823008F491CFC8010E946B1497FD8CCF47
:1032A000F80182859385A485B5854F96A11DB11D32
:1032B00082879387A487B587F0E2AF9EB00111247F
:1032C000645C764F6115710509F476CFDB018C9152
:1032D000882341F0853E09F062C0BB2029F0BB2461
:1032E000B394BACFB1100EC0F701A28A8091080240
:1032F00090910902A0910A02B0910B0286879787EC
:10330000A08BB18BDB018C918111E9CFBB24B394ED
:10331000832D8271823109F04FCFBB2009F44DC05B
:10332000F701668577858089918941E00E94690C63
:10333000882309F441CFD70152968C91B0E28B9F3C
:10334000C0011124845C964F009709F435CFFC012D
:103350003A9626E1DF011D922A95E9F72BE0F60166
:10336000DC0101900D922A95E1F721E238E2FC019F
:10337000318B208B40E058E057874687338B228B78
:10338000318F208F578B468B81E00E943E0C882323
:1033900009F412CF432DD70152966C910AC04BE02D
:1033A00050E0C6010E94E037892B09F055CF432D2C
:1033B0006A2DC7010E94B81500CFF80185818230BF
:1033C00009F4FACEC8010E945210882309F4F4CE01
:1033D000D8015B96ED91FC915C9716968D909D902F
:1033E000AD90BC901997B2E08B1A9108A108B10872
:1033F000858504C0880C991CAA1CBB1C8A95D2F731
:1034000086859785A089B189880E991EAA1EBB1E44
:10341000848124013501480E511C611C711C8414E7
:103420009504A604B70409F1E1E04E1A51086108B9
:10343000710881E00E943E0C882309F4BDCEECE3C4
:10344000F9E011928CE39BE08E179F07D1F7409231
:1034500008025092090260920A0270920B02809157
:10346000D60581608093D605DACFD8015B96ED91C1
:10347000FC91258580E092E0A0E0B0E004C0880FD8
:10348000991FAA1FBB1F2A95D2F7F80143895489B7
:1034900065897689840F951FA61FB71F838B948B30
:1034A000A58BB68BD70152961C928CE399E04FCF37
:1034B000CF92DF92FF920F931F93CF93DF93CDB7FD
:1034C000DEB7C755D1090FB6F894DEBF0FBECDBF2A
:1034D0008C01F62E1C821B828EE4C82E82E0D82E30
:1034E000DA82C9821E82CE0101960E946A0FBE0155
:1034F0006F5F7F4FCE01CB960E94AF1319A218A227
:10350000DF8ECE8E1BA221968FAD2197811122C016
:10351000F8011382128288EE93E0A0E0B0E0848389
:103520009583A683B7838AE592E091838083128E88
:10353000118E1486C801C95ADF4F0FB6F894DEBF4A
:103540000FBECDBFDF91CF911F910F91FF90DF9004
:10355000CF9008952F2D4BE652E0BE01655C7F4F62
:10356000CE014E960E94AD18882391F2CE01CB96E3
:103570000E94F6118F2D8670863041F449A95AA910
:103580006BA97CA9CE014E960E94BE0FBE01625E61
:103590007F4FCE0101960E94AF134BE652E0BE0171
:1035A0006F5F7F4FC8010E946118C4CFCF93DF9334
:1035B000CDB7DEB7E3970FB6F894DEBF0FBECDBF31
:1035C0008091D2059091D3050E94352D0E948E06E0
:1035D000882341F08091770C8B3049F018F08551A9
:1035E000823008F160E070E080EC9FE707C06091F6
:1035F000710C70E090E080E00E9424350E94A636B5
:10360000062F0E948E06882349F08091770C8B301C
:1036100059F120F08551823008F4F9C060E070E083
:1036200080EC9FE728C06091710C70E090E080E032
:103630000E94243520E030E040E853E40E946135E8
:103640006B017C016091720C70E090E080E00E9460
:103650002635A70196010E943A362DEC3CEC4CEC45
:103660005DE30E946135CACF6091730C70E090E019
:1036700080E00E9424350E94A636162F802F90E00D
:103680009093CF058093CE05812F90E09093D10544
:103690008093D0058091CC059091CD050E94352D69
:1036A00067E1CE0101960E94581ACE0101960E9450
:1036B0007F03E0916F0CF091700C309709F477C0A4
:1036C0008581882309F473C06AE672E083E89CE090
:1036D0000E94CD1768E772E086E59CE00E94B41670
:1036E000612F70E090E080E04AE00E94C31661E83C
:1036F00072E086E59CE00E94B416602F70E090E0D6
:1037000080E04AE00E94C3166EE872E086E59CE025
:103710000E940917602FCE018E960E94D71760E98C
:1037200072E0CE0188960E944418612FCE018296E5
:103730000E94D71768E972E0CE0101960E944418F2
:103740001D8E1C8E1F8E1E8E19A218A2BE016F5FC9
:103750007F4FCE014C960E942D18BE016E5D7F4FAB
:10376000CE014C960E949917BE01685D7F4F0E9462
:103770009917BE01625D7F4F0E949917BC0183E8D3
:103780009CE00E942D18CE014C960E945918CE0143
:1037900001960E945918CE0182960E945918CE01B6
:1037A00088960E945918CE018E960E9459188091D1
:1037B0006F0C9091700C009761F00E94F61180914F
:1037C0006F0C9091700C0E945D341092700C1092EE
:1037D0006F0C70E060E08091CC059091CD050E9467
:1037E000D52B70E060E08091D2059091D3050E94C6
:1037F000D52B0E94392860E089E090E00E946F2973
:103800000E94AF2A8111DCCE0E94E929D9CE109105
:10381000730C612F6F7770E090E080E00E94263596
:1038200020E030E040E853E40E9461356B017C0108
:103830006091740C70E090E080E00E942635A70152
:1038400096010E943A362DEC3CEC4CEC5DE30E9474
:10385000613517FF10CF90580ECF0F931F93CF9362
:103860008C0182E392E00E942C16EDE1F6E088E004
:103870008487C6E0C58748E050E061EB71E08BE2E9
:1038800096E00E94E634EDE3F6E0DF011D92CA9572
:10389000E9F767E176E083E396E00E942416B80139
:1038A00083E496E00E94371662E47BE089E396E0C9
:1038B0000E9437168AE290E0CF911F910F910C94ED
:1038C0006509EF92FF920F931F93CF93DF938C01C3
:1038D000EDE1F6E086E191E0DF019C011D922150CF
:1038E0003040E1F780910D06C2E3D2E0833011F45D
:1038F000CDEED5E0CE010E94FC03BE01882309F481
:10390000ACC085EE95E00E9487168881807F803E5E
:1039100091F088819981AA81BB818F3F9F4FAF4FE2
:10392000BF4F49F044E050E0BE018BED95E00E94AE
:10393000E037892B31F462E372E08DE196E00E947A
:10394000241688E08093290610922A0649E050E068
:1039500064EA71E08BE296E00E94E63410922D0654
:1039600081E1809334061092410683E480934206FD
:1039700010923F0684E48093400610924306109212
:1039800045061092460662E372E08DE196E00E94E1
:10399000241681E0809347068093480686E0809352
:1039A00049068091FD059091FE05A091FF05B0911B
:1039B000000680934B0690934C06A0934D06B0935F
:1039C0004E06C0910D06C33031F462E47BE083E51E
:1039D00096E00E94371667E176E083E696E00E9463
:1039E000241683E397E09093EC058093EB05EDEAD2
:1039F000F1E084910E94360AEEEAF1E084910E949F
:103A0000360AEFEAF1E084910E94360AE0EBF1E039
:103A100084910E94360A85E30E94360A81E00E9462
:103A2000360A83E0C11101C081E00E94360A8DE3AD
:103A30000E94360A87E00E94360A81E00E94360A18
:103A400087E1E82E86E0F82EC7E0C15049F0D701A3
:103A50008D917D010E94360AF8CF8FED95E053CF0E
:103A600080910C02882371F06CE072E0FB01019000
:103A70000020E9F7BF016D5072404CE052E08CE04D
:103A80000E94430A0115110559F0A80164E082E380
:103A90000E94430A4DEE55E064E086E30E94430A2B
:103AA00087E30E94360A83E00E94360A81E00E9482
:103AB000360A83E00E94360A86E00E94360A8FEFBB
:103AC0000E94360AC091EB05D091EC05C754D64050
:103AD000CE014C9690932D0680932E060E943A08B4
:103AE000CE0108969093430680934406AE01405F52
:103AF0005F4F21E06AE188E20E94E707CE018A96E3
:103B0000DF91CF911F910F91FF90EF900C94650979
:103B1000CF92DF92EF92FF920F931F93CF93DF9399
:103B200000D01F92CDB7DEB78C0180910D06823098
:103B3000C9F098F4882309F49CC0813009F4B8C016
:103B40000F900F900F900F90DF91CF911F910F91D9
:103B5000FF90EF90DF90CF900895833009F454C028
:103B6000843071F765E0C8010E94F609882309F4E2
:103B7000C7C08091F105811108C088E30E94CD087B
:103B8000682F6E7F88E30E94B30867E576E082E4E1
:103B90009BE00E943716E7E3F7E0035E194F7F01D1
:103BA00022E0E20EF11CD1808081863009F4FAC057
:103BB00008F0BDC0813009F4EBC0833009F4EEC0D9
:103BC000F701ED0DF11DE017F10748F30E948206A1
:103BD0006093050670930606809307069093080687
:103BE0008091F905882361F01092F8051092F7058D
:103BF00081E08093F60569EF75E0CB010E943716EE
:103C000083E080930D069CCFC0900906D0900A06F1
:103C1000E0900B06F0900C062FEFC216D206E206DB
:103C2000F20609F48DCF0E948206009105061091DC
:103C300006062091070630910806601B710B820B67
:103C4000930B6C157D058E059F0508F479CF82E4F2
:103C50009BE00E94611C84E080930D060E94820616
:103C60006093010670930206809303069093040606
:103C700067CF0E9482066093FD057093FE058093D6
:103C8000FF0590930006E2E4FBE084E0DF011D9273
:103C90008A95E9F790E080E00E94611C88E30E9429
:103CA000CD08682F616088E30E94B30881E0D4CF1B
:103CB00062E0C8010E94F609882311F167E576E009
:103CC000CE0101960E943716E7E3F7E0035E194F35
:103CD000BF016E5F7F4F81819081963351F48DEEED
:103CE00095E00E943716CE0101960E94611C82E089
:103CF000B3CFFB01E80FF11DE017F10748F3F3CF55
:103D00000E9482060091010610910206209103068E
:103D100030910406601B710B820B930B613177426B
:103D20008105910508F40CCF10920D0609CF8A3356
:103D300031F08F3F09F44ACF833309F041CF10921D
:103D4000090610920A0610920B0610920C06F70153
:103D5000C701049620E030E0A9016191542F432F60
:103D6000322F2227260F311D411D511D8E179F070F
:103D7000A1F72F3F8FEF380748075807B9F4209372
:103D8000090630930A0640930B0650930C0618CF91
:103D9000B7018EE39BE00E94371612CFB70189EF7F
:103DA00095E0F9CFB70182EF95E0F5CFA8EEB3E04B
:103DB0000E941F366093090670930A0680930B06D3
:103DC00090930C06FDCECF92DF92EF92FF920F936D
:103DD0001F93CF93DF93E0917E0BF0917F0B82E0F6
:103DE0008083E0917A0BF0917B0B1082E0917C0B49
:103DF000F0917D0B8FEC80831092860BE091820B0B
:103E0000F091830B86E08083E091800BF091810B31
:103E1000808180618083E091800BF091810B8081B3
:103E200088608083E091800BF091810B80818068B5
:103E30008083E091800BF091810B80818F7D808366
:103E40006FE972E08EE69BE00E94B41680913C0C14
:103E5000882321F087E39CE00E94F6111092180C51
:103E60001092160C1092130C1092120C8DE280938B
:103E7000110C0E948206EB0161E08091110C0E94FE
:103E8000EF0561E08091110C0E9463051FB7F89463
:103E90008091B605811127C0E2E8F2E08491E8EC58
:103EA000F2E09491E82FF0E0EE0FFF1FE754FE4F91
:103EB000A591B491EC91E92321F461E085E30E949E
:103EC000630561E085E30E94EF058CB580618CBDE0
:103ED0008CB580648CBD61E084E30E94EF0561E0F5
:103EE00083E30E94EF058091B6058F5F8093B6054E
:103EF0001FBF82E580930B0C10920C0C80910B0C71
:103F000090910C0C0E94940A1AE08FEF0E946F0AA5
:103F10001150D9F78DE09CE00E94970A20E030E034
:103F2000A90160E08DE09CE00E94AD0A182F80930B
:103F3000170C8130A9F00E9482066C1B7D0B613D3D
:103F4000774060F381E08093120C8DE09CE00E944A
:103F5000640A6AEC72E08EE69BE00E940917FFCFCC
:103F60002AEA31E040E050E068E08DE09CE00E9409
:103F7000AD0A82FF2AC01093180C8091180CC12C36
:103F8000D12C7601823029F4C12CD12CE12C40E4D3
:103F9000F42E20E030E0A90167E38DE09CE00E9470
:103FA000AD0AA701960169E28DE09CE00E94AD0A8E
:103FB0008093170C8823C1F00E9482066C1B7D0B36
:103FC000613D774030F388E0BECF14E00E94760A6E
:103FD0008093170C1150D1F78A3A11F082E0B3CFD9
:103FE00082E08093180CC9CF8091180C8230D1F4F4
:103FF00020E030E0A9016AE38DE09CE00E94AD0A78
:10400000882311F086E09FCF0E94760A807C803C56
:1040100019F483E08093180C0E94760A0E94760AB5
:104020000E94760A8DE09CE00E94640A80E58093FD
:104030000B0C10920C0C81E00E94B30C882379F1D8
:1040400087E39CE00E946A0F882309F482CF67EB24
:1040500072E08EE69BE00E9409171092CB0587E381
:1040600090E0C12CD12C7601C3940097F9F0FC01AB
:1040700023E0F595E7952A95E1F7E954FA4F282FC3
:104080002770B701A60104C0440F551F661F771F94
:104090002A95D2F72081242B20830197E6CF80E058
:1040A0000E94B30C882309F454CFCACF60E072E0B9
:1040B00087E196E00E9424168CEB92E09093110623
:1040C000809310060CB406FC25C061E085E30E94D5
:1040D000EF0561E085E30E94630561E083E30E94F0
:1040E000EF0561E084E30E94EF0560E082E30E9457
:1040F000EF0561E083E30E94630560E083E30E94D3
:10410000630560E084E30E94630580E58CBD8DB5A6
:1041100081608DBD85E380930E0661E00E94EF050E
:104120000E944E084FEF60E08FEF0E94820862E02D
:1041300070E080E090E00E9450060E9455088DE1FA
:104140000E94490880E00E944908CEB50E944E08AE
:10415000C0FFF3CF70E060E088E00E94C00870E02C
:1041600060E08CE00E94C0086FEF7BE08AE00E9474
:10417000C00860E07CE084E00E94C0086FEF71E15D
:1041800086E00E94C00866E774E084E10E94E309CB
:1041900061EB88E30E94B3086FE370E388E20E945A
:1041A000C00869EF77EF80E30E94C00861E080EC0F
:1041B0000E94B30842E362EC80E80E94820862E158
:1041C0007CE086EC0E94C00862E184EC0E94B308A7
:1041D0006CED75E08AEC0E94C0086091170684EED1
:1041E0000E94B3086091180685EE0E94B3086091A2
:1041F000190682EE0E94B30860911A0683EE0E94AF
:10420000B30860911B0680EE0E94B30860911C0603
:1042100081EE0E94B30860E071E080E10E94E30952
:104220008FE10E94970840EC6BE180E80E948208D1
:1042300044E06FE180E80E94820882E70E94CD0896
:10424000863008F08F5F61EE72E0882311F06EE037
:1042500073E08EE69BE00E94091781E08093CB0516
:1042600080911C06282F30E094E0359527959A958B
:10427000E1F7ECE0F2E001900020E9F7EF50F240C6
:1042800097E32A300CF490E3E45FFD4F920F9083A4
:10429000ECE0F2E001900020E9F7EE50F2408F7080
:1042A00097E38A300CF490E3890FE45FFD4F80833D
:1042B00010920D060E948206EB0110910D0613303C
:1042C00041F00E9482066C1B7D0B60367A4E08F42A
:1042D0006CC0E2E4FBE0CEE3DBE0ABEDB5E026E46E
:1042E0003BE0919189918095892B8D932E173F0703
:1042F000C1F71092F8051092F705133031F06AE11A
:1043000073E08EE69BE00E94091766E273E08EE69A
:104310009BE00E94091760E081E00E94D7319093F2
:10432000CD058093CC0560E081E00E94D731909369
:10433000D3058093D20570E060E08091CC05909128
:10434000CD050E94D52B70E060E08091D205909160
:10435000D3050E94D52B63E373E08EE69BE00E94B9
:10436000091700EC15E021E040E054E069E473E057
:1043700080E294E20E94C9300EEB15E021E040E0BB
:1043800052E062E573E086ED9AE10E94C93062E393
:1043900070E080E090E0DF91CF911F910F91FF904E
:1043A000EF90DF90CF900C9450060E94E50882FFBA
:1043B00084CF0E94FB080E94881D7FCF8F929F921E
:1043C000AF92BF92CF92DF92EF92FF920F931F9323
:1043D000CF93DF93CDB7DEB7AD970FB6F894DEBFBE
:1043E0000FBECDBFADB6BEB6009709F078C08DB692
:1043F0009EB66091D0057091D105CE0182960E9443
:1044000001186091CE057091CF05CE014C960E94A7
:1044100001186BE573E0CE0101960E944418BE01BD
:10442000645E7F4FCE0101960E94991767E973E0A1
:104430000E948317BE016E5D7F4F0E94991762EA4A
:1044400073E00E94831719A618A61BA61AA61DA61C
:104450001CA6BC01CE0188960E942D18CE010196A3
:104460000E945918CE014C960E945918CE0182968E
:104470000E9459180CA51DA58DB79EB7801B910BE6
:104480000FB6F8949EBF0FBE8DBFEDB7FEB7319645
:104490007F016F01B6016E197F098CA59DA5681774
:1044A000790750F4CE0188960E941C04FC0180819B
:1044B000F60181936F01EECFA801B70183E596E085
:1044C0000E94ED37C8010E947516CE0188960E94A1
:1044D00059180FB6F8949EBE0FBE8DBE63C18130D1
:1044E000910509F066C08DB69EB66091D0057091B9
:1044F000D105CE0188960E9401186091CE05709179
:10450000CF05CE0182960E94011864EA73E0CE01C5
:104510004C960E944418BE016E5D7F4FCE014C96B2
:104520000E94991763E374E00E948317BE01685DDF
:104530007F4F0E9499176AE775E00E9483171A82DD
:1045400019821C821B821E821D82BC01CE01019633
:104550000E942D18CE014C960E945918CE018296C9
:104560000E945918CE0188960E9459180D811E810B
:104570008DB79EB7801B910B0FB6F8949EBF0FBEF0
:104580008DBFEDB7FEB731967F016F01B6016E1991
:104590007F098D819E816817790708F045C1CE019A
:1045A00001960E941C04FC018081F60181936F0139
:1045B000EDCF039709F00EC1CDB6DEB66CE474E022
:1045C000CE014C960E9444188091CC059091CD0567
:1045D0000E94352D61E0CE0101960E94581ACE014D
:1045E00001960E947F036AE672E0CE0101960E9466
:1045F0004418E0916F0CF091700C309709F478C07A
:104600008581882309F474C010E000E086E59CE011
:104610000E940814892B09F46BC0043111050CF0B9
:1046200064C086E59CE00E948A15BC01CE01889694
:104630000E9401186CE174E0CE0182960E94441839
:10464000BE01685D7F4FCE0182960E949917FC01E2
:104650004481558160817181CE014C960E9445173D
:10466000CE0182960E945918CE0188960E94591850
:1046700086E59CE00E940814892B71F186E59CE098
:104680000E948A15BC01CE0188960E9401186FED28
:1046900074E0CE0182960E944418BE01685D7F4F8F
:1046A000CE0182960E9499176DEE74E00E948317E6
:1046B000FC014481558160817181CE014C960E943C
:1046C0004517CE0182960E945918CE0188960E9405
:1046D00059180F5F1F4F9ACF45E050E06DEE74E020
:1046E000CE014C960E944517F4CF0431110589F391
:1046F0004EE050E06FE775E0CE014C960E94451702
:1047000080916F0C9091700C009761F00E94F611EF
:1047100080916F0C9091700C0E945D341092700C1F
:1047200010926F0C70E060E08091CC059091CD0507
:104730000E94D52B08A119A18DB79EB7801B910BA4
:104740000FB6F8949EBF0FBE8DBFEDB7FEB7319682
:104750007F014F01B4016E197F0988A199A16817E3
:10476000790750F4CE014C960E941C04FC01808114
:10477000F40181934F01EECFA801B70183E596E0E4
:104780000E94ED37C8010E947516CE0101960E9465
:104790005918CE014C960E9459180FB6F894DEBEF7
:1047A0000FBECDBE0FB6F894BEBE0FBEADBEAD9669
:1047B0000FB6F894DEBF0FBECDBFDF91CF911F9132
:1047C0000F91FF90EF90DF90CF90BF90AF909F90B0
:1047D0008F9008958DB69EB663EF74E0CE0101967A
:1047E0000E9444180D811E818DB79EB7801B910BCE
:1047F0000FB6F8949EBF0FBE8DBFEDB7FEB73196D2
:104800007F016F01B6016E197F098D819E81681746
:10481000790750F4CE0101960E941C04FC018081AE
:10482000F60181936F01EECFA801B70183E596E011
:104830000E94ED37C8010E947516CE01019647CE41
:10484000CF93DF93CDB7DEB72C970FB6F894DEBFCA
:104850000FBECDBF2CE2622E32E1332E42E0D42EC9
:1048600054E0752E65E0B62E70E6A72EE8E74E2ED2
:10487000F6E09F2ECC24C394A8E15A2EB3E08B2EF1
:104880008091D2059091D3050E94352D0E94FB089E
:104890007C018091CB05882319F0C7010E94881DF7
:1048A000E114F10409F05EC18091F605857099F07C
:1048B0008091F7059091F805892B69F40E94E5082D
:1048C00082FF09C089EF95E00E942D1C8091F605BA
:1048D00088608093F6058091F7059091F805019620
:1048E0009093F8058093F7058091CA05813009F00F
:1048F00067C08091F60581FF63C0D092CA058091A0
:1049000007028F5F80930702182F1F7184EC95E0D8
:104910000E94FC0364EC75E0882309F411C185EE64
:1049200095E00E94871608E00093290610922A0657
:1049300049E050E064EA71E08BE296E00E94E634E0
:1049400060922E06909234060E943A081092410618
:10495000109242068BE080933F0610934006E3E4FA
:10496000F6E0DF011D920A95E9F780910602809337
:1049700045068D5F80930602A0924B06D0924C06AE
:1049800080924D0610924E0610924F0610925006DD
:104990001092510610925206D0925306709254060D
:1049A000D092550686E28093560622E040E250E01F
:1049B0006AE182E30E94E7078AE390E00E946509CA
:1049C00082EF95E00E94FC03882371F08091C90575
:1049D00081110AC08091C805811106C082EF95E05F
:1049E0000E942D1CC092C80584EC95E00E94FC0337
:1049F0008111A9C010E000E06AE672E0CE010796DE
:104A00000E9444180115110509F480C0B801635EC5
:104A1000794FCE0101960E9444188F8198850097A6
:104A200009F429C269817A816115710509F421C2ED
:104A300049855A852D813E814217530708F419C2D2
:104A40000E94FD378D819E819C878B871E821D82EF
:104A5000CE0101960E945918EF2809F457C04B85E2
:104A60005C856F8178858EE69BE00E942F0468E666
:104A700072E08EE69BE00E94B4166EE875E0CE010F
:104A800001960E944418BE016F5F7F4FCE010796CA
:104A90000E9499168C01CE0101960E94591890E04F
:104AA00080E01016110684F164E975E0CE010196EC
:104AB0000E944418BE016F5F7F4FCE0107960E948F
:104AC00099168C01CE0101960E94591881E090E060
:104AD00010161106CCF06EE975E0CE0101960E9429
:104AE0004418BE016F5F7F4FCE0107960E94991652
:104AF0008C01CE0101960E94591883E090E01016B7
:104B0000110614F082E090E00E94DE2170E060E087
:104B10008091D2059091D3050E94D52B0E9439280F
:104B200060E08CE090E00E946F290E94AF2A811122
:104B300002C00E94E929CE0107960E945918A0CE12
:104B40008FED95E0EECE8091C305811153CF80911A
:104B5000C20581114FCF84EC95E00E942D1CC092BC
:104B6000C20548CFB9E2EB16F10408F479C0809190
:104B70002906883009F074C080912A06863009F031
:104B80008BC144E050E062E47BE083E496E00E9465
:104B9000E037892B09F02ECF80913206813021F544
:104BA00083E296E00E942C1610923106D0923206D3
:104BB00063E376E08DE396E00E94241667E176E0F9
:104BC00083E396E00E94241669E376E083E496E0AE
:104BD0000E94371662E47BE089E396E00E94371674
:104BE0008AE290E00E9465098091F60583FF0DC07E
:104BF00010913206123049F46FED75E089EF95E0BF
:104C00000E94961881111093F6058091C9058111B3
:104C100010C08091C805882361F065EE75E082EFD1
:104C200095E00E949618882321F0C092C905109241
:104C3000C8058091C3058111DDCE8091C20588230E
:104C400009F4D8CE65EE75E084EC95E00E949618E4
:104C5000882309F4CFCEC092C3051092C205CACEF4
:104C60008AE2E816F10408F4C5CE8091290688305E
:104C700009F0C0CE80912A068111BCCE80912B060E
:104C8000853409F0B7CE44E050E062E47BE08BE38A
:104C900096E00E94E037892BA9F044E050E06BEDEC
:104CA00075E08BE396E00E94E037892B59F044E0F1
:104CB00050E062E372E08BE396E00E94E037892BDC
:104CC00009F098CE809134068130C9F480913F0676
:104CD000883009F08FCE0E943F1610923F068091D7
:104CE0004106883F28F0909142069F5F90934206CC
:104CF000885F80934106C7010E9465097BCE96E3D9
:104D0000E916F10408F476CE863009F073CE80916E
:104D100041068B3009F04AC044E050E064EC75E095
:104D200087E396E00E94E037892B09F063CE10916B
:104D30004C0612FF03C0B092CA055CCE0E94A107C8
:104D40002091CA052230F1F4212F20711271123105
:104D500071F460E090E080E00E94511650924C06A1
:104D60008092CA0590E080E00E94C50943CEC092BF
:104D7000CA050196222311F090E080E064E00E94D1
:104D8000511638CE253009F435CE10FF0AC0233035
:104D900009F430CE69E001960E9451169092CA053E
:104DA00029CE60E0009709F425CEE9CF811122CE0B
:104DB00080914206803509F01DCE20904C0621FEE0
:104DC00032C010922D0660922E060E943F1630923D
:104DD0004C0660E081E090E00E94BC071092430620
:104DE0001092440680910602809345061092460672
:104DF0008D5F80930602D092530670925406B09253
:104E0000550610925606A0924B06B0924D0640925F
:104E10004E0622E040E250E06AE182E30E94E707AA
:104E20008AE390E069CF24FEE5CD0E94A1078C01C2
:104E30009093160680931506892B99F000914B06E6
:104E400010E084E0159507958A95E1F7000F111F92
:104E5000000F111F0E5D1F4FE016F10608F0CCCDBC
:104E6000C9CD20FEC7CD60E090E080E00E945116E1
:104E7000C3CD0E945D3489819A8198878F838B810D
:104E80009C819A8789878D819E819C878B871A82D6
:104E900019821C821B82DACDA9E2EA16F10409F418
:104EA000A9CDE8CE1F920F920FB60F9211240BB628
:104EB0000F922F933F934F935F936F937F938F93B3
:104EC0009F93AF93BF93EF93FF938EE69BE00E9477
:104ED000A304FF91EF91BF91AF919F918F917F912B
:104EE0006F915F914F913F912F910F900BBE0F905B
:104EF0000FBE0F901F9018951F920F920FB60F9232
:104F000011240BB60F922F938F939F93EF93FF93E0
:104F1000E0917E0BF0917F0B8081E091840BF0910A
:104F2000850B82FD1DC090818091870B8F5F8F73F1
:104F30002091880B821741F0E091870BF0E0E25955
:104F4000F44F958F8093870BFF91EF919F918F91F5
:104F50002F910F900BBE0F900FBE0F901F901895C2
:104F60008081F2CF1F920F920FB60F9211242F93D0
:104F70003F938F939F93AF93BF938091E00890915D
:104F8000E108A091E208B091E3083091DF0823E046
:104F9000230F2D3758F50196A11DB11D2093DF0871
:104FA0008093E0089093E108A093E208B093E308AF
:104FB0008091E4089091E508A091E608B091E70897
:104FC0000196A11DB11D8093E4089093E508A0937C
:104FD000E608B093E708BF91AF919F918F913F9101
:104FE0002F910F900FBE0F901F90189526E8230F5A
:104FF0000296A11DB11DD2CFFC01DB010FB6F894C2
:105000000F924091460B5091470B2D913C91119777
:105010002F3F3207E1F0818192816091480B7081CE
:10502000761719F048175907C0F4481B590B421757
:10503000530788F4241B350B2D933C938091480B28
:1050400080838091460B9091470B9283818380E00F
:105050000F900FBE08951D921C9281E0F9CF0FB6FC
:10506000F8940F928091460B9091470B0F900FBED2
:105070000895809105098F5F8093050908950FB603
:10508000F8940F92FC01928D0F900FBE81E0911168
:1050900080E00895CF93DF939C01FB01DC01119622
:1050A000CD91DC91D383C2838C819D819583848350
:1050B0008C819D81DC0113967C936E9312977D8386
:1050C0006C8331872087F90180818F5F8083DF9136
:1050D000CF910895CF93DF93FC01A085B1858281A4
:1050E000938124813581EC013D832C83C481D5815A
:1050F0009B838A8311968D919C9112978E179F079F
:1051000021F41296DC93CE931197118610868C9120
:1051100081508C938C91DF91CF9108950F931F93C1
:10512000CF93DF93DC011596ED91FC91C681D78179
:105130008E01045F1F4FC8010E946A2880910509F3
:10514000811125C00A501109C8010E946A288E8960
:1051500090916D0B981710F480936D0BB9E08B9FB5
:10516000C0011124B801875B944F0E944A28E09146
:10517000B405F091B5059E898689891760F481E0B0
:105180008093DC08DF91CF911F910F910895B801B2
:105190008EE199E0EACF80E0F5CFEF92FF920F9396
:1051A0001F93CF93DF93EC010FB6F8940F921E8DEF
:1051B0007C0181E1E80EF11C01E01116D4F08FEFC3
:1051C0008E8F0F900FBE0FB6F8940F921D8D7E013B
:1051D00088E0E80EF11C01E01116B4F08FEF8D8F1E
:1051E0000F900FBEDF91CF911F910F91FF90EF9025
:1051F00008958989882319F3C7010E948E28811197
:105200000093DC081150D9CF8885882339F3C70172
:105210000E948E2881110093DC081150DDCF0F937E
:105220001F93CF93DF938C01FB0180819181D80183
:1052300013968F3F9807F1F4E801AF81B885129675
:105240008D919C91139793838283EC01FD83EC8372
:10525000B583A4831396FC93EE931297118700876E
:10526000F80180818F5F8083DF91CF911F910F9133
:105270000895D90112962D913C911397E901488127
:10528000598184179507A8F7DACFFC0173836283ED
:10529000918780874617570790F0421B530B8485F0
:1052A000958548175907C8F4BF016E5F7F4F8091FD
:1052B000E9089091EA080E940F2980E008954217BA
:1052C000530718F46217730740F4BF016E5F7F4FF6
:1052D0008091EB089091EC08EECF81E00895FF9269
:1052E0000F931F93CF93DF93EC01F62E0091460BA3
:1052F0001091470B8091B4059091B50502960E94DC
:105300006A28CF3FDC0789F4FF2079F06091B4056B
:105310007091B5056E5F7F4F8CE099E0DF91CF9182
:105320001F910F91FF900C944A28C00FD11FE0915C
:10533000B405F091B505D383C2836091B405709133
:10534000B505C017D10768F4809108099091090943
:105350006E5F7F4FDF91CF911F910F91FF900C9463
:105360000F2980910A0990910B096E5F7F4F0E946F
:105370000F298091010990910209C817D90720F4DB
:10538000D0930209C0930109DF91CF911F910F9132
:10539000FF900895CF93DF93EB016091B405709176
:1053A000B505645F7F4F0E940F2961E0CE01DF9158
:1053B000CF910C946F29FC010396928381832FEF88
:1053C0003FEF34832383968385839087878310827E
:1053D00008950F920FB6F8940F920BB60F920CB679
:1053E0000F921F9211242F923F924F925F926F92D1
:1053F0007F928F929F92AF92BF92CF92DF92EF9265
:10540000FF920F931F932F933F934F935F936F934D
:105410007F938F939F93AF93BF93CF93DF93EF933C
:10542000FF93A091B405B091B5050DB60D920EB6DF
:105430000D9280910509882321F081E08093DC089A
:105440005FC01092DC08A091B405B091B505E09161
:10545000B405F091B5052D913C918789908D821707
:105460009307A8F08091B4059091B5058091B4059B
:105470009091B505279A2F9A2FEF87EA91E6215050
:1054800080409040E1F700C000001F9AF5CF2091C6
:105490006D0B89E001C02150422F50E0849FF00144
:1054A000859FF00D1124E75BF44F9081992399F3C8
:1054B000A181B28112960D90BC91A02DB283A183DF
:1054C000289FC0011124845B944FA817B90729F4C1
:1054D00012968D919C919283818389E0849FF00143
:1054E000859FF00D1124E75BF44F0180F281E02DE0
:1054F000868197819093B5058093B40520936D0BB9
:10550000A091B405B091B505CD91CDBFDD91DEBFC1
:10551000FF91EF91DF91CF91BF91AF919F918F91CB
:105520007F916F915F914F913F912F911F910F91BB
:10553000FF90EF90DF90CF90BF90AF909F908F90B3
:105540007F906F905F904F903F902F901F900F90A3
:105550000CBE0F900BBE0F900FBE0F9008957F9260
:105560008F929F92AF92BF92CF92DF92EF92FF9273
:105570000F931F93CF93DF930FB6F8940F92809100
:10558000050981508093050980910509882389F0D8
:1055900080E00F900FBEDF91CF911F910F91FF9090
:1055A000EF90DF90CF90BF90AF909F908F907F90C3
:1055B000089580913B09882359F3D0E0C0E029E0A9
:1055C000F22EEE24E39429C0E0912309F0912409FE
:1055D000C681D781CE010C960E946A288E010E5F8B
:1055E0001F4FC8010E946A288E8990916D0B9817F1
:1055F00010F480936D0B8F9DC0011124B801875B5F
:10560000944F0E944A28E091B405F091B5059E8917
:105610008689981710F0E092DC0880911E098111AC
:10562000D3CFCD2B11F00E948607E090DA08F090DE
:10563000DB08E114F10409F4AFC089E0A82E772457
:105640007394CC24CA94DC2C80910509811192C0FA
:10565000C091460BD091470B2196D093470BC09336
:10566000460B2097B9F480910A0990910B0920917B
:1056700008093091090930930B0920930A09909386
:105680000909809308098091480B8F5F8093480B2C
:105690000E9486078091010990910209B12CC817D8
:1056A000D90708F05BC0E091B405F091B505E68933
:1056B000AE9EF0011124E75BF44F8081823010F040
:1056C000BB24B3948091DC08811103C0BB2009F492
:1056D0005AC07092DC0857C0E0910A09F0910B099A
:1056E0000580F681E02D06811781D80112968D91F3
:1056F0009C91C817D90728F4909302098093010957
:10570000D2CF4801B2E08B0E911CC4010E946A28DE
:10571000F80184899589892B21F0C8010C960E9493
:105720006A28D80156968C9190916D0B981710F4B9
:1057300080936D0B8A9DC0011124B401875B944F47
:105740000E944A28E091B405F091B505D80156961B
:105750009C918689981710F0BB24B394E0910A09B4
:10576000F0910B0980818111B7CFD0920209C092CC
:10577000010999CF8091DA089091DB080196909306
:10578000DB088093DA08B1E0EB1AF10809F05CCF8E
:105790001092DB081092DA088091DC08882309F463
:1057A000F7CE0E94E92981E0F4CEAF92BF92DF925A
:1057B000EF92FF920F931F93CF93DF9300D01F922E
:1057C0001F92CDB7DEB78C017B011D821C8280E069
:1057D000580128E0A20EB11C0FB6F8940F92F80100
:1057E000228D938D291708F077C0D28C448D4111FA
:1057F00059C080819181892B11F080E009C0E4803B
:10580000F580E114F10419F580E0F80115821482A5
:10581000D394F801D28E9189992321F0C801419641
:105820000E948E2881110E94E9290F900FBE81E00D
:105830000F900F900F900F900F90DF91CF911F91CD
:105840000F91FF90EF90DF90BF90AF900895F70118
:1058500082A1815082A3268991A12917A9F28111E1
:10586000D3CF5701F2E0AF0EB11CC5010E946A28E8
:10587000F70181A1868B24E030E0281B31093587B0
:10588000248790916D0B981710F480936D0BF9E0BD
:105890008F9FC0011124B501875B944F0E944A2855
:1058A00081E0B3CF50E0B701828193810E94ED3750
:1058B000F801848D22813381820F932F911D938370
:1058C0008283248135818217930708F496CF8081E3
:1058D00091819383828391CF2C813D81232B21F46D
:1058E0000F900FBE80E0A4CF811109C08091480BBA
:1058F00089838091460B9091470B9B838A830F90FD
:105900000FBE0E9439280FB6F8940F92F801858DCA
:105910008F3F09F4158EF801868D8F3F09F4168E9E
:105920000F900FBEBE016C5F7F4FCE0101960E94AB
:10593000FC27811120C00FB6F8940F92F801928DC8
:10594000838D0F900FBE981310C06C817D81C501AF
:105950000E94CA29C8010E94CD280E94AF2A811145
:1059600002C00E94E92981E037CFC8010E94CD28FA
:105970000E94AF2AF8CFC8010E94CD280E94AF2A0A
:10598000B1CFCF93DF9300D01F921F92CDB7DEB778
:105990009C0180910609909107090097B9F019823E
:1059A0007B836A833D832C8320913A09BE016F5F1C
:1059B0007F4F2111209105090E94D52B0F900F9048
:1059C0000F900F900F90DF91CF91089580E0F6CF68
:1059D000EF92FF920F931F93CF93DF93E091EB0829
:1059E000F091EC088081811113C08091E9089091B9
:1059F000EA089093EC088093EB08F093EA08E093B0
:105A0000E908DF91CF911F910F91FF90EF900895DA
:105A10000580F681E02D00811181C681D7817E014C
:105A200082E0E80EF11CC7010E946A28E889F98922
:105A3000CE0119958A8982FFD1CF8C859D85800FF3
:105A4000911F0817190760F49B838A83D987C88739
:105A5000B7018091EB089091EC080E940F29BECF0E
:105A6000B801CE010E94C12CB9CF7F928F929F9234
:105A7000AF92BF92CF92DF92EF92FF920F931F935C
:105A8000CF93DF9300D01F921F92CDB7DEB78C016A
:105A90008FEF9FEF9D838C83F12C90E0580121E1E3
:105AA000A20EB11C89E0782E24E0822E912C0FB634
:105AB000F8940F92D8015A968C915A97882309F43A
:105AC00040C081505A968C935A978D919C91892B06
:105AD000A1F48091B4059091B505892B39F0E0913E
