:100000000C94BC030C94ED030C94ED030C94ED03E1
:100010000C94ED030C94ED030C94ED030C94ED03A0
:100020000C94ED030C94ED030C94ED030C94ED0390
:100030000C9415340C94ED030C94ED030C94ED0327
:100040000C94ED030C94ED030C94ED030C94ED0370
:100050000C94ED030C94ED030C94ED030C94A8297F
:100060000C94ED030C9472290C9448290C94ED0324
:100070000C94ED030C94ED030C94ED030C94ED0340
:100080000C94ED030C94ED030C94ED030C94ED0330
:100090000C94ED030C94ED030C94ED030C94ED0320
:1000A0000C94ED030C94ED030C94ED030C94ED0310
:1000B0000C94ED030C94ED030C94ED030C94ED0300
:1000C0000C94ED030C94ED030C94ED030C94ED03F0
:1000D0000C94ED030C94ED030C94ED030C94ED03E0
:1000E0000C94ED030C94AE040C9479140C94F90563
:1000F0000C9437260C94DB050C947A140C94B314EE
:100100000C94FC050C9405160C9402060C94220623
:100110000C948C080C94C2040C94A3140C94100638
:100120000C941E060C94B3350C94F5050C940C0637
:100130000C9428060C94D0040C941E240C94F80201
:100140000C9418140C9418340C9430030C94D605A9
:100150000C94D0140C94FE240C940F290C94E926D2
:100160000C942A030C941B030C94ED050C949C082E
:100170000C949F040C9406060C948C030C9472044B
:100180000C942C060C9412120C94F1050C941A0683
:100190000C94DD010C9414060C9408050C94831443
:1001A0000C9455050C940F164163636570743A20E6
:1001B000746578742F68746D6C0063632D70726F52
:1001C0006A656374746573742E64646E732E6E65F1
:1001D00074002F64617461007C3C3E5E2B3D3F2FB8
:1001E0005B5D3B2C2A225C006382536300010800A4
:1001F0000604000100504F53542024462048545414
:10020000502F312E300D0A486F73743A2024460D5A
:100210000A244624534163636570743A202A2F2AC6
:100220000D0A436F6E74656E742D4C656E6774684D
:100230003A2024440D0A436F6E74656E742D547910
:1002400070653A206170706C69636174696F6E2FBC
:10025000782D7777772D666F726D2D75726C656E60
:10026000636F6465640D0A0D0A24530047455420EA
:100270002446245320485454502F312E300D0A4820
:100280006F73743A2024460D0A24460D0A0D0A00A5
:1002900045000082000040002000002100240027CB
:1002A000002A002D00300033000101000004010786
:1002B000010A0100002200250028002B002E003139
:1002C00000340002010000050108010B0100000AD2
:1002D0000B02090C0D0E08070304010000000000CA
:1002E000000000000000000000000000000000000E
:1002F00000000000000000000012111000000000CB
:1003000000000000000000000000000000000000ED
:10031000000000000020002300260029002C002FF0
:100320000032000001000003010601090105050576
:1003300005070508080808020202020A0A0808045C
:10034000040404010101010101010103030303038A
:10035000030303040707070C0C0C0C0C0C0C0C0219
:1003600002020206060606060606060B0B0B0B0B20
:100370000B0B0B0102102020080810204010204019
:100380008002010201080402010102040810204059
:100390008080402010080402018004020180402077
:1003A00010080402010804020101020408102040A0
:1003B00080010204081020408000CF93DF9300D01A
:1003C00000D000D01F92CDB7DEB7E0914507F09185
:1003D0004607F08010E000E0FF2029F00580F6815C
:1003E000E02D008111810E942F2A0E94252A6C0194
:1003F0008091380790913907C816D90608F07EC059
:100400000E94DE2ED0923907C09238070E94A52C98
:1004100000916007109161071A86198680E06801D3
:10042000B1E1CB0ED11C0FB6F8940F92F801F28C0B
:10043000FF2009F41AC1448D4423C1F050E08681A5
:100440009781840F951F9783868324813581821736
:10045000930720F08081918197838683D801169637
:100460006D917C91CE0101960E94253AFA94F80193
:10047000F28E8085882339F0C80108960E94842A6C
:1004800081110E94DF2B0F900FBED980D7FCC0CF07
:100490000C811D81D8011A968D919C91892B21F098
:1004A000C80102960E94602A0E94252A7C01809140
:1004B000380790913907E816F90610F40E94DE2EED
:1004C000F0923907E0923807B9E0BD1508F4A0CFE3
:1004D000ED2DDD0CFF0BD80152969C918827EC582E
:1004E000FD4F8F4F0C942F39F802F802F8023003B9
:1004F0001B032A03F802F80230031B03D0923907CA
:10050000C0923807FF2099F1C016D106C0F10E94B1
:10051000A52CE0914507F09146070580F681E02D76
:10052000E680F780C70102960E94602AD7015296A2
:100530008C91529782FF17C01C966D917C91600F31
:10054000711F9801A601C7010E943B2B882321F04F
:10055000B801C7010E94B72ED7015096ED91FC91CA
:10056000C701199555CF8E7FF701828BF5CFE091AA
:100570004307F09144078081BB24B3948111B12CCF
:10058000E0906007F09061070FB6F8940F92F701C2
:10059000858D8F3F09F4158ED7015E968C915E97FD
:1005A0008F3F11F45E961C920F900FBEF701828D63
:1005B000811114C06091FA037091FB03645F7F4F57
:1005C000C70141960E94402AC8018C199D09BB2091
:1005D00011F08FEF9FEF6B2D0E94652BC7010E94DA
:1005E000C32A0E94A52C811113CF0E94DF2B10CFAC
:1005F0009160F801928BCA80DB80648575856C0DF3
:100600007D1D9601A701C8010E943B2B882309F498
:10061000FFCED8015096ED91FC91C8011995F801D3
:10062000828982FFF5CE648575856C0D7D1DC801BC
:100630000E94B72EEDCE9160F801928B6A817B818A
:10064000758764876E0D7F1D9701A701C8010E9401
:100650003B2BDECE91FD04C0C8010E94C230D8CE33
:100660009E7FD80152969C93D3CE29853A85232B21
:1006700019F40F900FBEA9CE811109C08091A20973
:100680008E838091A0099091A10998878F830F9004
:100690000FBE0E942F2A0FB6F8940F92D8015D96D4
:1006A0008C915D978F3F11F45D961C92F801868DB9
:1006B0008F3F09F4168E0F900FBEBE01675F7F4F0C
:1006C000CE0106960E94F22981111BC0C8010E942A
:1006D000352A882381F069857A85C6010E94C02B5E
:1006E000C8010E94C32A0E94A52C811102C00E9449
:1006F000DF2B81E098CEC8010E94C32A0E94A52C5E
:10070000F8CFC8010E94C32A0E94A52CC8010E94EC
:10071000352A882371F359CE80913407811109C09D
:100720008091A309823010F00E94DF2B0E94750592
:10073000F3CF0FB6F8940F92E0917407F09175071C
:10074000C681D781CE0102960E94602A80919507CA
:1007500081508093950780913407815080933407AE
:100760000F900FBE8F89988D0E94C230CE010E94DB
:10077000C230D2CF1834B33511241FBECFEFD1E22F
:10078000DEBFCDBF00E00CBF13E0A0E0B2E0E6EDBD
:10079000F4E700E00BBF02C007900D92AA3FB1073B
:1007A000D9F72AE0AAEFB3E001C01D92A73EB20735
:1007B000E1F713E0CBEBD3E000E006C0219701099D
:1007C000802FFE010E942F39CA3BD10780E0080725
:1007D000A9F70E949F340C94593A0C940000CF93CF
:1007E000DF9320919C092223C1F0FC012081222368
:1007F000A1F0CCE9D9E0A8E9B9E09C012C5F3F4F1A
:10080000899141919D918427892339F4E217F30757
:10081000B9F781E0DF91CF91089580E0FBCF8F920F
:100820009F92AF92BF92CF92DF92EF92FF92CF93BF
:10083000DF93A091D20A30E081113A2F8091D30A40
:1008400090E0880F991FAC014D5E5C4FC090D80AB4
:10085000D090D90AE090DA0AF090DB0A60E070E00C
:10086000CB01FA01C591D49128812A2323130FC00B
:100870004B015C012FEF821A920AA20AB20A6C1590
:100880007D058E059F0570F060E070E0CB01DF9183
:10089000CF91FF90EF90DF90CF90BF90AF909F905F
:1008A0008F900895C501B401DCCFCF93DF93EC01A5
:1008B000FB018A30910548F06AE070E00E94F93847
:1008C000CB01BF010E945504FC01CE016AE070E03B
:1008D0000E94F938805D80831182CF010196DF91FB
:1008E000CF910895AF92BF92CF92DF92EF92FF9295
:1008F0000F931F93CF93DF936C017B018B01040F48
:10090000151FEB015E01AE18BF08C017D10759F0E3
:100910006991D601ED91FC910190F081E02DC60125
:100920001995892B79F7C501DF91CF911F910F910F
:10093000FF90EF90DF90CF90BF90AF900895FC01B3
:10094000538D448D252F30E0842F90E0821B930B34
:10095000541710F0CF96089501970895FC01918DDA
:10096000828D981761F0A28DAE0FBF2FB11D5D96DD
:100970008C91928D9F5F9F73928F90E008958FEF7F
:100980009FEF0895FC01918D828D981731F0828D33
:10099000E80FF11D858D90E008958FEF9FEF08958A
:1009A000FC01918D228D892F90E0805C9F4F821BEE
:1009B00091098F739927089588EC99E00E94D004DB
:1009C00021E0892B09F420E0822F0895FC01A48DF9
:1009D000A80FB92FB11DA35ABF4F2C91848D90E061
:1009E00001968F739927848FA689B7892C93A08944
:1009F000B1898C91837080648C93938D848D9813CE
:100A000006C00288F389E02D80818F7D8083089560
:100A1000EF92FF920F931F93CF93DF93EC0181E04E
:100A2000888F9B8D8C8D98131AC0E889F9898081F5
:100A300085FF15C09FB7F894EE89FF896083E88928
:100A4000F98980818370806480839FBF81E090E01A
:100A5000DF91CF911F910F91FF90EF900895F62EA7
:100A60000B8D10E00F5F1F4F0F731127E02E8C8D41
:100A70008E110CC00FB607FCFACFE889F989808186
:100A800085FFF5CFCE010E94E604F1CFEB8DEC0F90
:100A9000FD2FF11DE35AFF4FF0829FB7F8940B8FA3
:100AA000EA89FB8980818062CFCFCF93DF93EC010D
:100AB000888D8823B9F0AA89BB89E889F9898C9146
:100AC00085FD03C0808186FD0DC00FB607FCF7CF02
:100AD0008C9185FFF2CF808185FFEDCFCE010E9402
:100AE000E604E9CFDF91CF91089580E090E0892B73
:100AF00029F00E94DC0481110E94000080E090E057
:100B0000892B49F080E090E0892B29F00E940000B9
:100B100081110E94000080E090E0892B49F080E084
:100B200090E0892B29F00E94000081110E940000B2
:100B300080E090E0892B49F080E090E0892B29F05B
:100B40000E94000081110C9400000895282F30E0CD
:100B5000F901E353FD4F9491F901ED58FC4F449195
:100B6000235D3C4FF9012491222309F435C09923D8
:100B700011F191509231F8F4E92FF0E08827EC530D
:100B8000FA4F8F4F0C942F39F505F905D605ED0571
:100B9000F105DB05FC05020606060C061006140628
:100BA0001A061E06DB05220628062C068091800008
:100BB0008F7780938000E22FF0E0EE0FFF1FED545F
:100BC000FD4FA591B4918FB7F894EC91611148C095
:100BD00040954E234C938FBF0895809180008F7D68
:100BE000E8CF80918000877FE4CF84B58F7784BD84
:100BF000E2CF84B58F7DFBCF8091B0008F7780935B
:100C0000B000D9CF8091B0008F7DF9CF8091900056
:100C10008F7780939000CFCF809190008F7DF9CF18
:100C200080919000877FF5CF8091A0008F7780938F
:100C3000A000C1CF8091A0008F7DF9CF8091A0004E
:100C4000877FF5CF809120018F7780932001B3CFEC
:100C5000809120018F7DF9CF80912001877FF5CF92
:100C60004E2BB8CFCF93DF9390E0FC01ED58FC4FB3
:100C70002491835D9C4FFC0184918823C9F090E00E
:100C8000880F991FFC01E756FD4FA591B491FC0117
:100C9000ED54FD4FC591D49161110DC09FB7F894EB
:100CA0008C91209582238C938881282328839FBF51
:100CB000DF91CF910895623051F49FB7F8943C9141
:100CC000822F809583238C93E8812E2BEFCF8FB7D3
:100CD000F894EC912E2B2C938FBFEACF3FB7F8946A
:100CE00080913F0790914007A0914107B091420742
:100CF00026B5A89B05C02F3F19F00196A11DB11D77
:100D00003FBFBA2FA92F982F8827BC01CD01620FB2
:100D1000711D811D911D42E0660F771F881F991F6D
:100D20004A95D1F708958F929F92AF92BF92CF923A
:100D3000DF92EF92FF924B015C010E946E066B0105
:100D40007C010E946E066C197D098E099F09683E20
:100D5000734081059105A8F321E0821A9108A1084A
:100D6000B10888EEC80E83E0D81EE11CF11C811486
:100D70009104A104B10429F7FF90EF90DF90CF9088
:100D8000BF90AF909F908F9008952FB7F894609187
:100D90003B0770913C0780913D0790913E072FBF24
:100DA0000895CF92DF92EF92FF920F931F93CF930C
:100DB000DF93CDB7DEB7C054D1400FB6F894DEBF95
:100DC0000FBECDBF0E94C5060091D40A1091D50A6E
:100DD0002091D60A3091D70A6B017C01C01AD10A42
:100DE000E20AF30A97018601003D1740210531050B
:100DF00090F48091DC0AC05CDE4F0FB6F894DEBF41
:100E00000FBECDBFDF91CF911F910F91FF90EF905B
:100E1000DF90CF9008956093D40A7093D50A8093A1
:100E2000D60A9093D70A1092CF0A1092CE0A109247
:100E3000CD0A1092CC0A1092CB0A61E08091D00AC0
:100E40000E94A6056AEF70E080E090E00E949306A1
:100E500061E08091D00A0E94320660E08091D00A61
:100E60000E94A60564E170E080E090E00E94930695
:100E7000F89461E08091D00A0E94A6058BE990E089
:100E80000197F1F762E08091D00A0E94320683E276
:100E900090E00197F1F780E00E940F04672B682B28
:100EA000692B29F41092DC0A789480E0A4CF81E0C9
:100EB0000E940F04672B682B692BA1F38E010F5F33
:100EC0001F4F6E018FEBC81A8EEFD80A780180E0B1
:100ED0000E940F04F701608371838283938381E012
:100EE0000E940F04F7016483758386839783F8E07B
:100EF000EF0EF11CEC14FD0451F7789430E020E083
:100F0000F801C080D180E280F38044815581668100
:100F10007781C114D104E104F10429F04115510590
:100F20006105710519F41092DC0ABFCFF90183E065
:100F3000F595E7958A95E1F7E553F54F8081880FA0
:100F4000C416D506E606F70610F180832F5F3F4FE3
:100F5000085F1F4F2832310599F64091CF0A209142
:100F6000CB0A8091CC0A280F3327331F8091CD0AFA
:100F7000280F311D8091CE0A820F932F911D992742
:100F80004817190681F681E08093DC0A34CF81602E
:100F9000DCCFE0916407F09165078081811107C083
:100FA0008FEF9FEF90935C0780935B070895E0912C
:100FB0006407F09165070580F681E02D0680F781D2
:100FC000E02D82819381EECF809170049091710425
:100FD000982789279827449720918E0430E044E091
:100FE000359527954A95E1F7220F331F220F331FBE
:100FF000821B930B97FF02C090E080E00895209140
:1010000084043091820430938404209382042091DC
:101010008504309183043093850420938304E0E6B3
:10102000F4E021A5820F911D25A585A7662381F0F7
:1010300021A7892F9927319724E0EC35F20789F70A
:10104000109292041092930480E580938E04089588
:1010500011A6EFCF0F931F93CF93DF9370E0605AE9
:101060007B4F8A01075F1F4F213029F0223031F476
:101070008A010250110930E020E003C000E010E0D6
:101080009801EB01FA01E230F10558F0A991B9910C
:10109000BA27AB27BA270A0F1B1F211D311D329714
:1010A000F2CFFA01EE7F6E0F7F1F4E175F0769F0D8
:1010B000FB01408150E070E060E0762F652F542FF7
:1010C0004427040F151F261F371FA90166277727FE
:1010D000411551056105710519F022273327F1CF1C
:1010E00000951095E82FF0E0E05AFB4F1083018344
:1010F000DF91CF911F910F910895E0E6F4E0108EFB
:10110000118E80E4848B158A868B20E044E150E0C8
:101110006EE088E10C942A08DC011696ED91FC91B2
:1011200017979F012F5F3F4F17963C932E9316976B
:10113000608381E090E0089590E080E008958EBDA6
:101140000DB407FEFDCF089561E0809130040E9448
:10115000A60578940895F89460E0809130040C948A
:10116000A6050F931F93CF93DF93EC018B010E9491
:10117000AB082097B9F08AE30E949F081EBCF801D3
:10118000CE01019739F00DB407FEFDCF2EB51EBC80
:101190002193F7CF2197C00FD11F0DB407FEFDCFCC
:1011A0008EB58883DF91CF911F910F910C94A40885
:1011B0001F93CF93DF93182FC62FD42F0E94AB0815
:1011C0008C2F8F71812B0E949F088D2F0E949F086A
:1011D000DF91CF911F910C94A408CF93C82FC076B4
:1011E000809131048C1799F043E06FE180EA0E940E
:1011F000D808C09331044C2F50E085E055954795B1
:101200008A95E1F76FE180E8CF910C94D808CF91EF
:101210000895CF93DF93C82FD62F0E94ED084D2F4E
:101220006C2F80E4DF91CF910C94D808CF93DF939B
:10123000C82FD72F0E9409096D2F81E08C0FDF91F5
:10124000CF910C940909CF93C82F0E94ED080E94FA
:10125000AB088C2F8F710E949F0880E00E949F082E
:10126000C7FF03C080E00E949F08CEB50E94A4087B
:101270008C2FCF9108950F931F93CF93DF9300D0BE
:1012800000D0CDB7DEB780913604882379F0609125
:101290003404709135046115710509F053C06FEF86
:1012A0007BE08CE00E9416091092360489E30E94CC
:1012B000230910E000E08823C9F1609134047091A3
:1012C000350480E00E941609BE016F5F7F4F86E003
:1012D00090E00E94B10889819A81909335048093AF
:1012E00034048D819E818C010078112787FF12C004
:1012F0008B819C810497009132041091330401503A
:1013000011098017910708F48C0160E674E0C801A8
:101310000E94B108F801E05AFB4F108281E08093EF
:10132000360440E46EE180E80E94D808C8012696A1
:101330000FB6F894DEBF0FBECDBFDF91CF911F91E6
:101340000F91089561507109ACCFCF93DF93EC01F9
:1013500040E86FE180E80E94D80840E86FE180EA49
:101360000E94D8084AE06CE180EA0E94D80860E058
:101370007CE082E00E941609BE01745F86E00E9454
:10138000160940E060E08AE70E94D8080E94AB0896
:101390002097B1F08AE70E949F08809160048EBD7B
:1013A000E1E6F4E0C05ADB4FEC17FD0731F0819124
:1013B0000DB407FEFDCF8EBDF7CF0DB407FEFDCFF8
:1013C0000E94A40848E06FE180E80E94D808D0E0BD
:1013D000C0E08CE10E9423098A7029F42196C83E5E
:1013E00083E0D807B1F78CE10E94230981FD03C097
:1013F000C83ED34039F448E06FE180EADF91CF91F5
:101400000C94D808DF91CF9108950F931F93CF9339
:10141000DF93EC0100E614E04C96F801908B818B91
:101420000E947D08CE010896F80196A387A3AE011D
:10143000405F5F4F21E06AE188E20E942A08CE0106
:101440008A96DF91CF911F910F910C94A5090F936C
:101450001F93CF93DF938C018896C0E6D4E0988BDE
:10146000898B0E947D081AAA1BAAA801445E5F4FBF
:1014700022E06AE182E30E942A08C801C696DF9151
:10148000CF911F910F910C94A50961E184ED0E9409
:10149000090961E082ED0E9409098AEE0E94230990
:1014A00080FDFBCF60E082ED0E94090989ED0E947A
:1014B000230982FB882780F90895CF93DF93EB01FE
:1014C000682F84ED0E940909BE0186ED0E9416096D
:1014D0008AEE0E94230980FDFBCFDF91CF91089512
:1014E000CF92DF92EF92FF920F931F938634910574
:1014F00068F120918304233449F5C0908E04D09084
:101500008F04E0909004F090910400911F041091DA
:1015100020042091210430912204C016D106E20655
:10152000F306A1F4EAE7F5E0805A9B4F9F012E5F96
:101530003F4F41815081553319F45281651771F045
:10154000F901E40FF11DE817F90780F380E01F911E
:101550000F91FF90EF90DF90CF90089581E0F7CF4B
:10156000E0911804F09119049F012F5F3F4F3093D1
:1015700019042093180480830895FF920F931F93FA
:10158000CF93DF93162FF42E052F0E94B00A812FE0
:101590000E94B00ACF2DD02F115020F089910E94C7
:1015A000B00AFACFDF91CF911F910F91FF9008956C
:1015B0008FB7F894809112048FBF089561E0FC0109
:1015C00084810E94A605809111048111109211045A
:1015D00008958EBD00000DB407FEFDCF8EB50895B1
:1015E0008FEF0C94E90A0F931F93CF93DF93EC01D5
:1015F0000E94C5068B010E94F00A8F3F69F00E948D
:10160000C506601B710B6C177D07A8F380E0DF91A6
:10161000CF911F910F91089581E0F9CF8CBD9DBDB1
:101620000895CF93DF93EC0180911104811109C0DB
:1016300081E0809311048091650A9091660A0E946E
:101640000E0B60E08C81DF91CF910C94A6058F92F8
:101650009F92AF92BF92FF920F931F93CF93DF930E
:10166000EC01F62E49015A018E81882389F08F8181
:1016700098859C012F5F3F4F38872F83823092409F
:1016800018F40E94F00AF3CFCE010E94DE0A1E82F7
:10169000CE010E94110B8CE291E00E94F30A8F2D83
:1016A00080640E94E90A08E110E0D501C401002E1F
:1016B00004C0B695A795979587950A94D2F70E948E
:1016C000E90A08501109083F8FEF180771F785E9FB
:1016D000FF2021F028E087E8F2128FEF0E94E90A4C
:1016E00010E00E94F00A8A8787FF04C01F3F11F0B4
:1016F0001F5FF7CFDF91CF911F910F91FF90BF90A8
:10170000AF909F908F900895AF92BF92CF92DF924B
:10171000EF92FF920F931F93CF93DF93EC01690138
:10172000C801820F931F8130924050F58E8188232B
:1017300079F088819981AA81BB8184179507A607D2
:10174000B70731F48F819885C816D90608F042C0D2
:10175000488359836A837B838B85833039F089E0A2
:10176000440F551F661F771F8A95D1F79A01AB0169
:1017700061E1CE010E94270B882389F083E08D83ED
:10178000CE010E94DE0A80E0DF91CF911F910F9180
:10179000FF90EF90DF90CF90BF90AF9008950E94A0
:1017A000C5065B010E94F00A8A878F3F69F40E9498
:1017B000C5066A197B096D327140A0F38FE08D83F5
:1017C000CE010E94DE0ADCCF8E3F89F418861F828C
:1017D00081E08E838F8198858C159D0550F40E9441
:1017E000F00A8F819885019698878F83F3CF8DE0DB
:1017F000E6CF6701E00EF11E0E94F00AF601819328
:101800006F01EE15FF05C1F78F819885080F191F2D
:1018100018870F838985882319F001151240A0F0DD
:101820008E81882389F08F8198859C012F5F3F4F9F
:1018300038872F838230924018F40E94F00AF3CF49
:10184000CE010E94DE0A1E8281E09ECFCF92DF92FF
:10185000EF92FF920F93CF93DF93EC01690182E146
:10186000411551056105710599F08B85833039F07B
:1018700089E0440F551F661F771F8A95D1F79A019B
:10188000AB0168E1CE010E94270B882319F084E0A8
:101890008D832DC08EEF0E94E90A76018EEFD81A53
:1018A000F70181917F010E94E90AEC14FD04C1F760
:1018B0008FEF0E94E90A8FEF0E94E90A0E94F00A66
:1018C0008A878F71853071F4011116C0CE010E9494
:1018D000DE0A81E0DF91CF910F91FF90EF90DF90D2
:1018E000CF90089581E18D83CE010E94DE0ACE0162
:1018F0000E94DE0A80E0EECF88E592E00E94F30AC3
:10190000811102C085E1C4CF20E030E0A9016DE083
:10191000CE010E94270B882311F084E1B9CF0E94E9
:10192000F00A8111FACFD2CF0F9340911404509155
:101930001504609116047091170441155105610555
:10194000710599F0082F26E937E08091960990916A
:1019500097090E94260C882349F0109214041092D3
:101960001504109216041092170481E00F91089547
:101970000F93CF93C82F80911304811105C0C1E04C
:101980008C2FCF910F91089540910602509107023C
:1019900060910802709109020C2F26E937E08091CE
:1019A0009609909197090E94260C811102C0C0E00F
:1019B000E7CFCC2321F381E00E94940C8823B9F374
:1019C00010921304DDCF8F929F92AF92BF92EF924D
:1019D000FF920F931F93CF934B015C01C42F809113
:1019E000060290910702A0910802B09109028815A1
:1019F0009905AA05BB0551F181E00E94B80C81113F
:101A00000BC080E0CF911F910F91FF90EF90BF909E
:101A1000AF909F908F90089586E9E82E87E0F82E8A
:101A200000E012E030E020E0B501A40180919609C9
:101A3000909197090E94840B882319F380920602E3
:101A400090920702A0920802B092090240911304FA
:101A50004C2B4093130481E0D5CF8F929F92AF928D
:101A6000BF92CF92DF92EF92FF92CF9327E63AE0B8
:101A70003093970920939609882309F46DC040E0BC
:101A800060E070E0CB010E94E30C81110BC080E0AC
:101A9000CF91FF90EF90DF90CF90BF90AF909F904D
:101AA0008F900895809154098F7789F7809160090C
:101AB00090916109A0916209B09163098436910502
:101AC000A105B10520F3C0905C09D0905D09E090BC
:101AD0005E09F0905F09C114D104E104F104B9F288
:101AE00040E0C701B6010E94E30C882381F2809197
:101AF000A1079091A2078115924049F6A091A607EF
:101B0000AA2329F26091A4077091A50761157105B8
:101B100009F4BDCF2091A307222309F4B8CFA093E5
:101B2000850A2093770A90E080E030E0E1E0F0E081
:101B3000C82FAF01082E02C0440F551F0A94E2F7C8
:101B40002417350769F041E0480F01968930910567
:101B500079F74093800A9BCFC12CD12C7601C0CF5E
:101B60008093800A2091AC073091AD0750E040E0AF
:101B70002115310541F42091BA073091BB074091FE
:101B8000BC075091BD072093780A3093790A40939F
:101B90007A0A50937B0A46015701860E971EA11CB4
:101BA000B11C8092860A9092870AA092880AB0920D
:101BB000890AE091A707F091A807F0938C0AE093B7
:101BC0008B0AB0E00E944338DC01CB01880D991DDF
:101BD000AA1DBB1D80938D0A90938E0AA0938F0A35
:101BE000B093900A25E0EE0FFF1F2A95E1F7E15030
:101BF000FE4FEF2FFF27E6958E0F9F1FA11DB11DF2
:101C00008093810A9093820AA093830AB093840AF6
:101C10008090A9079090AA07B12CA12C811491045F
:101C200041F48090B6079090B707A090B807B090A5
:101C3000B907C81AD90AEA0AFB0AC80CD91CEA1C57
:101C4000FB1C04C0F694E794D794C794CA95D2F7C6
:101C5000C0927C0AD0927D0AE0927E0AF0927F0ABE
:101C600085EFC8168FE0D806E104F10428F48CE073
:101C700080938A0A81E00CCF80E125EFC2162FEF16
:101C8000D206E104F104A0F38091C2079091C3074A
:101C9000A091C407B091C50780938D0A90938E0AD6
:101CA000A0938F0AB093900A80E2E2CF4F925F92A6
:101CB0006F927F928F929F92AF92BF92CF92DF925C
:101CC000EF92FF920F931F93CF93DF93EC0142307B
:101CD00051056105710590F480E0DF91CF911F916E
:101CE0000F91FF90EF90DF90CF90BF90AF909F90BB
:101CF0008F907F906F905F904F90089589859A851F
:101D0000AB85BC850196A11DB11D84179507A6075B
:101D1000B70710F3CB88DC88ED88FE888F89803187
:101D200009F042C0BB27A72F962F852F48015901E4
:101D30002A013B01C80ED91EEA1EFB1E8091060235
:101D400090910702A0910802B0910902C816D90625
:101D5000EA06FB0699F58F898031C1F5B301A2012E
:101D6000552766277727440F551F4A56584FFA01C3
:101D700091828082809113048160809313048A8908
:101D8000823080F08D819E81AF81B8858C0D9D1D44
:101D9000AE1DBF1D8093140490931504A0931604E8
:101DA000B093170481E099CFDB01CA01E7E0B69553
:101DB000A79597958795EA95D1F7B8CF40E0C701E9
:101DC000B6010E94E30C8111C6CF86CFB301A201F8
:101DD0004F77552766277727440F551F440F551F08
:101DE0004A56584FFA0180829182A282B382C2CFB2
:101DF0008F929F92AF92BF92CF92DF92EF92FF921B
:101E00000F931F93CF93DF93FC0181859285A38568
:101E1000B4850196A11DB11D84179507A607B707C4
:101E200070F480E0DF91CF911F910F91FF90EF90C0
:101E3000DF90CF90BF90AF909F908F900895838850
:101E40009488A588B6888789803189F5BB27A72F14
:101E5000962F852FE9016A017B018F01BC01CD011D
:101E6000680D791D8A1D9B1D8090060290900702C7
:101E7000A0900802B090090286169706A806B90637
:101E800001F5F8018789803111F5DD24EE24FF2466
:101E9000F601EE0FFF1FEA56F84F80819181B0E006
:101EA000A0E088839983AA83BB8381E0BBCFDB0159
:101EB000CA01C7E0B695A79597958795CA95D1F7BA
:101EC000C9CF40E00E94E30C8111DBCFAACFE89498
:101ED000C7F8DD24EE24FF24F601EE0FFF1FEE0FFE
:101EE000FF1FEA56F84F80819181A281B381BF70B4
:101EF000D8CF4F925F926F927F92AF92BF92CF9264
:101F0000DF92EF92FF920F931F93CF93DF9300D056
:101F10001F92CDB7DEB78C0149835A836B837C83D4
:101F20005901C12CD12C7601412C82E0582E612C14
:101F3000712C49815A816B817C819E012F5F3F4FBB
:101F4000C8010E94F80E882339F1F8018585A301A4
:101F5000920104C0220F331F441F551F8A95D2F7E8
:101F6000DA01C901C80ED91EEA1EFB1E49815A8139
:101F70006B817C818789803111F188EF9FEFAFEF12
:101F8000BFE0481759076A077B0798F2F501C0823E
:101F9000D182E282F38281E00F900F900F900F9038
:101FA000DF91CF911F910F91FF90EF90DF90CF9035
:101FB000BF90AF907F906F905F904F90089588EFA3
:101FC0009FEFA0E0B0E0DDCFCF93DF93FC01258150
:101FD000222321F080E0DF91CF910895EC018091E0
:101FE0008A0A803159F582E08583178A108E118E16
:101FF000128E80918B0A90918C0AB0E0A0E025E0CF
:10200000880F991FAA1FBB1F2A95D1F7838B948B2A
:10201000A58BB68B83E79AE09C8F8B8F81E08C83B6
:102020001E821F82188619861A861B861C861D86AC
:102030001E861F86188A198A1A8ACDCF803251F6D9
:1020400083E0858340918D0A50918E0A60918F0ABA
:102050007091900A478B508F618F728F9F012D5E18
:102060003F4F83E79AE00E94790F8111D3CFB2CF1F
:102070008F929F92AF92BF92CF92DF92EF92FF9298
:102080000F931F93CF93DF93EC018D8181110EC0CD
:1020900080E0DF91CF911F910F91FF90EF90DF9043
:1020A000CF90BF90AF909F908F9008950B891C891F
:1020B0002D893E89041715072607370748F34A017B
:1020C0005B01823031F48A869B86AC86BD8681E0D6
:1020D000E0CF81149104A104B10449F41E821F824F
:1020E000188619861A861B861C861D86F0CF0A85DF
:1020F0001B852C853D85EB8DFC8D858590E00996B3
:10210000B901A8014150510961097109082E04C0A3
:1021100076956795579547950A94D2F775016401AE
:10212000E1E0CE1AD108E108F10804C0F694E79482
:10213000D794C7948A95D2F7C416D506E606F70653
:1021400020F0012B022B032B11F58F89988DA98D7F
:10215000BA8D8E839F83A887B9878E010A5F1F4F30
:10216000C114D104E104F10409F4ADCF4E815F81C3
:102170006885798598018B8D9C8D0E94F80E91E081
:10218000C91AD108E108F1088111EACF81CFC41A38
:10219000D50AE60AF70AE1CF3F924F925F926F921B
:1021A0007F928F929F92AF92BF92CF92DF92EF92E7
:1021B000FF920F931F93CF93DF93CDB7DEB72C978A
:1021C0000FB6F894DEBF0FBECDBF5C01DC015B969D
:1021D0008D909C905C9716964D905D906D907C9044
:1021E0001997411451046104710409F468C0BFEFE8
:1021F0004B1A5B0A6B0A7B0A312CF40181859285AC
:10220000A385B4859C01AD012F5F3F4F4F4F5F4FBA
:1022100029873A874B875C87730162011D821E8282
:102220001F821886F40181859285A385B4852D814E
:102230003E814F815885281739074A075B0708F008
:1022400056C089859A85AB85BC858C159D05AE05E4
:10225000BF0550F482E0C82ED12CE12CF12C92E085
:10226000492E512C612C712C9E012F5F3F4FB701DD
:10227000A601C4010E94F80E8823C9F189819A81C0
:10228000AB81BC81892B8A2B8B2B09F1260137016D
:102290009FEF491A590A690A790A2D813E814F81B7
:1022A00058852F5F3F4F4F4F5F4F2D833E834F83A6
:1022B00058873FEFC31AD30AE30AF30AB3CFF401F6
:1022C00040805180628073803324339496CFC4144D
:1022D000D504E604F70409F70FEF1FEF2FEF3FE0F7
:1022E000B701A601C4010E94560E811119C080E0F9
:1022F0002C960FB6F894DEBF0FBECDBFDF91CF9105
:102300001F910F91FF90EF90DF90CF90BF90AF9013
:102310009F908F907F906F905F904F903F90089527
:10232000D50116964D915D916D917C91199741154E
:1023300051056105710539F097018601C4010E94BC
:10234000560E8823A1F2D5011696CD92DD92ED921C
:10235000FC921997332051F0D701C6010196A11DB7
:10236000B11DF40180839183A283B383F501878932
:10237000908DA18DB28D892B8A2B8B2B39F4848182
:10238000C78AD08EE18EF28E80688483F5018481C5
:102390008062848381E0ACCF1F93CF93DF93FC01F5
:1023A00025812223D1F1162FEC01848187FF2AC0D9
:1023B000668577858089918941E00E94E30C8823B6
:1023C00061F1EA8980E2E89FF0011124EA56F84FB2
:1023D000309719F18D81823040F48B899C89AD89C9
:1023E000BE89848F958FA68FB78F8F89988D938F95
:1023F000828F8F89988DA98DBA8DB58BA48B8C8196
:102400008F778C83111103C08C818F7E8C83812FF9
:10241000DF91CF911F910C94B80C80E0DF91CF91A8
:102420001F910895FF920F931F93CF93DF93EC01B9
:102430008D81813041F090E080E0DF91CF911F915C
:102440000F91FF9008958C8181FFF5CF82FD1BC015
:102450000091960910919709C8010E94110B0E94E2
:10246000F00AF82EC8010E94DE0A8FEFF812E3CFBF
:102470008C8185FF1BC060E0CE010E94CC118C8155
:102480008F7D8C83D8CF4B895C896D897E898A85C5
:102490009B85AC85BD8584179507A607B707C1F254
:1024A000CE010E9438108111D3CFC5CF40911404C2
:1024B000509115046091160470911704452B462B1A
:1024C000472B21F080E00E94940CB5CF80618C8373
:1024D0002A853B85317080E092E0821B930BADCF63
:1024E000CF93DF93EC0161E00E94CC11882311F0BF
:1024F0001D8281E0DF91CF9108952F923F924F92FC
:102500005F926F927F928F929F92AF92BF92CF9283
:10251000DF92EF92FF920F931F93CF93DF9300D040
:102520001F921F92CDB7DEB77C015B01342E5D8315
:10253000DC0115968C911597813009F0CEC0149668
:102540002C9021FECAC022FCB4C0C32CDD80229492
:102550007FE027222094B22DB1702B2ED7011A963E
:102560004D915D916D917C911D97C114D10409F439
:1025700028C15B968D919C915C97FC0174807A9444
:102580008A019B0169E036952795179507956A950D
:10259000D1F770228A011170711020C00115110548
:1025A000E9F416964D915D916D917C9119974115C5
:1025B00051056105710509F099C057968D919D915E
:1025C0000D90BC91A02D0097A105B10509F0B0C0F8
:1025D000C7010E94CC10882309F47FC080E092E0FC
:1025E000801B910B46018C159D0508F44C01D70109
:1025F0005B964D915C915C9716968D919D910D9097
:10260000BC91A02D0297A109B109FA01258504C04A
:10261000880F991FAA1FBB1F2A95D2F74685578599
:1026200060897189840F951FA61FB71F9C01AD019A
:10263000270D311D411D511D29013A01811432E040
:10264000930609F07BC08091060290910702A09149
:102650000802B091090284159505A605B70559F43D
:102660008FEF9FEFDC018093060290930702A09307
:102670000802B0930902022D9501B301A2018091D5
:102680009609909197090E94260C882331F19EEFBC
:10269000B91AC818D908F70182859385A485B5852C
:1026A000880D991DA11DB11D82879387A487B587C9
:1026B00055CFF70143895489658976898285938549
:1026C000A485B585481759076A077B0709F43DCFEC
:1026D000C7010E943810811138CF81E090E0D70106
:1026E00013969C938E93129780E007C09E012F5FF4
:1026F0003F4F0E94F80E811102C090E079C089819D
:102700009A81AB81BC81F701238D348DF901278932
:1027100048EF5FEF60E070E0203121F048EF5FEFBD
:102720006FEF7FE084179507A607B70708F050CF33
:10273000F70186839783A087B18750CF01151105D4
:1027400099F5D7011A964D915D916D917C911D97E8
:1027500053968D919D910D90BC91A02D48175907CE
:102760006A077B0708F181E00E94B80C882309F40E
:10277000B4CF409206025092070260920802709213
:10278000090280911304816080931304C8018A5662
:10279000984FD5019C01280D391DFC012E173F07CC
:1027A00059F04D914193FACF41E0C301B2010E942B
:1027B000E30C8111EBCF91CF281B390BA20EB31E76
:1027C00068CFF70183899489A589B689841795070D
:1027D000A607B70738F48481438B548B658B768BBF
:1027E00080688483F701848183FD1AC0832D9D81D5
:1027F0000F900F900F900F900F90DF91CF911F913E
:102800000F91FF90EF90DF90CF90BF90AF909F908F
:102810008F907F906F905F904F903F902F90089592
:1028200061E0C7010E94CC11882309F456CFDECFA6
:10283000CF93DF931F92CDB7DEB7698341E050E0BD
:10284000BE016F5F7F4F0E947D120F90DF91CF918D
:102850000895FC01DB0112968D919C91139793834F
:10286000828380E692E09183808314968C91149702
:10287000848315968C911597858316964D915D915D
:102880006D917C91199746835783608771871A965B
:102890004D915D916D917C911D974287538764871F
:1028A00075871E964D915D916D917C9151974687EC
:1028B0005787608B718B52968C915297828B53966F
:1028C0004D915D916D917C915697438B548B658BA7
:1028D000768B57964D915D916D917C915A97478B70
:1028E000508F618F728F5B968D919C91948F838FA7
:1028F00008950895FC01818D928D009719F061E093
:102900000C94CC110895DC015996ED91FC9130970F
:10291000B9F083899489A589B689428553856485F0
:102920007585841B950BA60BB70B811520E89207C4
:10293000A105B10538F08FEF9FE7A0E0B0E0089562
:1029400090E080E00895DC0159968D919C9100976C
:1029500039F0DC01ED91FC910480F581E02D1994B2
:1029600090E080E00895CF93DF93EC01E98DFA8D3C
:10297000309749F481E090E09B838A8390E080E087
:10298000DF91CF91089513821282898D9A8D0E94D2
:102990007D12E98DFA8D22813381232B59F7F0CFF7
:1029A000CF93DF931F92CDB7DEB76983DC01ED9142
:1029B000FC910280F381E02D41E050E0BE016F5FA9
:1029C0007F4F19950F90DF91CF9108952F923F92ED
:1029D0004F925F926F927F928F929F92AF92BF922F
:1029E000CF92DF92EF92FF920F931F93CF93DF93DB
:1029F00000D0CDB7DEB7FC018581811118C08FEF03
:102A00009FEF0F900F900F90DF91CF911F910F913B
:102A1000FF90EF90DF90CF90BF90AF909F908F90FE
:102A20007F906F905F904F903F902F90089584819A
:102A300080FFE5CF438954896589768982859385AE
:102A4000A485B585312C212C481759076A077B07C7
:102A500019F022242394312C6F012101CE0101961B
:102A60003C01DF011696BB83AA834114510409F48B
:102A7000C5C0F60142855385648575854A01F1E03C
:102A80009F22D6015B968D919C915C978A019B0158
:102A9000E9E03695279517950795EA95D1F71596AC
:102AA000EC91E230E9F5FC01628D738D848D958D9A
:102AB000600F711F821F931FA12C22E0B22EA81855
:102AC000B9084A145B0408F45201F601248126FD7A
:102AD00004C0A114F2E0BF0671F400910602109147
:102AE00007022091080230910902061717072807EC
:102AF000390709F05EC040E00E94E30C882309F426
:102B00007ECFC4018A56984FD3019C012A0D3B1DEC
:102B1000FC012E173F0709F46CC041914D93F9CF8A
:102B2000DC011496BC90BA94B0228114910479F41B
:102B3000B1100DC0452B462B472B69F5F60187894F
:102B4000908DA18DB28D86839783A087B187D601A2
:102B50005B96ED91FC915C9716966D917D918D91B0
:102B60009C9119976250710981099109258504C0CA
:102B7000660F771F881F991F2A95D2F7068517853C
:102B800020893189600F711F821F931F6B0D711D8A
:102B9000811D911D91CFD60116964D915D916D913C
:102BA0007C9119972A813B810E94F80E8111CFCF29
:102BB00026CF730185019401AB01BC018091960978
:102BC000909197090E94840B882309F418CF6A0C0E
:102BD0007B1CF60182859385A485B5858A0D9B1D96
:102BE000A11DB11D82879387A487B5874A185B080A
:102BF0003CCF281B390B620E731EEBCF2A9423287F
:102C000009F0FDCE898190E0FCCEFC01818D928D92
:102C1000009711F00C94E6148FEF9FEF08950F9337
:102C20001F93CF93DF93EC01898D9A8D10E000E024
:102C3000009799F00E94E6148C010F3F100769F08D
:102C4000898D9A8DFC014285538564857585415037
:102C50005109610971090E943810C801DF91CF91B3
:102C60001F910F910895CF92DF92EF92FF921F93E1
:102C7000CF93DF93EC0180E2689FF0011124EA56C4
:102C8000F84F9385917161F0842F827449F080E050
:102C9000DF91CF911F91FF90EF90DF90CF9008953B
:102CA000142F6A8B8091060290910702A09108026E
:102CB000B09109028E879F87A88BB98BC488D5886D
:102CC000F12CE12C7601DD24CC24CF8AD88EE98E3C
:102CD000FA8E828D938DB0E0A0E0AC01BD014C294D
:102CE0005D296E297F294F8B588F698F7A8F838555
:102CF0008871B1F4848D958DA68DB78D8B8B9C8B4F
:102D0000AD8BBE8B81E08D831F701C831E821F8262
:102D1000188619861A861B861C861D8681E0B8CF08
:102D2000803109F0B4CF9E012D5E3F4F8B8D9C8D7D
:102D30000E94790F882309F4AACF84E0E4CFDC0154
:102D400096E0FB0101900D929A95E1F70895BC0180
:102D500080E694E00E949F1664E474E086E694E0C6
:102D60000C949F16DC0194E0FB0101900D929A9562
:102D7000E1F7089586E694E00E94A7166AE774E0FA
:102D80008EE794E00E94B2166CE979E08AE794E05D
:102D90000E94B2160C947D08262F206120938F0488
:102DA000643021F0009711F481E090E061E00E942E
:102DB000FF071092700488E2809371040E94BA1693
:102DC00084E0809390041092910422E04CE150E062
:102DD0006AE182E30E942A0886E390E00C94A50948
:102DE000CF93DF93EB010E94A716BE018EE794E01C
:102DF0000E94B2166CE979E08AE794E0DF91CF9106
:102E00000C94B216FB0101900020E9F73197AF0155
:102E1000461B570BDC01ED91FC910280F381E02D04
:102E200019948F929F92AF92BF92EF92FF920F935D
:102E30001F93CF93DF93CDB7DEB7A1970FB6F8946A
:102E4000DEBF0FBECDBF7C01FA01CB0119A222303B
:102E500008F42AE08E010F5D1F4F822E912CB12CB9
:102E6000A12CBF01A50194010E940D39F901CA01ED
:102E70006A300CF5605DD8016E938D01232B242BF5
:102E8000252B79F790E080E0109721F0BD01C70174
:102E90000E940217A1960FB6F894DEBF0FBECDBFF9
:102EA000DF91CF911F910F91FF90EF90BF90AF9066
:102EB0009F908F900895695CDECF0F931F93CF93FF
:102EC000DF93EC010E9402178C016AE772E0CE01E9
:102ED0000E940217800F911FDF91CF911F910F91D8
:102EE00008950F931F93CF93DF93D62FC72FBC0165
:102EF00088EC99E00E9402170D2F1C2FC0E0F8010A
:102F000041918F0150E070E060E02AE088EC99E0A8
:102F10000E941117C33029F06EE288EC99E00E94FC
:102F20000805CF5FC43059F76AE772E088EC99E092
:102F3000DF91CF911F910F910C9402170F931F9364
:102F4000CF93DF93EC0188819981009759F02A8112
:102F50003B812617370730F081E0DF91CF911F9139
:102F60000F9108958B016F5F7F4F0E943739009753
:102F700059F0998388831B830A832C813D81232BFD
:102F800059F7FC011082E8CF80E0E7CFCF93DF93C1
:102F9000EC0188819981009711F00E9453361982C3
:102FA00018821D821C821B821A82DF91CF910895A4
:102FB000EF92FF920F931F93CF93DF93EC01FB01EE
:102FC000E080F180E114F10411F104811581011513
:102FD0001105A9F08C819D81080F191FB801CE0140
:102FE0000E949E17882399F0288139818C819D81C8
:102FF000B701820F931F0E94353A1D830C83CE01C7
:10300000DF91CF911F910F91FF90EF900895CE0126
:103010000E94C617F4CFEF92FF920F931F93CF93A6
:10302000DF93EC017B018A01BA010E949E17811196
:103030000BC0CE010E94C617CE01DF91CF911F9128
:103040000F91FF90EF9008951D830C83B701888145
:1030500099810E94353AF0CFEF92FF920F931F9320
:10306000CF93DF9300D000D000D0CDB7DEB78C0176
:10307000862FF80111821082138212821582148227
:103080004AE09E012F5F3F4F7901B90190E00E9415
:103090001637F70101900020E9F73197AF014E197B
:1030A0005F09B701C8010E940B1829960FB6F89462
:1030B000DEBF0FBECDBFDF91CF911F910F91FF906B
:1030C000EF900895FC011182108213821282158202
:1030D00014826115710551F0FB0101900020E9F7A0
:1030E0003197AF01461B570B0C940B180895FC0148
:1030F00080819181009711F00C9453360895CF93FD
:10310000DF93EB0144E050E0BC018CE794E00E94C7
:10311000183A892B49F466E774E0CE010E949F16A5
:1031200081E0DF91CF91089580E0FBCF3F924F92F5
:103130005F926F927F928F929F92AF92BF92CF9247
:10314000DF92EF92FF920F931F93CF93DF9300D004
:1031500000D000D01F921F92CDB7DEB77C01FE01D8
:103160003196CE010C966F0130E23193E817F907E2
:10317000E1F7DA0130E087E09D91B92E992309F457
:103180003CC09E32F1F48A30C9F480E02B960FB631
:10319000F894DEBF0FBECDBFDF91CF911F910F918D
:1031A000FF90EF90DF90CF90BF90AF909F908F9067
:1031B0007F906F905F904F903F90089538E08AE045
:1031C000DBCFE8EDF1E04491442321F031969413F4
:1031D000FACFDBCF8317C8F24FED490F4E35A8F673
:1031E0004FE9490F4A3118F440EEB42EB90EF601FA
:1031F000E30FF11DB0823F5FBFCF8981803229F29A
:10320000322E8B01DB015B968D919C915C97F701CF
:10321000948F838F16961D921D921D921C92199762
:10322000FB011286138614861586F8018285938524
:10323000A485B5854389548965897689841795075E
:10324000A607B70708F04DC025E0B695A795979556
:1032500087952A95D1F7F82FFF70AF2ED8011596D4
:103260008C91823008F491CFC8010E94E61497FD3A
:103270008CCFF80182859385A485B5854F96A11DD5
:10328000B11D82879387A487B587F0E2AF9EB00116
:1032900011246A56784F6115710509F476CFDB0168
:1032A0008C91882341F0853E09F062C0BB2029F053
:1032B000BB24B394BACFB1100EC0F701A28A80919B
:1032C000060290910702A0910802B0910902868738
:1032D0009787A08BB18BDB018C918111E9CFBB2447
:1032E000B394832D8271823109F04FCFBB2009F452
:1032F0004DC0F701668577858089918941E00E94FC
:10330000E30C882309F441CFD70152968C91B0E2A7
:103310008B9FC00111248A56984F009709F435CF2E
:10332000FC013A9626E1DF011D922A95E9F72BE090
:10333000F601DC0101900D922A95E1F721E238E2D5
:10334000FC01318B208B40E058E057874687338B58
:10335000228B318F208F578B468B81E00E94B80CD7
:10336000882309F412CF432DD70152966C910AC0DD
:103370004BE050E0C6010E94183A892B09F055CF66
:10338000432D6A2DC7010E94331600CFF8018581B5
:10339000823009F4FACEC8010E94CC10882309F4C7
:1033A000F4CED8015B96ED91FC915C9716968D90CA
:1033B0009D90AD90BC901997B2E08B1A9108A1082E
:1033C000B108858504C0880C991CAA1CBB1C8A9571
:1033D000D2F786859785A089B189880E991EAA1E85
:1033E000BB1E848124013501480E511C611C711CD7
:1033F00084149504A604B70409F1E1E04E1A5108BB
:103400006108710881E00E94B80C882309F4BDCEE0
:10341000E6E9F7E0119286E999E08E179F07D1F768
:1034200040920602509207026092080270920902CE
:1034300080911304816080931304DACFD8015B96E6
:10344000ED91FC91258580E092E0A0E0B0E004C021
:10345000880F991FAA1FBB1F2A95D2F7F80143892D
:10346000548965897689840F951FA61FB71F838BA2
:10347000948BA58BB68BD70152961C9286E997E068
:103480004FCF0F931F93CF938C0184E492E00E945F
:10349000A716E0E6F4E088E08487C6E0C58748E048
:1034A00050E06CEE71E08EE694E00E94DC36E0E8DD
:1034B000F4E0DF011D92CA95E9F764E474E086E761
:1034C00094E00E949F16B80186E894E00E94B2162C
:1034D0006CE979E08CE794E00E94B2168AE290E011
:1034E000CF911F910F910C94A509FF920F931F93F9
:1034F000CF93DF93182F092FEB01F42ECB010E94FD
:10350000EF03BE01882309F446C084E594E00E94DD
:10351000F0168881807F803E91F088819981AA8110
:10352000BB818F3F9F4FAF4FBF4F49F044E050E00A
:10353000BE018AE494E00E94183A892B31F464E4D5
:1035400072E080E694E00E949F1688E080936C040D
:1035500010926D0449E050E060E972E08EE694E07C
:103560000E94DC361092700481E1809377041092FF
:103570008404F092850400938204109383041092D3
:1035800086041092880410928904DF91CF911F91D4
:103590000F91FF9008958AE594E0B9CFEF92FF92E2
:1035A0000F931F93CF938C01E0E6F4E086E191E066
:1035B000DF019C011D9221503040E1F780912F04E2
:1035C00064E472E0833011F46AE174E043E450E0B3
:1035D00084E490E00E94751A64E472E080E694E06E
:1035E0000E949F1681E080938A0480938B0486E07A
:1035F00080938C0480911F0490912004A091210459
:10360000B091220480938E0490938F04A093900431
:10361000B0939104C0912F04C33031F46CE979E088
:1036200086E994E00E94B21664E474E086EA94E0CD
:103630000E949F1686E795E09093190480931804E2
:10364000E8EEF1E084910E94B00AE9EEF1E08491A5
:103650000E94B00AEAEEF1E084910E94B00AEBEE1B
:10366000F1E084910E94B00A85E30E94B00A81E0F3
:103670000E94B00A83E0C11101C081E00E94B00A3B
:103680008DE30E94B00A87E00E94B00A81E00E94A8
:10369000B00A84E4E82E84E0F82EC7E0C15031F08F
:1036A000D7018D917D010E94B00AF8CF80910A0266
:1036B000882371F06AE072E0FB0101900020E9F7D5
:1036C000BF016B5072404AE052E08CE00E94BD0A9C
:1036D0000115110559F0A80164E082E30E94BD0ABA
:1036E0004AE154E064E086E30E94BD0A87E30E9459
:1036F000B00A83E00E94B00A81E00E94B00A83E031
:103700000E94B00A86E00E94B00A8FEF0E94B00AC1
:1037100080911804909119048A589440CF911F9178
:103720000F91FF90EF900C94050ACF92DF92EF92E9
:10373000FF920F931F93CF93DF9300D01F92CDB7CB
:10374000DEB78C0180912F048230C9F098F4882371
:1037500009F49CC0813009F4B8C00F900F900F900D
:103760000F90DF91CF911F910F91FF90EF90DF901D
:10377000CF900895833009F454C0843071F765E028
:10378000C8010E94700A882309F4C7C080911E04F2
:10379000811108C088E30E942309682F6E7F88E3A7
:1037A0000E9409096AE974E08CE999E00E94B21666
:1037B000EAE7F5E0005A1B4F7F0122E0E20EF11C20
:1037C000D1808081863009F4FAC008F0BDC0813014
:1037D00009F4EBC0833009F4EEC0F701ED0DF11DE3
:1037E000E017F10748F30E94C50660932704709321
:1037F00028048093290490932A0480912C0788231D
:1038000061F0109231071092300781E08093320707
:103810006CE277E0CB010E94B21683E080932F0424
:103820009CCFC0902B04D0902C04E0902D04F090FD
:103830002E042FEFC216D206E206F20609F48DCF4F
:103840000E94C506009127041091280420912904A4
:1038500030912A04601B710B820B930B6C157D0554
:103860008E059F0508F479CF8CE999E00E94CE1A65
:1038700084E080932F040E94C50660932304709314
:103880002404809325049093260467CF0E94C506E4
:1038900060931F047093200480932104909322046A
:1038A000ECE9F9E084E0DF011D928A95E9F790E008
:1038B00080E00E94CE1A88E30E942309682F61608D
:1038C00088E30E94090981E0D4CF62E0C8010E9428
:1038D000700A882311F16AE974E0CE0101960E9412
:1038E000B216EAE7F5E0005A1B4FBF016E5F7F4F4B
:1038F00081819081963351F48AE194E00E94B2165E
:10390000CE0101960E94CE1A82E0B3CFFB01E80FF0
:10391000F11DE017F10748F3F3CF0E94C5060091AF
:103920002304109124042091250430912604601B67
:10393000710B820B930B613177428105910508F47D
:103940000CCF10922F0409CF8A3331F08F3F09F446
:103950004ACF833309F041CF10922B0410922C04EC
:1039600010922D0410922E04F701C701049620E056
:1039700030E0A9016191542F432F322F2227260FC7
:10398000311D411D511D8E179F07A1F72F3F8FEF4E
:10399000380748075807B9F420932B0430932C04B8
:1039A00040932D0450932E0418CFB70188E999E075
:1039B0000E94B21612CFB7018CE297E0F9CFB7019F
:1039C00084E297E0F5CFA8EEB3E00E94433860931D
:1039D0002B0470932C0480932D0490932E04FDCE21
:1039E000FF920F931F93CF93DF938C018091330746
:1039F000882319F0C8010E94951B0115110509F0D3
:103A0000D4C080913207857099F0809130079091F1
:103A10003107892B69F40E94450A882349F08CE21A
:103A200097E00E94411A80913207886080933207A4
:103A300080913007909131070196909331078093E0
:103A4000300780912B07813009F078C080913207D0
:103A500081FF74C082E080932B0780912D028F5FDD
:103A600080932D0210912A0700912907C091280701
:103A700090E2C99FE00111248F71C82B8EE197E07D
:103A80000E94EF036EE177E0882309F47BC084E5B0
:103A900094E00E94F016D8E0D0936C0410926D046C
:103AA00049E050E060E972E08EE694E00E94DC3686
:103AB0008CE28093710486E0809377040E947D08F5
:103AC00000938404109385048BE080938204C09358
:103AD0008304E6E8F4E0DF011D92DA95E9F78091CE
:103AE0002A02809388048D5F80932A0280E6809367
:103AF0008E0482E080938F0493E090939004109260
:103B000091041092920410929304109294041092D3
:103B100095048093960494E090939704809398047E
:103B200086E28093990422E040E250E06AE182E379
:103B30000E942A088AE390E00E94A50984E297E0A7
:103B40000E94EF03882379F08091230781110BC035
:103B500080912207811107C084E297E00E94411AF8
:103B600081E0809322078EE197E00E94EF038111AC
:103B70000CC0D0E0C0E0CE01DF91CF911F910F913A
:103B8000FF9008958AE594E084CF80911D0781110C
:103B9000F0CF80911C078111ECCF8EE197E00E945D
:103BA000411A81E080931C07E4CF0932110508F324
:103BB00080916C048830E9F680916D04863009F0BC
:103BC0008EC144E050E06CE979E086E894E00E9420
:103BD000183A892B71F680917504813029F586E6B3
:103BE00094E00E94A7161092740482E080937504FA
:103BF00066E774E080E894E00E949F1664E474E055
:103C000086E794E00E949F166CE774E086E894E0F3
:103C10000E94B2166CE979E08CE794E00E94B2163B
:103C20008AE290E00E94A5098091320783FF0DC0CF
:103C3000C0917504C23049F46AE574E08CE297E003
:103C40000E947F188111C093320780912307811150
:103C500011C080912207882369F064E574E084E252
:103C600097E00E947F18882329F081E08093230742
:103C70001092220780911D0781117BCF80911C0734
:103C8000882309F476CF64E574E08EE197E00E9422
:103C90007F18882309F46DCF81E080931D0710926F
:103CA0001C0767CF0633110508F463CF863009F08F
:103CB00060CF209184042B3009F0A2C044E050E092
:103CC0006EE177E08AE794E00E94183A892B09F0C8
:103CD00050CFF0908F04F2FE15C0E0915204F091A5
:103CE0005304309759F08091850430E020E050E093
:103CF00040E063E0829586958770199585E0809312
:103D00002B0737CF0E94E407EC0180912B0782300C
:103D100081F59F2D90718F2D82718231E1F460E0E9
:103D200090E080E00E94CC1688E180938F04E091BF
:103D30005004F091510490E080E0309731F0809190
:103D40008304829586958770199523E020932B072D
:103D50000E94270A0ECF81E080932B07911106C0A5
:103D6000CE01019664E00E94CC1603CF90E080E083
:103D7000F9CF833099F52097A1F1E0915204F091A9
:103D80005304309771F180918E0490E024E0959572
:103D900087952A95E1F7880F991F880F991F8296BA
:103DA000A801485051098417950708F4AC01CE01C9
:103DB000840F951F9801241B350B0817190708F06D
:103DC0009E018091850460E08295869587701995A3
:103DD00069E0CE010E94CC1686E091CF853009F4CF
:103DE000C8CEF0FE07C0833009F4C3CE69E0CE012F
:103DF0000196F0CF209709F4BCCE60E0CE01B3CF9E
:103E000030912B0280912C0290E02817190609F0BE
:103E1000B0CE809185048313ACCEF0908F04F1FE78
:103E200039C0109270048CE2809371040E94BA161B
:103E300082E180938F0460E081E090E00E94FF07C0
:103E4000109286041092870480912A02809388043D
:103E5000109289048D5F80932A0282E080939604F9
:103E600084E08093970485E08093980410929904ED
:103E700090E690938E048093900488E78093910459
:103E800022E040E250E06AE182E30E942A088AE3ED
:103E900090E06AC0F4FE6DCE0E94E407EC019093BE
:103EA0004F0480934E04892B91F0C0918E04D0E092
:103EB00084E0D595C7958A95E1F7CC0FDD1FCC0F2F
:103EC000DD1FA2960C171D0708F055CE52CEF0FE4E
:103ED00050CE60E090E080E00E94CC164CCE0932DB
:103EE000110509F446CE811144CE80916E048534CB
:103EF00009F03FCE44E050E06CE979E08EE794E0D1
:103F00000E94183A892BA9F044E050E06AE474E07A
:103F10008EE794E00E94183A892B59F044E050E073
:103F200064E472E08EE794E00E94183A892B09F06D
:103F300020CE80917704813009F0B4CE8091820444
:103F4000883009F016CE0E94BA1610928204809131
:103F50008404883F28F0909185049F5F90938504A6
:103F6000885F80938404C8010E94A50902CECF9285
:103F7000DF92EF92FF920F931F93CF93DF9300D0C6
:103F80001F92CDB7DEB7E091D809F091D90982E050
:103F90008083E091D409F091D5091082E091D6098F
:103FA000F091D7098FEC80831092E009E091DC0951
:103FB000F091DD0986E08083E091DA09F091DB0978
:103FC000808180618083E091DA09F091DB09808152
:103FD00088608083E091DA09F091DB098081806854
:103FE0008083E091DA09F091DB0980818F7D808305
:103FF0006DE772E088EC99E00E9402178091960AC2
:10400000882321F081E99AE00E9470121092720ACE
:104010001092700A10926D0A10926C0A8DE28093D1
:104020006B0A0E94C5068B0161E080916B0A0E94B9
:10403000320661E080916B0A0E94A605FFB6F894F3
:104040008091FC03811127C0E2E6F3E08491E8EA65
:10405000F3E09491E82FF0E0EE0FFF1FE756FD4FDD
:10406000A591B491EC91E92321F461E085E30E94EC
:10407000A60561E085E30E9432068CB580618CBDA7
:104080008CB580648CBD61E084E30E94320661E0FF
:1040900083E30E9432068091FC038F5F8093FC03D0
:1040A000FFBE82E58093650A1092660A8091650AD8
:1040B0009091660A0E940E0B6AE0F62E8FEF0E9426
:1040C000E90AFA94F110FACF87E69AE00E94110B00
:1040D00020E030E0A90160E087E69AE00E94270B2B
:1040E000F82E8093710A81E0F816A9F00E94C506A7
:1040F000601B710B613D774058F381E080936C0A3F
:1041000087E69AE00E94DE0A68EA72E088EC99E0AD
:104110000E945D17FFCF2AEA31E040E050E068E0FE
:1041200087E69AE00E94270B82FF2AC0F092720A6B
:104130008091720AC12CD12CE12C40E4F42E823003
:1041400019F0C12CD12C760120E030E0A90167E301
:1041500087E69AE00E94270BA701960169E287E6AD
:104160009AE00E94270B8093710A8823D1F00E9465
:10417000C506601B710B613D774030F388E0BECF10
:1041800054E0F52E0E94F00A8093710AFA94F1101F
:10419000F9CF8A3A11F082E0B1CF82E08093720ABF
:1041A000C7CF8091720A8230D1F420E030E0A901BB
:1041B0006AE387E69AE00E94270B882311F086E0E5
:1041C0009DCF0E94F00A807C803C19F483E08093AC
:1041D000720A0E94F00A0E94F00A0E94F00A87E622
:1041E0009AE00E94DE0A80E58093650A1092660AD2
:1041F00081E00E942D0D882379F181E99AE00E94E7
:10420000E40F882309F480CF65E972E088EC99E037
:104210000E945D171092330787E390E0C12CD12CE8
:104220007601C3940097F9F0FC0123E0F595E7953A
:104230002A95E1F7E350FC4F282F2770B701A6011C
:1042400004C0440F551F661F771F2A95D2F720819F
:10425000242B20830197E6CF80E00E942D0D882338
:1042600009F452CFCACF60E072E084E494E00E9487
:104270009F168CEB92E090933304809332040CB43D
:1042800006FC25C061E085E30E94320661E085E31B
:104290000E94A60561E083E30E94320661E084E3A8
:1042A0000E94320660E082E30E94320661E083E30E
:1042B0000E94A60560E083E30E94A60560E084E317
:1042C0000E94A60580E58CBD8DB581608DBD85E31E
:1042D0008093300461E00E9432060E94A4084FEFF0
:1042E00060E08FEF0E94D80862E070E080E090E02C
:1042F0000E9493060E94AB088DE10E949F0880E017
:104300000E949F081EB50E94A40810FFF3CF70E022
:1043100060E088E00E94160970E060E08CE00E9496
:1043200016096FEF7BE08AE00E94160960E07CE0EE
:1043300084E00E9416096FEF71E186E00E94160981
:1043400066E774E084E10E945D0A61EB88E30E9405
:1043500009096FE370E388E20E94160969EF77EFBD
:1043600080E30E94160961E080EC0E94090942E3A3
:1043700062EC80E80E94D80862E17CE086EC0E9452
:10438000160962E184EC0E9409096CED75E08AEC83
:104390000E9416096091440484EE0E94090960910C
:1043A000450485EE0E9409096091460482EE0E9450
:1043B00009096091470483EE0E940909609148044D
:1043C00080EE0E9409096091490481EE0E9409096A
:1043D00060E071E080E10E945D0A8FE10E94ED08DB
:1043E00040EC6BE180E80E94D80844E06FE180E88F
:1043F0000E94D80882E70E942309863008F08F5F68
:104400006FEB72E0882311F064EE72E088EC99E0C3
:104410000E945D1781E08093330780914904282F23
:1044200030E094E0359527959A95E1F7EAE0F2E0DF
:1044300001900020E9F7ED50F24090E32A300CF0B3
:1044400097E3E65FFD4F920F9083EAE0F2E0019080
:104450000020E9F7EC50F2408F7090E38A300CF0C6
:1044600097E3890FE65FFD4F808310922F040E942F
:10447000C5068B01F0902F04E3E0FE1641F00E9488
:10448000C506601B710B60367A4E08F448C0ECE933
:10449000F9E028E939E06AE474E040EA59E09191F2
:1044A000D9018D919D018095892BDB018D93BD01F3
:1044B0004E175F07A1F71092310710923007B3E053
:1044C000FB1631F060EF72E088EC99E00E945D1716
:1044D0006CEF72E088EC99E00E945D170E94C506BF
:1044E0008B010E94450A882321F1FF24F39484E282
:1044F00097E00E94EF03882309F4CEC08091230740
:104500008F2509F4CEC00E943B090E94F01C0E9436
:10451000C506601B710B6033754748F311C00E94DC
:10452000450A882309F4A6CF0E943B090E94951BE7
:10453000A1CF0E94C506601B710B6033754788F2DE
:104540006AE473E088EC99E00E945D178091340280
:1045500090913502A0913602B091370289839A83F7
:10456000AB83BC83BE016F5F7F4F8EE197E00E94FB
:10457000B21680E49FE190932C0280932B026CE9A9
:1045800079E089E093E00E9471176CE277E08FE0B8
:1045900093E00E94711764E277E085E193E00E9466
:1045A00071176EE177E08BE193E00E94711761E291
:1045B00073E088EC99E00E94021780E0E82E82E028
:1045C000F82E10E0D7014D917D0150E070E060E0E1
:1045D00020E188EC99E00E941117153029F06AE378
:1045E00088EC99E00E9408051F5F163059F76CE7C8
:1045F00072E088EC99E00E945D1760E081E00E9423
:10460000CD3390930E0480930D0460E081E00E940E
:10461000CD339093100480930F0470E060E080919C
:104620000D0490910E040E94CB2D70E060E080910B
:104630000F04909110040E94CB2D67E273E088EC88
:1046400099E00E945D1707E014E021E040E054E0AB
:1046500068E373E08EE194E20E94BF3205E014E06B
:1046600021E040E054E061E473E089EE96E20E94CC
:10467000BF3262E370E080E090E00E9493060F900A
:104680000F900F900F90DF91CF911F910F91FF909E
:10469000EF90DF90CF9008958091320786958170DA
:1046A0002FCFEEE1F7E084E0DF011D928A95E9F774
:1046B0008091040411E0180F1093040480912407E2
:1046C000811108C044E050E068E070E084E297E0C7
:1046D0000E942E3A812F90E045E350E064E277E0BB
:1046E000906E0E94751AEAE8F4E08CE0DF011D92FA
:1046F0008A95E9F7A6E9B4E06AEB71E080E0FB0196
:1047000024916F5F7F4F2E3249F0222339F08F5F63
:10471000AD01480F511DFA012083F1CF8C9390E039
:104720000196A80FB91F2111E9CF1C9211961C9276
:10473000119781E012968C93129713961C921397FF
:1047400014968C93149720E634E0A21BA552A093F4
:104750008A049091040490938B0480938C0480933A
:104760008F048A2F90E00E94050A0E94C5068B01E3
:1047700080911E078111EACE0E94C506601B710B55
:104780006033754708F0DCCE0E943B097C0100973E
:1047900079F30E94F01C892B59F786E4E816F1049E
:1047A00038F380918304853319F780918404803E27
:1047B000F9F680918504909104048913D9CF9091E2
:1047C0008B048913D5CF80918D048F7009F0B8CEFA
:1047D000E0918A04F0E0E657FB4F9701205A3B4FE7
:1047E0008081807CDF011296811109C0DF01119662
:1047F000A217B30720F48181811119C01196CD0150
:104800000E962817390708F4B3CF1996EC9119972B
:1048100011968C911197813061F4E43051F4BD010F
:10482000665F7F4F8EE197E00E94B216A1CFFD0137
:10483000DDCFF0E03A96EA0FFB1FD2CFCF93DF93A4
:10484000CDB7DEB72F970FB6F894DEBF0FBECDBF42
:1048500082ED682E81E0782E0AEB11E098EAE92ECD
:1048600091E0F92E2FE0C22E29E2D22E3EEFA32EA8
:1048700034E2B32E47E3842E46E2942E552453941B
:1048800059E1452E80910F04909110040E942B2F26
:104890000E943B090E94F01C0E94C5062091090459
:1048A00030910A0440910B0450910C0426173707ED
:1048B0004807590708F053C00E94C50668517C4F4D
:1048C0008F4F9F4F6093090470930A0480930B04E9
:1048D00090930C046AE772E088EC99E00E9402175A
:1048E0008091E10A9091E20A892BC9F1E091DD0AF9
:1048F000F091DE0A8081882391F1709238046092F1
:104900003704F0933A04E093390410933C04009385
:104910003B04F0923E04E0923D0410924004109259
:104920003F04D0924204C092410480912B029091A6
:104930002C02B0925304A09252049092510480929F
:1049400050049093290780932A0750922B07809157
:1049500028078F5F877080932807809343040E9405
:104960003B090E94F01C892B09F43FC06AE673E002
:1049700088EC99E00E94021780910D0490910E043A
:104980000E942B2F6CE773E088EC99E00E940217DD
:104990008FE0E9E9F3E0DE01119601900D928A952E
:1049A000E1F74FE050E0BE016F5F7F4F86E994E092
:1049B0000E94DC3660E080914E0490914F040E948A
:1049C000CC1640928F048EE090E00E94270A70E09F
:1049D00060E080910D0490910E040E94CB2D6AE856
:1049E00073E088EC99E00E945D1770E060E08091D0
:1049F0000F04909110040E94CB2D44CF0F931F936E
:104A0000CF93DF93890190914304981781F0E0914F
:104A10004104F091420450E040E070E060E084E046
:104A2000199580E0DF91CF911F910F910895611149
:104A3000F8CF2D303105A8F3C0914104D091420444
:104A4000209779F3BA0167597B4F43E050E088EA39
:104A500093E00E943C3A60918E0470E024E07595EA
:104A600067952A95E1F7660F771F660F771F6E5DD2
:104A70007F4F21E0892B09F420E0A801822FFE015D
:104A8000CFCFAF92BF92CF92DF92EF92FF920F9370
:104A90001F93CF93DF93CDB7DEB7EE84FF84C88832
:104AA000D9888E010E5E1F4FC6010196F601249132
:104AB000222309F4D1C0243279F0D7011696ED9162
:104AC000FC911797AF014F5F5F4F17965C934E9322
:104AD000169720836C01E8CFB2E0CB0ED11CFC010D
:104AE0008491863409F481C0A0F4843409F44CC064
:104AF000853409F494C0D7011696ED91FC9117976F
:104B00009F012F5F3F4F17963C932E9316978083FC
:104B1000CBCFD70116964D915C918C3409F44DC0E2
:104B2000833509F457C0883431F7B8016E5F7F4F81
:104B3000F8019081292F092E000C330B84E0359564
:104B400027958A95E1F72F709F709A300CF0995F46
:104B5000905D2A300CF0295FFA013196D701179643
:104B6000FC93EE931697205DFA0120831696ED9143
:104B7000FC9117979F012F5F3F4F17963C932E9301
:104B8000169790838B0190CF5801B2E0AB0EB11C09
:104B9000F70166817781D8018D919C910E9455041F
:104BA000F70186819781DC010D900020E9F7CD01A6
:104BB000019797838683850177CF5801F4E0AF0E84
:104BC000B11CD8016D917D918D919C912AE00E943C
:104BD000E536E6CF5801B2E0AB0EB11CF8016081BA
:104BE0007181CA010E94353ADBCFF8010190F08152
:104BF000E02D0E5F1F4F84913196882309F454CF26
:104C0000D70116964D915C9117979A012F5F3F4FF0
:104C100017963C932E931697DA018C93ECCFF801FC
:104C2000808191810E5F1F4F5C01BFEFAB1ABB0A01
:104C30000E943B38882309F437CFD7011696ED91AF
:104C4000FC9117979F012F5F3F4F17963C932E9330
:104C500016978083C501E8CFDF91CF911F910F9107
:104C6000FF90EF90DF90CF90BF90AF9008950F939B
:104C70001F93CF93DF9300D000D01F921F92CDB728
:104C8000DEB71C821B822CE332E03A83298326E9BB
:104C900034E03E832D8338872F839091430498130B
:104CA0002EC0A0913F04B091400410913B040091AC
:104CB0003C04609137047091380480913D049091D8
:104CC0003E04AE014F5F5F4F109751F59F938F9356
:104CD0000F931F9380913A048F93809139048F939F
:104CE0007F936F938CE692E09F938F935F934F93A4
:104CF0000E9441250FB6F894DEBF0FBECDBF8F8155
:104D000098852D813E81821B930B28960FB6F894CF
:104D1000DEBF0FBECDBFDF91CF911F910F910895E0
:104D2000FD0101900020E9F73197EA1BFB0B2AE710
:104D300032E0009721F42CE732E084EF91E0BF935A
:104D4000AF93FF93EF933F932F939F938F930F9383
:104D50001F937F936F9385EF91E09F938F935F9362
:104D60004F930E944125C6CFEF92FF920F931F935E
:104D7000CF93DF93EC017B018A011B821A8288EEBC
:104D800093E0A0E0B0E08C839D83AE83BF838CE68C
:104D900092E0998388838DE190E00E94B7359A8FE5
:104DA000898F009779F02DE1F701DC0101900D92D8
:104DB0002A95E1F74CE050E0B801CE010C960E9434
:104DC0004A3A188EDF91CF911F910F91FF90EF908B
:104DD0000895CF93DF93CDB7DEB7C957D1090FB68A
:104DE000F894DEBF0FBECDBF28EE422E23E0522E38
:104DF000612C712C3CE6232E32E0332E00E612E0CB
:104E000080910F04909110040E942B2F0E94D106D4
:104E1000882341F08091D10A8B3059F018F08551E8
:104E2000823020F1C12CD12C90ECE92E9FE7F92E95
:104E300009C06091CB0A70E090E080E00E944037AA
:104E40006B017C010E94D106882349F08091D10A30
:104E50008B3069F120F08551823008F47FC1812CBC
:104E6000912C80ECA82E8FE7B82E2AC06091CB0A37
:104E700070E090E080E00E94403720E030E040E8C1
:104E800053E40E947D376B017C016091CC0A70E095
:104E900090E080E00E944237A70196010E945E38B0
:104EA0002DEC3CEC4CEC5DE30E947D37C9CF60916A
:104EB000CD0A70E090E080E00E9440374B015C0139
:104EC00080910D0490910E040E942B2F1C821B8256
:104ED0001A8309831E82CE0101960E94E40FBE014F
:104EE0006F5F7F4FCE01CB960E94291419A218A2A2
:104EF0001F8F0E8F1BA221968FAD219781115FC14D
:104F00006C961FAE1EAE6C97A0964CAE5DAE6EAEAC
:104F10007FAEA0976A963FAE2EAE6A97E3961FAE1D
:104F20001EAEE397A5961FAEA5976C968EAD9FAD6E
:104F30006C979093B30A8093B20AA0968CAD9DAD06
:104F4000AEADBFADA0978093B40A9093B50AA0937D
:104F5000B60AB093B70AA4968CAD9DADAEADBFAD09
:104F6000A4978093B80A9093B90AA093BA0AB09311
:104F7000BB0AA8E5B0E0AC0FBD1F1C96ECEBFAE055
:104F80008D9181932AE0E93CF207D1F7E396EEADEB
:104F9000FFADE397F093CA0AE093C90A309709F48A
:104FA000ADC08581882309F4A9C0C701B6010E945C
:104FB000CA38E62EC501B4010E94CA38F62E50E068
:104FC00040E06CE772E08DED9AE00E940B1869EB0F
:104FD00073E080EB9AE00E9402174F2D50E070E0E2
:104FE00060E02AE080EB9AE00E94111762EC73E027
:104FF00080EB9AE00E9402174E2D50E070E060E0D6
:105000002AE080EB9AE00E9411176FEC73E080EBCE
:105010009AE00E945D176E2DCE018D589F4F0E9421
:105020002C1861ED73E0CE01885A9F4F0E946218E0
:105030006F2DCE01CB960E942C1869ED73E0CE0146
:1050400001960E9462181F8E1E8E19A218A21BA222
:105050001AA269817A816115710531F04D815E81F5
:10506000CE014E960E940B18BE01655C7F4FCE01AB
:105070004E960E94D817BE01685A7F4F0E94D817DB
:10508000BE016D587F4F0E94D817EAE08D3D9E0704
:1050900069F0FC01608171816115710509F4BAC084
:1050A000448155818DED9AE00E940B18CE014E96F9
:1050B0000E947718CE0101960E947718CE01CB96F8
:1050C0000E947718CE01885A9F4F0E947718CE0110
:1050D0008D589F4F0E9477184091E10A5091E20A43
:1050E0006091DD0A7091DE0A88EC99E00E947204FA
:1050F0006AE772E088EC99E00E9402178091C90A81
:105100009091CA0A009761F00E9470128091C90ABA
:105110009091CA0A0E9453361092CA0A1092C90A84
:1051200070E060E080910D0490910E040E94CB2D00
:1051300070E060E080910F04909110040E94CB2DEC
:105140000E942F2A60E08EE290E00E94652B0E9470
:10515000A52C811155CE0E94DF2B50CE2091CD0A77
:10516000EA962FAFEA97622F6F7770E090E080E0C9
:105170000E94423720E030E040E853E40E947D374F
:105180004B015C016091CE0A70E090E080E00E94EB
:105190004237A50194010E945E382DEC3CEC4CECAA
:1051A0005DE30E947D374B015C01EA968FADEA9783
:1051B00087FF86CEB7FAB094B7F8B09481CE27E1D6
:1051C0004CEA53E0BE01655C7F4FCE014E960E94D3
:1051D0009618882309F494CECE01CB960E947012C3
:1051E00049A95AA96BA97CA9CE014E960E943810F4
:1051F000BE01625E7F4FCE0101960E9429144CEAE7
:1052000053E0BE016F5F7F4FCE01885A9F4F0E94CF
:10521000B4268BCE8DED9AE00E94C61747CFCF9370
:10522000DF93CDB7DEB72C970FB6F894DEBF0FBE75
:10523000CDBF605A7B4FFB01E45DFE4F1082CE0173
:1052400007960E9462184B855C856F81788588EC93
:1052500099E00E9472046AE772E088EC99E00E948B
:10526000021760EE73E0CE0101960E946218CE0133
:1052700001960E947718CE0107960E9477182C9607
:105280000FB6F894DEBF0FBECDBFDF91CF9108956A
:105290001F920F920FB60F9211240BB60F922F93FD
:1052A0003F934F935F936F937F938F939F93AF93AE
:1052B000BF93EF93FF9388EC99E00E94E604FF917F
:1052C000EF91BF91AF919F918F917F916F915F917E
:1052D0004F913F912F910F900BBE0F900FBE0F90EB
:1052E0001F9018951F920F920FB60F9211240BB6B4
:1052F0000F922F938F939F93EF93FF93E091D80991
:10530000F091D9098081E091DE09F091DF0982FDF9
:105310001DC090818091E1098F5F8F732091E20918
:10532000821741F0E091E109F0E0E853F64F958FE4
:105330008093E109FF91EF919F918F912F910F90B1
:105340000BBE0F900FBE0F901F9018958081F2CF6B
:105350001F920F920FB60F9211242F933F938F93AA
:105360009F93AF93BF9380913B0790913C07A0918F
:105370003D07B0913E0730913A0723E0230F2D37C8
:1053800058F50196A11DB11D20933A0780933B0764
:1053900090933C07A0933D07B0933E0780913F0751
:1053A00090914007A0914107B09142070196A11D3D
:1053B000B11D80933F0790934007A0934107B0939E
:1053C0004207BF91AF919F918F913F912F910F9085
:1053D0000FBE0F901F90189526E8230F0296A11D6F
:1053E000B11DD2CFFC01DB010FB6F8940F924091B2
:1053F000A0095091A1092D913C9111972F3F32079F
:10540000E1F0818192816091A2097081761719F093
:1054100048175907C0F4481B590B4217530788F423
:10542000241B350B2D933C938091A209808380919E
:10543000A0099091A1099283818380E00F900FBE13
:1054400008951D921C9281E0F9CF0FB6F8940F9247
:105450008091A0099091A1090F900FBE08958091AD
:105460005F078F5F80935F0708950FB6F8940F92E0
:10547000FC01928D0F900FBE81E0911180E00895A4
:10548000CF93DF939C01FB01DC011196CD91DC9160
:10549000D383C2838C819D81958384838C819D81FC
:1054A000DC0113967C936E9312977D836C83318716
:1054B0002087F90180818F5F8083DF91CF910895EC
:1054C000CF93DF93FC01A085B185828193812481F4
:1054D0003581EC013D832C83C481D5819B838A83F4
:1054E00011968D919C9112978E179F0721F4129619
:1054F000DC93CE931197118610868C9181508C93FA
:105500008C91DF91CF9108950F931F93CF93DF93E9
:10551000DC011596ED91FC91C681D7818E01045F67
:105520001F4FC8010E94602A80915F07811125C02A
:105530000A501109C8010E94602A8E899091C709FA
:10554000981710F48093C709B9E08B9FC00111240C
:10555000B8018D55964F0E94402AE091FA03F091D0
:10556000FB039E898689891760F481E08093370761
:10557000DF91CF911F910F910895B80188E797E0CF
:10558000EACF80E0F5CFEF92FF920F931F93CF9376
:10559000DF93EC010FB6F8940F921E8D7C0181E130
:1055A000E80EF11C01E01116D4F08FEF8E8F0F90F2
:1055B0000FBE0FB6F8940F921D8D7E0188E0E80EA5
:1055C000F11C01E01116B4F08FEF8D8F0F900FBE1C
:1055D000DF91CF911F910F91FF90EF9008958989EE
:1055E000882319F3C7010E94842A81110093370789
:1055F0001150D9CF8885882339F3C7010E94842AA6
:105600008111009337071150DDCF0F931F93CF9374
:10561000DF938C01FB0180819181D80113968F3F2C
:105620009807F1F4E801AF81B88512968D919C91AD
:10563000139793838283EC01FD83EC83B583A4836A
:105640001396FC93EE93129711870087F8018081DF
:105650008F5F8083DF91CF911F910F910895D901C2
:1056600012962D913C911397E90148815981841735
:105670009507A8F7DACFFC0173836283918780874F
:105680004617570790F0421B530B848595854817A2
:105690005907C8F4BF016E5F7F4F80914307909117
:1056A00044070E94052B80E008954217530718F421
:1056B0006217730740F4BF016E5F7F4F809145070B
:1056C00090914607EECF81E00895FF920F931F93CC
:1056D000CF93DF93EC01F62E0091A0091091A10960
:1056E0008091FA039091FB0302960E94602ACF3FBB
:1056F000DC0789F4FF2079F06091FA037091FB03D5
:105700006E5F7F4F86E697E0DF91CF911F910F91FB
:10571000FF900C94402AC00FD11FE091FA03F09142
:10572000FB03D383C2836091FA037091FB03C0171C
:10573000D10768F480916207909163076E5F7F4F95
:10574000DF91CF911F910F91FF900C94052B8091C9
:105750006407909165076E5F7F4F0E94052B8091D3
:105760005B0790915C07C817D90720F4D0935C07BA
:10577000C0935B07DF91CF911F910F91FF90089528
:10578000CF93DF93EB016091FA037091FB03645FA9
:105790007F4F0E94052B61E0CE01DF91CF910C94E9
:1057A000652BFC010396928381832FEF3FEF3483B7
:1057B00023839683858390878783108208950F9231
:1057C0000FB6F8940F920BB60F920CB60F921F9271
:1057D00011242F923F924F925F926F927F928F92FD
:1057E0009F92AF92BF92CF92DF92EF92FF920F9370
:1057F0001F932F933F934F935F936F937F938F9359
:105800009F93AF93BF93CF93DF93EF93FF93A091B9
:10581000FA03B091FB030DB60D920EB60D92809176
:105820005F07882321F081E0809337075FC01092E3
:105830003707A091FA03B091FB03E091FA03F091CE
:10584000FB032D913C918789908D82179307A8F0D7
:105850008091FA039091FB038091FA039091FB03EE
:10586000279A2F9A2FEF87EA91E6215080409040A7
:10587000E1F700C000001F9AF5CF2091C70989E029
:1058800001C02150422F50E0849FF001859FF00D10
:105890001124ED55F64F9081992399F3A181B2819E
:1058A00012960D90BC91A02DB283A183289FC001B8
:1058B00011248A55964FA817B90729F412968D918D
:1058C0009C919283818389E0849FF001859FF00DF4
:1058D0001124ED55F64F0180F281E02D86819781EC
:1058E0009093FB038093FA032093C709A091FA03D6
:1058F000B091FB03CD91CDBFDD91DEBFFF91EF9164
:10590000DF91CF91BF91AF919F918F917F916F91D7
:105910005F914F913F912F911F910F91FF90EF90C9
:10592000DF90CF90BF90AF909F908F907F906F90BF
:105930005F904F903F902F901F900F900CBE0F9054
:105940000BBE0F900FBE0F9008957F928F929F9283
:10595000AF92BF92CF92DF92EF92FF920F931F937D
:10596000CF93DF930FB6F8940F9280915F07815029
:1059700080935F0780915F07882389F080E00F9014
:105980000FBEDF91CF911F910F91FF90EF90DF90AD
:10599000CF90BF90AF909F908F907F90089580910F
:1059A0009507882359F3D0E0C0E029E0F22EEE24D9
:1059B000E39429C0E0917D07F0917E07C681D781ED
:1059C000CE010C960E94602A8E010E5F1F4FC80107
:1059D0000E94602A8E899091C709981710F48093CD
:1059E000C7098F9DC0011124B8018D55964F0E94A3
:1059F000402AE091FA03F091FB039E89868998176B
:105A000010F0E0923707809178078111D3CFCD2B2A
:105A100011F00E94C907E0903507F0903607E114B5
:105A2000F10409F4AFC089E0A82E77247394CC2444
:105A3000CA94DC2C80915F07811192C0C091A009AB
:105A4000D091A1092196D093A109C093A0092097D4
:105A5000B9F48091640790916507209162073091B5
:105A600063073093650720936407909363078093DF
:105A700062078091A2098F5F8093A2090E94C907E3
:105A800080915B0790915C07B12CC817D90708F08B
:105A90005BC0E091FA03F091FB03E689AE9EF00152
:105AA0001124ED55F64F8081823010F0BB24B39461
:105AB00080913707811103C0BB2009F45AC070924E
:105AC000370757C0E0916407F09165070580F681BC
:105AD000E02D06811781D80112968D919C91C817EF
