:100000000C94B2030C94E3030C94E3030C94E30309
:100010000C94E3030C94E3030C94E3030C94E303C8
:100020000C94E3030C94E3030C94E3030C94E303B8
:100030000C945F320C94E3030C94E3030C94E303FD
:100040000C94E3030C94E3030C94E3030C94E30398
:100050000C94E3030C94E3030C94E3030C94F22755
:100060000C94E3030C94BC270C9492270C94E303A8
:100070000C94E3030C94E3030C94E3030C94E30368
:100080000C94E3030C94E3030C94E3030C94E30358
:100090000C94E3030C94E3030C94E3030C94E30348
:1000A0000C94E3030C94E3030C94E3030C94E30338
:1000B0000C94E3030C94E3030C94E3030C94E30328
:1000C0000C94E3030C94E3030C94E3030C94E30318
:1000D0000C94E3030C94E3030C94E3030C94E30308
:1000E0000C94E3030C94D4010C9406060C941006B3
:1000F0000C9499140C9414060C94E7050C94A40425
:100100000C946F140C9435230C94B8040C94A9141B
:100110000C94F8050C9412030C9468040C94FC05E0
:100120000C9479140C9495040C9462320C949208FB
:100130000C94EB050C9483030C94D1050C94C61419
:100140000C941E060C9418060C940E140C94E305E3
:100150000C94F2050C9402060C94C6040C94CC0585
:100160000C9470140C9405160C942C250C940A060F
:100170000C9421030C94EF050C94FB150C94EF02E6
:100180000C94DE250C9427030C944B050C94FE0470
:100190000C9482080C9422060C9408120C94F323FD
:1001A0004163636570743A20746578742F68746D68
:1001B0006C003139322E3136382E302E3134002F4A
:1001C0006F6E6C696E65007C3C3E5E2B3D3F2F5B25
:1001D0005D3B2C2A225C0063825363000108000609
:1001E00004000100504F53542024462048545450DA
:1001F0002F312E300D0A486F73743A2024460D0AB1
:10020000244624534163636570743A202A2F2A0DD3
:100210000A436F6E74656E742D4C656E6774683A30
:100220002024440D0A436F6E74656E742D547970EA
:10023000653A206170706C69636174696F6E2F78C4
:100240002D7777772D666F726D2D75726C656E6385
:100250006F6465640D0A0D0A245300474554202439
:1002600046245320485454502F312E300D0A486FE5
:1002700073743A2024460D0A24460D0A0D0A0045DF
:100280000000820000400020000021002400270020
:100290002A002D0030003300010100000401070195
:1002A0000A0100002200250028002B002E0031004A
:1002B000340002010000050108010B0100000A0BD7
:1002C00002090C0D0E0807030401000000000000E5
:1002D000000000000000000000000000000000001E
:1002E00000000000000000001211100000000000DB
:1002F00000000000000000000000000000000000FE
:100300000000000020002300260029002C002F0000
:100310003200000100000301060109010505050581
:10032000070508080808020202020A0A080804046D
:10033000040401010101010101010303030303039B
:100340000303040707070C0C0C0C0C0C0C0C02022A
:10035000020206060606060606060B0B0B0B0B0B27
:100360000B0B0102102020080810204010204080B4
:100370000201020108040201010204081020408069
:1003800080402010080402018004020180402010F7
:100390000804020108040201010204081020408040
:1003A0000102040810204080CF93DF9300D000D0DA
:1003B00000D01F92CDB7DEB7E0914507F091460718
:1003C000F08010E000E0FF2029F00580F681E02DAC
:1003D000008111810E9479280E946F286C01809110
:1003E000380790913907C816D90608F07EC00E94D8
:1003F000282DD0923907C09238070E94EF2A009129
:100400006007109161071A86198680E06801B1E1E2
:10041000CB0ED11C0FB6F8940F92F801F28CFF208E
:1004200009F41AC1448D4423C1F050E086819781BC
:10043000840F951F978386832481358182179307C4
:1004400020F08081918197838683D80116966D91E3
:100450007C91CE0101960E946437FA94F801F28EE5
:100460008085882339F0C80108960E94CE28811122
:100470000E94292A0F900FBED980D7FCC0CF0C81D3
:100480001D81D8011A968D919C91892B21F0C8016C
:1004900002960E94AA280E946F287C01809138074A
:1004A00090913907E816F90610F40E94282DF09271
:1004B0003907E0923807B9E0BD1508F4A0CFED2D5B
:1004C000DD0CFF0BD80152969C918827E559FD4F12
:1004D0008F4F0C943537EF02EF02EF022703120320
:1004E0002103EF02EF0227031203D0923907C092D3
:1004F0003807FF2099F1C016D106C0F10E94EF2AFB
:10050000E0914507F09146070580F681E02DE680F1
:10051000F780C70102960E94AA28D70152968C91B3
:10052000529782FF17C01C966D917C91600F711FCE
:100530009801A601C7010E948529882321F0B801EE
:10054000C7010E94012DD7015096ED91FC91C70182
:10055000199555CF8E7FF701828BF5CFE091430738
:10056000F09144078081BB24B3948111B12CE090B9
:100570006007F09061070FB6F8940F92F701858D30
:100580008F3F09F4158ED7015E968C915E978F3F51
:1005900011F45E961C920F900FBEF701828D8111AF
:1005A00014C06091FE037091FF03645F7F4FC70129
:1005B00041960E948A28C8018C199D09BB2011F020
:1005C0008FEF9FEF6B2D0E94AF29C7010E940D296D
:1005D0000E94EF2A811113CF0E94292A10CF916027
:1005E000F801928BCA80DB80648575856C0D7D1D5A
:1005F0009601A701C8010E948529882309F4FFCE2E
:10060000D8015096ED91FC91C8011995F8018289A5
:1006100082FFF5CE648575856C0D7D1DC8010E9435
:10062000012DEDCE9160F801928B6A817B817587F7
:1006300064876E0D7F1D9701A701C8010E9485295F
:10064000DECE91FD04C0C8010E94DA30D8CE9E7F74
:10065000D80152969C93D3CE29853A85232B19F441
:100660000F900FBEA9CE811109C08091A2098E837F
:100670008091A0099091A10998878F830F900FBE58
:100680000E9479280FB6F8940F92D8015D968C914C
:100690005D978F3F11F45D961C92F801868D8F3F18
:1006A00009F4168E0F900FBEBE01675F7F4FCE011B
:1006B00006960E943C2881111BC0C8010E947F2819
:1006C000882381F069857A85C6010E940A2AC801BB
:1006D0000E940D290E94EF2A811102C00E94292A3E
:1006E00081E098CEC8010E940D290E94EF2AF8CF20
:1006F000C8010E940D290E94EF2AC8010E947F288C
:10070000882371F359CE80913407811109C08091FB
:10071000A309823010F00E94292A0E946B05F3CFB2
:100720000FB6F8940F92E0917407F0917507C681A7
:10073000D781CE0102960E94AA2880919507815008
:1007400080939507809134078150809334070F90F0
:100750000FBE8F89988D0E94DA30CE010E94DA3068
:10076000D2CF623211241FBECFEFD1E2DEBFCDBFA8
:1007700000E00CBF13E0A0E0B2E0E4E3FFE600E03D
:100780000BBF02C007900D92AE3FB107D9F72AE028
:10079000AEEFB3E001C01D92A13EB207E1F713E056
:1007A000C2EBD3E000E006C021970109802FFE01D3
:1007B0000E943537C13BD10780E00807A9F70E94A6
:1007C000DD320C9498370C940000CF93DF93209186
:1007D0009C092223C1F0FC0120812223A1F0CCE955
:1007E000D9E0A8E9B9E09C012C5F3F4F8991419184
:1007F0009D918427892339F4E217F307B9F781E043
:10080000DF91CF91089580E0FBCF8F929F92AF92BE
:10081000BF92CF92DF92EF92FF92CF93DF93A0919E
:10082000D20A30E081113A2F8091D30A90E0880FEC
:10083000991FAC014E5F5C4FC090D80AD090D90A86
:10084000E090DA0AF090DB0A60E070E0CB01FA0198
:10085000C591D49128812A2323130FC04B015C0139
:100860002FEF821A920AA20AB20A6C157D058E0534
:100870009F0570F060E070E0CB01DF91CF91FF90B9
:10088000EF90DF90CF90BF90AF909F908F900895A2
:10089000C501B401DCCFCF93DF93EC01FB018A30BB
:1008A000910548F06AE070E00E94FF36CB01BF017D
:1008B0000E944B04FC01CE016AE070E00E94FF360A
:1008C000805D80831182CF010196DF91CF910895E1
:1008D000AF92BF92CF92DF92EF92FF920F931F934E
:1008E000CF93DF936C017B018B01040F151FEB018C
:1008F0005E01AE18BF08C017D10759F06991D60143
:10090000ED91FC910190F081E02DC6011995892BA4
:1009100079F7C501DF91CF911F910F91FF90EF9073
:10092000DF90CF90BF90AF900895FC01538D448D20
:10093000252F30E0842F90E0821B930B541710F08A
:10094000CF96089501970895FC01918D828D981797
:1009500061F0A28DAE0FBF2FB11D5D968C91928D6F
:100960009F5F9F73928F90E008958FEF9FEF0895A0
:10097000FC01918D828D981731F0828DE80FF11D69
:10098000858D90E008958FEF9FEF0895FC01918D84
:10099000228D892F90E0805C9F4F821B91098F737D
:1009A0009927089588EC99E00E94C60421E0892BDC
:1009B00009F420E0822F0895FC01A48DA80FB92F1F
:1009C000B11DA35ABF4F2C91848D90E001968F7377
:1009D0009927848FA689B7892C93A089B1898C9196
:1009E000837080648C93938D848D981306C00288E5
:1009F000F389E02D80818F7D80830895EF92FF92AF
:100A00000F931F93CF93DF93EC0181E0888F9B8D31
:100A10008C8D98131AC0E889F989808185FF15C0EB
:100A20009FB7F894EE89FF896083E889F98980810E
:100A30008370806480839FBF81E090E0DF91CF91DD
:100A40001F910F91FF90EF900895F62E0B8D10E0FF
:100A50000F5F1F4F0F731127E02E8C8D8E110CC06E
:100A60000FB607FCFACFE889F989808185FFF5CFB9
:100A7000CE010E94DC04F1CFEB8DEC0FFD2FF11DB8
:100A8000E35AFF4FF0829FB7F8940B8FEA89FB89F6
:100A900080818062CFCFCF93DF93EC01888D882354
:100AA000B9F0AA89BB89E889F9898C9185FD03C0D1
:100AB000808186FD0DC00FB607FCF7CF8C9185FFB6
:100AC000F2CF808185FFEDCFCE010E94DC04E9CF1B
:100AD000DF91CF91089580E090E0892B29F00E946A
:100AE000D20481110E94000080E090E0892B49F03F
:100AF00080E090E0892B29F00E94000081110E9483
:100B0000000080E090E0892B49F080E090E0892BA4
:100B100029F00E94000081110E94000080E090E016
:100B2000892B49F080E090E0892B29F00E94000099
:100B300081110C9400000895282F30E0F901E4544D
:100B4000FD4F9491F901EE59FC4F4491245E3C4FC6
:100B5000F9012491222309F435C0992311F1915010
:100B60009231F8F4E92FF0E08827E654FA4F8F4FDE
:100B70000C943537EB05EF05CC05E305E705D1050A
:100B8000F205F805FC05020606060A06100614061C
:100B9000D10518061E062206809180008F7780936B
:100BA0008000E22FF0E0EE0FFF1FEE55FD4FA59104
:100BB000B4918FB7F894EC91611148C040954E23E1
:100BC0004C938FBF0895809180008F7DE8CF8091F6
:100BD0008000877FE4CF84B58F7784BDE2CF84B572
:100BE0008F7DFBCF8091B0008F778093B000D9CFFD
:100BF0008091B0008F7DF9CF809190008F778093A6
:100C00009000CFCF809190008F7DF9CF80919000A0
:100C1000877FF5CF8091A0008F778093A000C1CF10
:100C20008091A0008F7DF9CF8091A000877FF5CFC4
:100C3000809120018F7780932001B3CF8091200194
:100C40008F7DF9CF80912001877FF5CF4E2BB8CFD4
:100C5000CF93DF9390E0FC01EE59FC4F2491845E2A
:100C60009C4FFC0184918823C9F090E0880F991F64
:100C7000FC01E857FD4FA591B491FC01EE55FD4FE5
:100C8000C591D49161110DC09FB7F8948C912095B6
:100C900082238C938881282328839FBFDF91CF9163
:100CA0000895623051F49FB7F8943C91822F80955B
:100CB00083238C93E8812E2BEFCF8FB7F894EC91A0
:100CC0002E2B2C938FBFEACF3FB7F89480913F072C
:100CD00090914007A0914107B091420726B5A89B8B
:100CE00005C02F3F19F00196A11DB11D3FBFBA2FBE
:100CF000A92F982F8827BC01CD01620F711D811D7E
:100D0000911D42E0660F771F881F991F4A95D1F702
:100D100008958F929F92AF92BF92CF92DF92EF92FF
:100D2000FF924B015C010E9464066B017C010E94F2
:100D300064066C197D098E099F09683E7340810520
:100D40009105A8F321E0821A9108A108B10888EE64
:100D5000C80E83E0D81EE11CF11C81149104A1048B
:100D6000B10429F7FF90EF90DF90CF90BF90AF9044
:100D70009F908F9008952FB7F89460913B077091E2
:100D80003C0780913D0790913E072FBF0895CF9279
:100D9000DF92EF92FF920F931F93CF93DF93CDB724
:100DA000DEB7C054D1400FB6F894DEBF0FBECDBF42
:100DB0000E94BB060091D40A1091D50A2091D60A50
:100DC0003091D70A6B017C01C01AD10AE20AF30AFA
:100DD00097018601003D17402105310590F480916F
:100DE000DC0AC05CDE4F0FB6F894DEBF0FBECDBF8D
:100DF000DF91CF911F910F91FF90EF90DF90CF90F7
:100E000008956093D40A7093D50A8093D60A90937C
:100E1000D70A1092CF0A1092CE0A1092CD0A1092E1
:100E2000CC0A1092CB0A61E08091D00A0E949C0506
:100E30006AEF70E080E090E00E94890661E08091B6
:100E4000D00A0E94280660E08091D00A0E949C058A
:100E500064E170E080E090E00E948906F89461E02F
:100E60008091D00A0E949C058BE990E00197F1F7F0
:100E700062E08091D00A0E94280683E290E0019708
:100E8000F1F780E00E940504672B682B692B29F499
:100E90001092DC0A789480E0A4CF81E00E940504DF
:100EA000672B682B692BA1F38E010F5F1F4F6E011B
:100EB0008FEBC81A8EEFD80A780180E00E940504F3
:100EC000F701608371838283938381E00E9405042C
:100ED000F7016483758386839783F8E0EF0EF11C36
:100EE000EC14FD0451F7789430E020E0F801C08064
:100EF000D180E280F3804481558166817781C1147D
:100F0000D104E104F10429F0411551056105710591
:100F100019F41092DC0ABFCFF90183E0F595E7954B
:100F20008A95E1F7E553F54F8081880FC416D50601
:100F3000E606F70610F180832F5F3F4F085F1F4FD3
:100F40002832310599F64091CF0A2091CB0A809141
:100F5000CC0A280F3327331F8091CD0A280F311D6B
:100F60008091CE0A820F932F911D99274817190659
:100F700081F681E08093DC0A34CF8160DCCFE091A0
:100F80006407F09165078081811107C08FEF9FEFA3
:100F900090935C0780935B070895E0916407F0915C
:100FA00065070580F681E02D0680F781E02D8281BE
:100FB0009381EECF809170049091710498278927D6
:100FC0009827449720918E0430E044E0359527958A
:100FD0004A95E1F7220F331F220F331F821B930B19
:100FE00097FF02C090E080E0089520918404309142
:100FF00082043093840420938204209185043091EC
:1010000083043093850420938304E0E6F4E021A573
:10101000820F911D25A585A7662381F021A7892F21
:101020009927319724E0EC35F20789F71092920462
:101030001092930480E580938E04089511A6EFCF5B
:101040000F931F93CF93DF9370E0605A7B4F8A0119
:10105000075F1F4F213029F0223031F48A010250FE
:10106000110930E020E003C000E010E09801EB013E
:10107000FA01E230F10558F0A991B991BA27AB27EE
:10108000BA270A0F1B1F211D311D3297F2CFFA011B
:10109000EE7F6E0F7F1F4E175F0769F0FB014081E7
:1010A00050E070E060E0762F652F542F4427040F46
:1010B000151F261F371FA9016627772741155105E0
:1010C0006105710519F022273327F1CF009510959E
:1010D000E82FF0E0E05AFB4F10830183DF91CF91BE
:1010E0001F910F910895E0E6F4E0108E118E80E4D8
:1010F000848B158A868B20E044E150E06EE088E125
:101100000C942008DC011696ED91FC9117979F0135
:101110002F5F3F4F17963C932E931697608381E085
:1011200090E0089590E080E008958EBD0DB407FE34
:10113000FDCF089561E0809130040E949C05789471
:101140000895F89460E0809130040C949C050F930E
:101150001F93CF93DF93EC018B010E94A10820978E
:10116000B9F08AE30E9495081EBCF801CE010197F0
:1011700039F00DB407FEFDCF2EB51EBC2193F7CF7D
:101180002197C00FD11F0DB407FEFDCF8EB5888308
:10119000DF91CF911F910F910C949A081F93CF93D9
:1011A000DF93182FC62FD42F0E94A1088C2F8F7188
:1011B000812B0E9495088D2F0E949508DF91CF9179
:1011C0001F910C949A08CF93C82FC0768091310458
:1011D0008C1799F043E06FE180EA0E94CE08C0933B
:1011E00031044C2F50E085E0559547958A95E1F7FD
:1011F0006FE180E8CF910C94CE08CF910895CF9302
:10120000DF93C82FD62F0E94E3084D2F6C2F80E468
:10121000DF91CF910C94CE08CF93DF93C82FD72FB7
:101220000E94FF086D2F81E08C0FDF91CF910C940D
:10123000FF08CF93C82F0E94E3080E94A1088C2FBB
:101240008F710E94950880E00E949508C7FF03C037
:1012500080E00E949508CEB50E949A088C2FCF910D
:1012600008950F931F93CF93DF9300D000D0CDB795
:10127000DEB780913604882379F060913404709150
:1012800035046115710509F053C06FEF7BE08CE008
:101290000E940C091092360489E30E94190910E09B
:1012A00000E08823C9F1609134047091350480E036
:1012B0000E940C09BE016F5F7F4F86E090E00E94A4
:1012C000A70889819A8190933504809334048D8195
:1012D0009E818C010078112787FF12C08B819C8131
:1012E00004970091320410913304015011098017C2
:1012F000910708F48C0160E674E0C8010E94A70819
:10130000F801E05AFB4F108281E08093360440E4FC
:101310006EE180E80E94CE08C80126960FB6F894C8
:10132000DEBF0FBECDBFDF91CF911F910F9108950A
:1013300061507109ACCFCF93DF93EC0140E86FE1CE
:1013400080E80E94CE0840E86FE180EA0E94CE0863
:101350004AE06CE180EA0E94CE0860E07CE082E036
:101360000E940C09BE01745F86E00E940C0940E0F7
:1013700060E08AE70E94CE080E94A1082097B1F0A1
:101380008AE70E949508809160048EBDE1E6F4E052
:10139000C05ADB4FEC17FD0731F081910DB407FE09
:1013A000FDCF8EBDF7CF0DB407FEFDCF0E949A088A
:1013B00048E06FE180E80E94CE08D0E0C0E08CE118
:1013C0000E9419098A7029F42196C83E83E0D80743
:1013D000B1F78CE10E94190981FD03C0C83ED340DA
:1013E00039F448E06FE180EADF91CF910C94CE08A8
:1013F000DF91CF9108950F931F93CF93DF93EC016B
:1014000000E614E04C96F801908B818B0E947308E3
:10141000CE010896F80196A387A3AE01405F5F4F07
:1014200021E06AE188E20E942008CE018A96DF91DD
:10143000CF911F910F910C949B090F931F93CF9302
:10144000DF938C018896C0E6D4E0988B898B0E944C
:1014500073081AAA1BAAA801445E5F4F22E06AE142
:1014600082E30E942008C801C696DF91CF911F91A8
:101470000F910C949B0961E184ED0E94FF0861E0EB
:1014800082ED0E94FF088AEE0E94190980FDFBCFC1
:1014900060E082ED0E94FF0889ED0E94190982FB3D
:1014A000882780F90895CF93DF93EB01682F84EDAF
:1014B0000E94FF08BE0186ED0E940C098AEE0E9480
:1014C000190980FDFBCFDF91CF910895CF92DF9274
:1014D000EF92FF920F931F938634910568F120914C
:1014E0008304233449F5C0908E04D0908F04E0909B
:1014F0009004F090910400911F0410912004209119
:10150000210430912204C016D106E206F306A1F4AC
:10151000EAE7F5E0805A9B4F9F012E5F3F4F4181E4
:101520005081553319F45281651771F0F901E40FB8
:10153000F11DE817F90780F380E01F910F91FF90EC
:10154000EF90DF90CF90089581E0F7CFE0911804FD
:10155000F09119049F012F5F3F4F3093190420939E
:10156000180480830895FF920F931F93CF93DF9306
:10157000162FF42E052F0E94A60A812F0E94A60A7C
:10158000CF2DD02F115020F089910E94A60AFACFBA
:10159000DF91CF911F910F91FF9008958FB7F8942D
:1015A000809112048FBF089561E0FC0184810E9444
:1015B0009C058091110481111092110408958EBD33
:1015C00000000DB407FEFDCF8EB508958FEF0C948B
:1015D000DF0A0F931F93CF93DF93EC010E94BB06AA
:1015E0008B010E94E60A8F3F69F00E94BB06601BD8
:1015F000710B6C177D07A8F380E0DF91CF911F91ED
:101600000F91089581E0F9CF8CBD9DBD0895CF93D2
:10161000DF93EC0180911104811109C081E0809376
:1016200011048091650A9091660A0E94040B60E0A3
:101630008C81DF91CF910C949C058F929F92AF92F9
:10164000BF92FF920F931F93CF93DF93EC01F62E7F
:1016500049015A018E81882389F08F8198859C01E8
:101660002F5F3F4F38872F838230924018F40E94BB
:10167000E60AF3CFCE010E94D40A1E82CE010E9458
:10168000070B8CE291E00E94E90A8F2D80640E9492
:10169000DF0A08E110E0D501C401002E04C0B695B0
:1016A000A795979587950A94D2F70E94DF0A08506C
:1016B0001109083F8FEF180771F785E9FF2021F026
:1016C00028E087E8F2128FEF0E94DF0A10E00E9404
:1016D000E60A8A8787FF04C01F3F11F01F5FF7CF1C
:1016E000DF91CF911F910F91FF90BF90AF909F908E
:1016F0008F900895AF92BF92CF92DF92EF92FF92B8
:101700000F931F93CF93DF93EC016901C801820F00
:10171000931F8130924050F58E81882379F0888123
:101720009981AA81BB8184179507A607B70731F471
:101730008F819885C816D90608F042C0488359831E
:101740006A837B838B85833039F089E0440F551F92
:10175000661F771F8A95D1F79A01AB0161E1CE012F
:101760000E941D0B882389F083E08D83CE010E94A7
:10177000D40A80E0DF91CF911F910F91FF90EF90FD
:10178000DF90CF90BF90AF9008950E94BB065B01A1
:101790000E94E60A8A878F3F69F40E94BB066A1995
:1017A0007B096D327140A0F38FE08D83CE010E94E2
:1017B000D40ADCCF8E3F89F418861F8281E08E83A5
:1017C0008F8198858C159D0550F40E94E60A8F81C3
:1017D0009885019698878F83F3CF8DE0E6CF6701D8
:1017E000E00EF11E0E94E60AF60181936F01EE15EC
:1017F000FF05C1F78F819885080F191F18870F8380
:101800008985882319F001151240A0F08E81882364
:1018100089F08F8198859C012F5F3F4F38872F83F8
:101820008230924018F40E94E60AF3CFCE010E9463
:10183000D40A1E8281E09ECFCF92DF92EF92FF9278
:101840000F93CF93DF93EC01690182E141155105BC
:101850006105710599F08B85833039F089E0440F7B
:10186000551F661F771F8A95D1F79A01AB0168E172
:10187000CE010E941D0B882319F084E08D832DC0BA
:101880008EEF0E94DF0A76018EEFD81AF701819160
:101890007F010E94DF0AEC14FD04C1F78FEF0E9464
:1018A000DF0A8FEF0E94DF0A0E94E60A8A878F71A3
:1018B000853071F4011116C0CE010E94D40A81E076
:1018C000DF91CF910F91FF90EF90DF90CF9008952F
:1018D00081E18D83CE010E94D40ACE010E94D40AF8
:1018E00080E0EECF88E592E00E94E90A811102C013
:1018F00085E1C4CF20E030E0A9016DE0CE010E9477
:101900001D0B882311F084E1B9CF0E94E60A8111F2
:10191000FACFD2CF0F9340911404509115046091E7
:10192000160470911704411551056105710599F070
:10193000082F26E937E080919609909197090E9437
:101940001C0C882349F01092140410921504109274
:1019500016041092170481E00F9108950F93CF930E
:10196000C82F80911304811105C0C1E08C2FCF9145
:101970000F9108954091060250910702609108026C
:10198000709109020C2F26E937E080919609909119
:1019900097090E941C0C811102C0C0E0E7CFCC2344
:1019A00021F381E00E948A0C8823B9F3109213047A
:1019B000DDCF8F929F92AF92BF92EF92FF920F93E3
:1019C0001F93CF934B015C01C42F8091060290912D
:1019D0000702A0910802B091090288159905AA058D
:1019E000BB0551F181E00E94AE0C81110BC080E07B
:1019F000CF911F910F91FF90EF90BF90AF909F906C
:101A00008F90089586E9E82E87E0F82E00E012E036
:101A100030E020E0B501A4018091960990919709EA
:101A20000E947A0B882319F3809206029092070293
:101A3000A0920802B0920902409113044C2B4093EB
:101A4000130481E0D5CF8F929F92AF92BF92CF9235
:101A5000DF92EF92FF92CF9327E63AE03093970917
:101A600020939609882309F46DC040E060E070E09F
:101A7000CB010E94D90C81110BC080E0CF91FF9067
:101A8000EF90DF90CF90BF90AF909F908F90089590
:101A9000809154098F7789F780916009909161094D
:101AA000A0916209B091630984369105A105B10541
:101AB00020F3C0905C09D0905D09E0905E09F09041
:101AC0005F09C114D104E104F104B9F240E0C70197
:101AD000B6010E94D90C882381F28091A1079091D0
:101AE000A2078115924049F6A091A607AA2329F2E0
:101AF0006091A4077091A5076115710509F4BDCF28
:101B00002091A307222309F4B8CFA093850A20933C
:101B1000770A90E080E030E0E1E0F0E0C82FAF012C
:101B2000082E02C0440F551F0A94E2F72417350708
:101B300069F041E0480F01968930910579F74093AB
:101B4000800A9BCFC12CD12C7601C0CF8093800A14
:101B50002091AC073091AD0750E040E021153105F0
:101B600041F42091BA073091BB074091BC075091D6
:101B7000BD072093780A3093790A40937A0A5093EC
:101B80007B0A46015701860E971EA11CB11C80924C
:101B9000860A9092870AA092880AB092890AE091F8
:101BA000A707F091A807F0938C0AE0938B0AB0E0A6
:101BB0000E943D37DC01CB01880D991DAA1DBB1D7C
:101BC00080938D0A90938E0AA0938F0AB093900A07
:101BD00025E0EE0FFF1F2A95E1F7E150FE4FEF2FB2
:101BE000FF27E6958E0F9F1FA11DB11D8093810ACF
:101BF0009093820AA093830AB093840A8090A907E5
:101C00009090AA07B12CA12C8114910441F48090EA
:101C1000B6079090B707A090B807B090B907C81A58
:101C2000D90AEA0AFB0AC80CD91CEA1CFB1C04C02E
:101C3000F694E794D794C794CA95D2F7C0927C0AD9
:101C4000D0927D0AE0927E0AF0927F0A85EFC81654
:101C50008FE0D806E104F10428F48CE080938A0A2E
:101C600081E00CCF80E125EFC2162FEFD206E10410
:101C7000F104A0F38091C2079091C307A091C4071B
:101C8000B091C50780938D0A90938E0AA0938F0A16
:101C9000B093900A80E2E2CF4F925F926F927F9270
:101CA0008F929F92AF92BF92CF92DF92EF92FF926C
:101CB0000F931F93CF93DF93EC01423051056105E1
:101CC000710590F480E0DF91CF911F910F91FF900B
:101CD000EF90DF90CF90BF90AF909F908F907F90CC
:101CE0006F905F904F90089589859A85AB85BC85EC
:101CF0000196A11DB11D84179507A607B70710F31C
:101D0000CB88DC88ED88FE888F89803109F042C05D
:101D1000BB27A72F962F852F480159012A013B0188
:101D2000C80ED91EEA1EFB1E809106029091070282
:101D3000A0910802B0910902C816D906EA06FB066E
:101D400099F58F898031C1F5B301A2015527662726
:101D50007727440F551F4A56584FFA0191828082C7
:101D6000809113048160809313048A89823080F00B
:101D70008D819E81AF81B8858C0D9D1DAE1DBF1DCF
:101D80008093140490931504A0931604B093170441
:101D900081E099CFDB01CA01E7E0B695A795979559
:101DA0008795EA95D1F7B8CF40E0C701B6010E9408
:101DB000D90C8111C6CF86CFB301A2014F77552729
:101DC00066277727440F551F440F551F4A56584F13
:101DD000FA0180829182A282B382C2CF8F929F92B7
:101DE000AF92BF92CF92DF92EF92FF920F931F9329
:101DF000CF93DF93FC0181859285A385B4850196FD
:101E0000A11DB11D84179507A607B70770F480E0E0
:101E1000DF91CF911F910F91FF90EF90DF90CF90C6
:101E2000BF90AF909F908F90089583889488A588E5
:101E3000B6888789803189F5BB27A72F962F852FF4
:101E4000E9016A017B018F01BC01CD01680D791D9B
:101E50008A1D9B1D8090060290900702A0900802A8
:101E6000B090090286169706A806B90601F5F80192
:101E70008789803111F5DD24EE24FF24F601EE0F71
:101E8000FF1FEA56F84F80819181B0E0A0E088837F
:101E90009983AA83BB8381E0BBCFDB01CA01C7E082
:101EA000B695A79597958795CA95D1F7C9CF40E084
:101EB0000E94D90C8111DBCFAACFE894C7F8DD24AA
:101EC000EE24FF24F601EE0FFF1FEE0FFF1FEA5670
:101ED000F84F80819181A281B381BF70D8CF4F929A
:101EE0005F926F927F92AF92BF92CF92DF92EF920A
:101EF000FF920F931F93CF93DF9300D01F92CDB724
:101F0000DEB78C0149835A836B837C835901C12CD2
:101F1000D12C7601412C82E0582E612C712C498104
:101F20005A816B817C819E012F5F3F4FC8010E94C7
:101F3000EE0E882339F1F8018585A301920104C0D2
:101F4000220F331F441F551F8A95D2F7DA01C901AA
:101F5000C80ED91EEA1EFB1E49815A816B817C8105
:101F60008789803111F188EF9FEFAFEFBFE048170D
:101F700059076A077B0798F2F501C082D182E28295
:101F8000F38281E00F900F900F900F90DF91CF912F
:101F90001F910F91FF90EF90DF90CF90BF90AF9087
:101FA0007F906F905F904F90089588EF9FEFA0E033
:101FB000B0E0DDCFCF93DF93FC012581222321F018
:101FC00080E0DF91CF910895EC0180918A0A803101
:101FD00059F582E08583178A108E118E128E8091BA
:101FE0008B0A90918C0AB0E0A0E025E0880F991F41
:101FF000AA1FBB1F2A95D1F7838B948BA58BB68B19
:1020000083E79AE09C8F8B8F81E08C831E821F82F6
:10201000188619861A861B861C861D861E861F86B4
:10202000188A198A1A8ACDCF803251F683E08583C7
:1020300040918D0A50918E0A60918F0A7091900A9A
:10204000478B508F618F728F9F012D5E3F4F83E7CB
:102050009AE00E946F0F8111D3CFB2CF8F929F92DF
:10206000AF92BF92CF92DF92EF92FF920F931F93A6
:10207000CF93DF93EC018D8181110EC080E0DF9161
:10208000CF911F910F91FF90EF90DF90CF90BF9075
:10209000AF909F908F9008950B891C892D893E8960
:1020A000041715072607370748F34A015B018230FA
:1020B00031F48A869B86AC86BD8681E0E0CF8114B0
:1020C0009104A104B10449F41E821F821886198666
:1020D0001A861B861C861D86F0CF0A851B852C85DB
:1020E0003D85EB8DFC8D858590E00996B901A801B1
:1020F0004150510961097109082E04C07695679510
:10210000579547950A94D2F775016401E1E0CE1A1C
:10211000D108E108F10804C0F694E794D794C79475
:102120008A95D2F7C416D506E606F70620F0012BED
:10213000022B032B11F58F89988DA98DBA8D8E8373
:102140009F83A887B9878E010A5F1F4FC114D104EE
:10215000E104F10409F4ADCF4E815F816885798592
:1021600098018B8D9C8D0E94EE0E91E0C91AD108CA
:10217000E108F1088111EACF81CFC41AD50AE60A35
:10218000F70AE1CF3F924F925F926F927F928F92C8
:102190009F92AF92BF92CF92DF92EF92FF920F93F6
:1021A0001F93CF93DF93CDB7DEB72C970FB6F8947C
:1021B000DEBF0FBECDBF5C01DC015B968D909C90B5
:1021C0005C9716964D905D906D907C901997411498
:1021D00051046104710409F468C0BFEF4B1A5B0A33
:1021E0006B0A7B0A312CF40181859285A385B48525
:1021F0009C01AD012F5F3F4F4F4F5F4F29873A87BB
:102200004B875C87730162011D821E821F821886C4
:10221000F40181859285A385B4852D813E814F810E
:102220005885281739074A075B0708F056C0898583
:102230009A85AB85BC858C159D05AE05BF0550F410
:1022400082E0C82ED12CE12CF12C92E0492E512CA9
:10225000612C712C9E012F5F3F4FB701A601C40175
:102260000E94EE0E8823C9F189819A81AB81BC81DD
:10227000892B8A2B8B2B09F1260137019FEF491AF5
:10228000590A690A790A2D813E814F8158852F5F4D
:102290003F4F4F4F5F4F2D833E834F8358873FEF14
:1022A000C31AD30AE30AF30AB3CFF4014080518082
:1022B000628073803324339496CFC414D504E6042B
:1022C000F70409F70FEF1FEF2FEF3FE0B701A6016B
:1022D000C4010E944C0E811119C080E02C960FB6EB
:1022E000F894DEBF0FBECDBFDF91CF911F910F914C
:1022F000FF90EF90DF90CF90BF90AF909F908F9026
:102300007F906F905F904F903F900895D501169603
:102310004D915D916D917C91199741155105610524
:10232000710539F097018601C4010E944C0E882383
:10233000A1F2D5011696CD92DD92ED92FC921997FD
:10234000332051F0D701C6010196A11DB11DF40142
:1023500080839183A283B383F5018789908DA18DBA
:10236000B28D892B8A2B8B2B39F48481C78AD08E2E
:10237000E18EF28E80688483F5018481806284839B
:1023800081E0ACCF1F93CF93DF93FC012581222303
:10239000D1F1162FEC01848187FF2AC066857785ED
:1023A0008089918941E00E94D90C882361F1EA89F2
:1023B00080E2E89FF0011124EA56F84F309719F1B6
:1023C0008D81823040F48B899C89AD89BE89848F50
:1023D000958FA68FB78F8F89988D938F828F8F89D6
:1023E000988DA98DBA8DB58BA48B8C818F778C83BA
:1023F000111103C08C818F7E8C83812FDF91CF914F
:102400001F910C94AE0C80E0DF91CF911F91089545
:10241000FF920F931F93CF93DF93EC018D81813057
:1024200041F090E080E0DF91CF911F910F91FF90FC
:1024300008958C8181FFF5CF82FD1BC00091960924
:1024400010919709C8010E94070B0E94E60AF82E16
:10245000C8010E94D40A8FEFF812E3CF8C8185FF68
:102460001BC060E0CE010E94C2118C818F7D8C83E5
:10247000D8CF4B895C896D897E898A859B85AC859F
:10248000BD8584179507A607B707C1F2CE010E9444
:102490002E108111D3CFC5CF409114045091150453
:1024A0006091160470911704452B462B472B21F0A1
:1024B00080E00E948A0CB5CF80618C832A853B85A1
:1024C000317080E092E0821B930BADCFCF93DF930E
:1024D000EC0161E00E94C211882311F01D8281E0AD
:1024E000DF91CF9108952F923F924F925F926F921A
:1024F0007F928F929F92AF92BF92CF92DF92EF9294
:10250000FF920F931F93CF93DF9300D01F921F92E0
:10251000CDB7DEB77C015B01342E5D83DC011596FF
:102520008C911597813009F0CEC014962C9021FE25
:10253000CAC022FCB4C0C32CDD8022947FE02722D5
:102540002094B22DB1702B2ED7011A964D915D912A
:102550006D917C911D97C114D10409F428C15B963B
:102560008D919C915C97FC0174807A948A019B0107
:1025700069E036952795179507956A95D1F77022EA
:102580008A011170711020C001151105E9F4169629
:102590004D915D916D917C911997411551056105A2
:1025A000710509F099C057968D919D910D90BC9140
:1025B000A02D0097A105B10509F0B0C0C7010E9488
:1025C000C210882309F47FC080E092E0801B910B49
:1025D00046018C159D0508F44C01D7015B964D9181
:1025E0005C915C9716968D919D910D90BC91A02D5C
:1025F0000297A109B109FA01258504C0880F991F26
:10260000AA1FBB1F2A95D2F7468557856089718915
:10261000840F951FA61FB71F9C01AD01270D311D0B
:10262000411D511D29013A01811432E0930609F040
:102630007BC08091060290910702A0910802B091A0
:10264000090284159505A605B70559F48FEF9FEF8C
:10265000DC018093060290930702A0930802B093D6
:102660000902022D9501B301A20180919609909172
:1026700097090E941C0C882331F19EEFB91AC818E3
:10268000D908F70182859385A485B585880D991DA4
:10269000A11DB11D82879387A487B58755CFF70108
:1026A000438954896589768982859385A485B58512
:1026B000481759076A077B0709F43DCFC7010E94F5
:1026C0002E10811138CF81E090E0D70113969C93B2
:1026D0008E93129780E007C09E012F5F3F4F0E94AC
:1026E000EE0E811102C090E079C089819A81AB81A0
:1026F000BC81F701238D348DF901278948EF5FEF05
:1027000060E070E0203121F048EF5FEF6FEF7FE095
:1027100084179507A607B70708F050CFF7018683FF
:102720009783A087B18750CF0115110599F5D7017F
:102730001A964D915D916D917C911D9753968D9157
:102740009D910D90BC91A02D481759076A077B07F2
:1027500008F181E00E94AE0C882309F4B4CF4092C6
:10276000060250920702609208027092090280915C
:102770001304816080931304C8018A56984FD501D1
:102780009C01280D391DFC012E173F0759F04D9172
:102790004193FACF41E0C301B2010E94D90C8111EB
:1027A000EBCF91CF281B390BA20EB31E68CFF701D8
:1027B00083899489A589B68984179507A607B707E1
:1027C00038F48481438B548B658B768B806884834B
:1027D000F701848183FD1AC0832D9D810F900F9096
:1027E0000F900F900F90DF91CF911F910F91FF905D
:1027F000EF90DF90CF90BF90AF909F908F907F90A1
:102800006F905F904F903F902F90089561E0C701C7
:102810000E94C211882309F456CFDECFCF93DF93F5
:102820001F92CDB7DEB7698341E050E0BE016F5F14
:102830007F4F0E9473120F90DF91CF910895FC019A
:10284000DB0112968D919C9113979383828380E68E
:1028500092E09183808314968C91149784831596CB
:102860008C911597858316964D915D916D917C9114
:10287000199746835783608771871A964D915D91AA
:102880006D917C911D9742875387648775871E964B
:102890004D915D916D917C91519746875787608BE3
:1028A000718B52968C915297828B53964D915D917C
:1028B0006D917C915697438B548B658B768B579695
:1028C0004D915D916D917C915A97478B508F618F9F
:1028D000728F5B968D919C91948F838F089508954C
:1028E000FC01818D928D009719F061E00C94C2116A
:1028F0000895DC015996ED91FC913097B9F08389E8
:102900009489A589B6894285538564857585841B1C
:10291000950BA60BB70B811520E89207A105B10511
:1029200038F08FEF9FE7A0E0B0E0089590E080E0FE
:102930000895DC0159968D919C91009739F0DC0146
:10294000ED91FC910480F581E02D199490E080E0F8
:102950000895CF93DF93EC01E98DFA8D309749F418
:1029600081E090E09B838A8390E080E0DF91CF91CB
:10297000089513821282898D9A8D0E947312E98DB7
:10298000FA8D22813381232B59F7F0CFCF93DF9338
:102990001F92CDB7DEB76983DC01ED91FC91028017
:1029A000F381E02D41E050E0BE016F5F7F4F19954C
:1029B0000F90DF91CF9108952F923F924F925F92A7
:1029C0006F927F928F929F92AF92BF92CF92DF923F
:1029D000EF92FF920F931F93CF93DF9300D0CDB769
:1029E000DEB7FC018581811118C08FEF9FEF0F903A
:1029F0000F900F90DF91CF911F910F91FF90EF906B
:102A0000DF90CF90BF90AF909F908F907F906F900E
:102A10005F904F903F902F900895848180FFE5CF85
:102A2000438954896589768982859385A485B5858E
:102A3000312C212C481759076A077B0719F02224EB
:102A40002394312C6F012101CE0101963C01DF015D
:102A50001696BB83AA834114510409F4C5C0F6013C
:102A600042855385648575854A01F1E09F22D60130
:102A70005B968D919C915C978A019B01E9E036956C
:102A8000279517950795EA95D1F71596EC91E230C1
:102A9000E9F5FC01628D738D848D958D600F711F3A
:102AA000821F931FA12C22E0B22EA818B9084A1445
:102AB0005B0408F45201F601248126FD04C0A11430
:102AC000F2E0BF0671F40091060210910702209116
:102AD000080230910902061717072807390709F07D
:102AE0005EC040E00E94D90C882309F47ECFC40167
:102AF0008A56984FD3019C012A0D3B1DFC012E17CD
:102B00003F0709F46CC041914D93F9CFDC01149655
:102B1000BC90BA94B0228114910479F4B1100DC024
:102B2000452B462B472B69F5F6018789908DA18DA2
:102B3000B28D86839783A087B187D6015B96ED918E
:102B4000FC915C9716966D917D918D919C91199752
:102B50006250710981099109258504C0660F771FAC
:102B6000881F991F2A95D2F70685178520893189F4
:102B7000600F711F821F931F6B0D711D811D911DB1
:102B800091CFD60116964D915D916D917C911997DB
:102B90002A813B810E94EE0E8111CFCF26CF730197
:102BA00085019401AB01BC01809196099091970930
:102BB0000E947A0B882309F418CF6A0C7B1CF6015B
:102BC00082859385A485B5858A0D9B1DA11DB11DA8
:102BD00082879387A487B5874A185B083CCF281B58
:102BE000390B620E731EEBCF2A94232809F0FDCE19
:102BF000898190E0FCCEFC01818D928D009711F0CF
:102C00000C94DC148FEF9FEF08950F931F93CF93D5
:102C1000DF93EC01898D9A8D10E000E0009799F028
:102C20000E94DC148C010F3F100769F0898D9A8D8A
:102C3000FC014285538564857585415051096109C0
:102C400071090E942E10C801DF91CF911F910F9141
:102C50000895DC0196E0FB0101900D929A95E1F751
:102C60000895BC0180E694E00E94291664E474E0B3
:102C700086E694E00C942916DC0194E0FB010190B7
:102C80000D929A95E1F7089586E694E00E94311638
:102C90006AE774E08EE794E00E943C166CE979E004
:102CA0008AE794E00E943C160C947308262F20615A
:102CB00020938F04643021F0009711F481E090E0BC
:102CC00061E00E94F5071092700488E2809371041D
:102CD0000E94441684E0809390041092910422E0B4
:102CE0004CE150E06AE182E30E94200886E390E034
:102CF0000C949B09CF93DF93EB010E943116BE0128
:102D00008EE794E00E943C166CE979E08AE794E053
:102D1000DF91CF910C943C16CF92DF92EF92FF920D
:102D20001F93CF93DF93EC0180E2689FF0011124A1
:102D3000EA56F84F9385917161F0842F827449F0BF
:102D400080E0DF91CF911F91FF90EF90DF90CF90C7
:102D50000895142F6A8B8091060290910702A0912A
:102D60000802B09109028E879F87A88BB98BC4880F
:102D7000D588F12CE12C7601DD24CC24CF8AD88EA5
:102D8000E98EFA8E828D938DB0E0A0E0AC01BD019A
:102D90004C295D296E297F294F8B588F698F7A8F37
:102DA00083858871B1F4848D958DA68DB78D8B8BBD
:102DB0009C8BAD8BBE8B81E08D831F701C831E822C
:102DC0001F82188619861A861B861C861D8681E03E
:102DD000B8CF803109F0B4CF9E012D5E3F4F8B8D6F
:102DE0009C8D0E946F0F882309F4AACF84E0E4CF62
:102DF000FB0101900020E9F73197AF01461B570B0B
:102E0000DC01ED91FC910280F381E02D19948F9209
:102E10009F92AF92BF92EF92FF920F931F93CF9327
:102E2000DF93CDB7DEB7A1970FB6F894DEBF0FBE24
:102E3000CDBF7C01FA01CB0119A2223008F42AE0AF
:102E40008E010F5D1F4F822E912CB12CA12CBF0142
:102E5000A50194010E941337F901CA016A300CF5EB
:102E6000605DD8016E938D01232B242B252B79F7E0
:102E700090E080E0109721F0BD01C7010E94F81694
:102E8000A1960FB6F894DEBF0FBECDBFDF91CF91F4
:102E90001F910F91FF90EF90BF90AF909F908F90F8
:102EA0000895695CDECF0F931F93CF93DF93EC01FE
:102EB0000E94F8168C016AE772E0CE010E94F816B3
:102EC000800F911FDF91CF911F910F9108950C9466
:102ED000F8160F931F93CF93DF93D62FC72FBC0104
:102EE00088EC99E00E9467170D2F1C2FC0E0F801B5
:102EF00041918F0150E070E060E02AE088EC99E0B9
:102F00000E940717C33029F06EE288EC99E00E9416
:102F1000FE04CF5FC43059F76AE772E088EC99E0AD
:102F2000DF91CF911F910F910C94F816CF93DF93FF
:102F3000EB0144E050E0BC018CE794E00E9457377D
:102F4000892B49F466E774E0CE010E94291681E0DE
:102F5000DF91CF91089580E0FBCF3F924F925F9237
:102F60006F927F928F929F92AF92BF92CF92DF9299
:102F7000EF92FF920F931F93CF93DF9300D000D077
:102F800000D01F921F92CDB7DEB77C01FE013196B3
:102F9000CE010C966F0130E23193E817F907E1F7A3
:102FA000DA0130E087E09D91B92E992309F43CC005
:102FB0009E32F1F48A30C9F480E02B960FB6F89473
:102FC000DEBF0FBECDBFDF91CF911F910F91FF905C
:102FD000EF90DF90CF90BF90AF909F908F907F90B9
:102FE0006F905F904F903F90089538E08AE0DBCF7C
:102FF000E7ECF1E04491442321F031969413FACFA9
:10300000DBCF8317C8F24FED490F4E35A8F64FE9D5
:10301000490F4A3118F440EEB42EB90EF601E30F11
:10302000F11DB0823F5FBFCF8981803229F2322EFD
:103030008B01DB015B968D919C915C97F701948FDE
:10304000838F16961D921D921D921C921997FB015B
:103050001286138614861586F80182859385A485C9
:10306000B585438954896589768984179507A607AC
:10307000B70708F04DC025E0B695A79597958795B9
:103080002A95D1F7F82FFF70AF2ED80115968C91A5
:10309000823008F491CFC8010E94DC1497FD8CCFD8
:1030A000F80182859385A485B5854F96A11DB11D34
:1030B00082879387A487B587F0E2AF9EB001112481
:1030C0006A56784F6115710509F476CFDB018C9152
:1030D000882341F0853E09F062C0BB2029F0BB2463
:1030E000B394BACFB1100EC0F701A28A8091060244
:1030F00090910702A0910802B091090286879787F4
:10310000A08BB18BDB018C918111E9CFBB24B394EF
:10311000832D8271823109F04FCFBB2009F44DC05D
:10312000F701668577858089918941E00E94D90CF5
:10313000882309F441CFD70152968C91B0E28B9F3E
:10314000C00111248A56984F009709F435CFFC012D
:103150003A9626E1DF011D922A95E9F72BE0F60168
:10316000DC0101900D922A95E1F721E238E2FC01A1
:10317000318B208B40E058E057874687338B228B7A
:10318000318F208F578B468B81E00E94AE0C8823B5
:1031900009F412CF432DD70152966C910AC04BE02F
:1031A00050E0C6010E945737892B09F055CF432DB7
:1031B0006A2DC7010E948C1600CFF80185818230EC
:1031C00009F4FACEC8010E94C210882309F4F4CE93
:1031D000D8015B96ED91FC915C9716968D909D9031
:1031E000AD90BC901997B2E08B1A9108A108B10874
:1031F000858504C0880C991CAA1CBB1C8A95D2F733
:1032000086859785A089B189880E991EAA1EBB1E46
:10321000848124013501480E511C611C711C8414E9
:103220009504A604B70409F1E1E04E1A51086108BB
:10323000710881E00E94AE0C882309F4BDCEE6E956
:10324000F7E0119286E999E08E179F07D1F7409237
:103250000602509207026092080270920902809161
:103260001304816080931304DACFD8015B96ED914B
:10327000FC91258580E092E0A0E0B0E004C0880FDA
:10328000991FAA1FBB1F2A95D2F7F80143895489B9
:1032900065897689840F951FA61FB71F838B948B32
:1032A000A58BB68BD70152961C9286E997E04FCF3B
:1032B0000F931F93CF938C0184E492E00E94311608
:1032C000E0E6F4E088E08487C6E0C58748E050E0A7
:1032D0006BED71E08EE694E00E941635E0E8F4E0D4
:1032E000DF011D92CA95E9F764E474E086E794E093
:1032F0000E942916B80186E894E00E943C166CE909
:1033000079E08CE794E00E943C168AE290E0CF914D
:103310001F910F910C949B09FF920F931F93CF93D2
:10332000DF93182F092FEB01F42ECB010E94E50348
:10333000BE01882309F446C084E594E00E947A1611
:103340008881807F803E91F088819981AA81BB81AC
:103350008F3F9F4FAF4FBF4F49F044E050E0BE0159
:103360008AE494E00E945737892B31F464E472E0D8
:1033700080E694E00E94291688E080936C04109205
:103380006D0449E050E06FE772E08EE694E00E9441
:1033900016351092700481E18093770410928404B2
:1033A000F0928504009382041093830410928604A3
:1033B0001092880410928904DF91CF911F910F9190
:1033C000FF9008958AE594E0B9CFEF92FF920F93B2
:1033D0001F93CF938C01E0E6F4E086E191E0DF01FA
:1033E0009C011D9221503040E1F780912F0464E44C
:1033F00072E0833011F46AE174E043E450E084E465
:1034000090E00E948C1964E472E080E694E00E94EF
:10341000291681E080938A0480938B0486E0809350
:103420008C0480911F0490912004A0912104B091FC
:10343000220480938E0490938F04A0939004B09301
:103440009104C0912F04C33031F46CE979E086E92E
:1034500094E00E943C1664E474E086EA94E00E94E2
:10346000291686E795E09093190480931804E7EDF8
:10347000F1E084910E94A60AE8EDF1E084910E94B7
:10348000A60AE9EDF1E084910E94A60AEAEDF1E0D6
:1034900084910E94A60A85E30E94A60A81E00E9408
:1034A000A60A83E0C11101C081E00E94A60A8DE353
:1034B0000E94A60A87E00E94A60A81E00E94A60A4E
:1034C00084E4E82E84E0F82EC7E0C15031F0D70143
:1034D0008D917D010E94A60AF8CF80910A0288236F
:1034E00071F06AE072E0FB0101900020E9F7BF0192
:1034F0006B5072404AE052E08CE00E94B30A011522
:10350000110559F0A80164E082E30E94B30A4AE180
:1035100054E064E086E30E94B30A87E30E94A60AAF
:1035200083E00E94A60A81E00E94A60A83E00E942E
:10353000A60A86E00E94A60A8FEF0E94A60A809142
:103540001804909119048A589440CF911F910F91BB
:10355000FF90EF900C94FB09CF92DF92EF92FF92D5
:103560000F931F93CF93DF9300D01F92CDB7DEB799
:103570008C0180912F048230C9F098F4882309F4DB
:103580009CC0813009F4B8C00F900F900F900F903D
:10359000DF91CF911F910F91FF90EF90DF90CF902F
:1035A0000895833009F454C0843071F765E0C80190
:1035B0000E94660A882309F4C7C080911E04811105
:1035C00008C088E30E941909682F6E7F88E30E9473
:1035D000FF086AE974E08CE999E00E943C16EAE78A
:1035E000F5E0005A1B4F7F0122E0E20EF11CD18072
:1035F0008081863009F4FAC008F0BDC0813009F43A
:10360000EBC0833009F4EEC0F701ED0DF11DE017BA
:10361000F10748F30E94BB066093270470932804C7
:103620008093290490932A0480912C07882361F0C9
:10363000109231071092300781E0809332076CE2DC
:1036400077E0CB010E943C1683E080932F049CCF4F
:10365000C0902B04D0902C04E0902D04F0902E0408
:103660002FEFC216D206E206F20609F48DCF0E94B1
:10367000BB06009127041091280420912904309161
:103680002A04601B710B820B930B6C157D058E0554
:103690009F0508F479CF8CE999E00E94E51984E050
:1036A00080932F040E94BB0660932304709324042C
:1036B000809325049093260467CF0E94BB066093F5
:1036C0001F04709320048093210490932204ECE95A
:1036D000F9E084E0DF011D928A95E9F790E080E04F
:1036E0000E94E51988E30E941909682F616088E348
:1036F0000E94FF0881E0D4CF62E0C8010E94660A00
:10370000882311F16AE974E0CE0101960E943C160B
:10371000EAE7F5E0005A1B4FBF016E5F7F4F8181E2
:103720009081963351F48AE194E00E943C16CE01D8
:1037300001960E94E51982E0B3CFFB01E80FF11D6D
:10374000E017F10748F3F3CF0E94BB060091230472
:10375000109124042091250430912604601B710BE4
:10376000820B930B613177428105910508F40CCFF0
:1037700010922F0409CF8A3331F08F3F09F44ACFDA
:10378000833309F041CF10922B0410922C04109235
:103790002D0410922E04F701C701049620E030E0BA
:1037A000A9016191542F432F322F2227260F311D5B
:1037B000411D511D8E179F07A1F72F3F8FEF38072F
:1037C00048075807B9F420932B0430932C044093F6
:1037D0002D0450932E0418CFB70188E999E00E9478
:1037E0003C1612CFB7018CE297E0F9CFB70184E223
:1037F00097E0F5CFA8EEB3E00E943D3760932B042D
:1038000070932C0480932D0490932E04FDCEFF9290
:103810000F931F93CF93DF938C01809133078823FD
:1038200019F0C8010E94AC1A0115110509F0D4C0A5
:1038300080913207857099F080913007909131071F
:10384000892B69F40E943B0A882349F08CE297E0B7
:103850000E945819809132078860809332078091C6
:10386000300790913107019690933107809330078C
:1038700080912B07813009F078C08091320781FF59
:1038800074C082E080932B0780912D028F5F80931C
:103890002D0210912A0700912907C091280790E274
:1038A000C99FE00111248F71C82B8EE197E00E941F
:1038B000E5036EE177E0882309F47BC084E594E0BA
:1038C0000E947A16D8E0D0936C0410926D0449E0FF
:1038D00050E06FE772E08EE694E00E9416358CE2CD
:1038E0008093710486E0809377040E9473080093AC
:1038F0008404109385048BE080938204C093830436
:10390000E6E8F4E0DF011D92DA95E9F780912A02FA
:10391000809388048D5F80932A0280E680938E04D2
:1039200082E080938F0493E090939004109291042E
:1039300010929204109293041092940410929504A1
:103940008093960494E0909397048093980486E281
:103950008093990422E040E250E06AE182E30E9411
:1039600020088AE390E00E949B0984E297E00E948D
:10397000E503882379F08091230781110BC08091A2
:103980002207811107C084E297E00E94581981E064
:10399000809322078EE197E00E94E50381110CC01D
:1039A000D0E0C0E0CE01DF91CF911F910F91FF9049
:1039B00008958AE594E084CF80911D078111F0CFAE
:1039C00080911C078111ECCF8EE197E00E9458197D
:1039D00081E080931C07E4CF0932110508F3809140
:1039E0006C048830E9F680916D04863009F08EC150
:1039F00044E050E06CE979E086E894E00E945737B3
:103A0000892B71F680917504813029F586E694E062
:103A10000E9431161092740482E08093750466E768
:103A200074E080E894E00E94291664E474E086E77C
:103A300094E00E9429166CE774E086E894E00E9406
:103A40003C166CE979E08CE794E00E943C168AE22F
:103A500090E00E949B098091320783FF0DC0C091C6
:103A60007504C23049F46AE574E08CE297E00E9484
:103A700096178111C093320780912307811111C0DD
:103A800080912207882369F064E574E084E297E07E
:103A90000E949617882329F081E0809323071092D3
:103AA000220780911D0781117BCF80911C078823FD
:103AB00009F476CF64E574E08EE197E00E949617F2
:103AC000882309F46DCF81E080931D0710921C07B5
:103AD00067CF0633110508F463CF863009F060CF55
:103AE000209184042B3009F0A2C044E050E06EE144
:103AF00077E08AE794E00E945737892B09F050CF8E
:103B0000F0908F04F2FE15C0E0915204F09153043E
:103B1000309759F08091850430E020E050E040E09B
:103B200063E0829586958770199585E080932B07D1
:103B300037CF0E94DA07EC0180912B07823081F5A4
:103B40009F2D90718F2D82718231E1F460E090E0C1
:103B500080E00E94561688E180938F04E091500423
:103B6000F091510490E080E0309731F0809183042F
:103B7000829586958770199523E020932B070E94E4
:103B80001D0A0ECF81E080932B07911106C0CE0154
:103B9000019664E00E94561603CF90E080E0F9CFD2
:103BA000833099F52097A1F1E0915204F0915304EC
:103BB000309771F180918E0490E024E0959587957F
:103BC0002A95E1F7880F991F880F991F8296A801FF
:103BD000485051098417950708F4AC01CE01840FB1
:103BE000951F9801241B350B0817190708F09E0133
:103BF0008091850460E0829586958770199569E0CB
:103C0000CE010E94561686E091CF853009F4C8CEC9
:103C1000F0FE07C0833009F4C3CE69E0CE010196FF
:103C2000F0CF209709F4BCCE60E0CE01B3CF309145
:103C30002B0280912C0290E02817190609F0B0CED3
:103C4000809185048313ACCEF0908F04F1FE39C0CF
:103C5000109270048CE2809371040E94441682E1F9
:103C600080938F0460E081E090E00E94F50710925D
:103C700086041092870480912A028093880410920F
:103C800089048D5F80932A0282E08093960484E009
:103C90008093970485E0809398041092990490E6AD
:103CA00090938E048093900488E78093910422E09F
:103CB00040E250E06AE182E30E9420088AE390E05B
:103CC0006AC0F4FE6DCE0E94DA07EC0190934F04B7
:103CD00080934E04892B91F0C0918E04D0E084E053
:103CE000D595C7958A95E1F7CC0FDD1FCC0FDD1F69
:103CF000A2960C171D0708F055CE52CEF0FE50CEFE
:103D000060E090E080E00E9456164CCE093211052A
:103D100009F446CE811144CE80916E04853409F0B9
:103D20003FCE44E050E06CE979E08EE794E00E94F9
:103D30005737892BA9F044E050E06AE474E08EE73D
:103D400094E00E945737892B59F044E050E064E436
:103D500072E08EE794E00E945737892B09F020CE5D
:103D600080917704813009F0B4CE8091820488304C
:103D700009F016CE0E9444161092820480918404A9
:103D8000883F28F0909185049F5F90938504885F19
:103D900080938404C8010E949B0902CECF92DF92D7
:103DA000EF92FF920F931F93CF93DF9300D01F9258
:103DB000CDB7DEB7E091D809F091D90982E08083D0
:103DC000E091D409F091D5091082E091D609F091E3
:103DD000D7098FEC80831092E009E091DC09F09123
:103DE000DD0986E08083E091DA09F091DB098081CA
:103DF00080618083E091DA09F091DB09808188603D
:103E00008083E091DA09F091DB098081806880830A
:103E1000E091DA09F091DB0980818F7D80836DE785
:103E200072E088EC99E00E9467178091960A8823D7
:103E300021F081E99AE00E9466121092720A1092B3
:103E4000700A10926D0A10926C0A8DE280936B0AD0
:103E50000E94BB068B0161E080916B0A0E942806DC
:103E600061E080916B0A0E949C05FFB6F8948091F6
:103E70000004811127C0E1E5F3E08491E7E9F3E074
:103E80009491E82FF0E0EE0FFF1FE857FD4FA5914A
:103E9000B491EC91E92321F461E085E30E949C0553
:103EA00061E085E30E9428068CB580618CBD8CB5ED
:103EB00080648CBD61E084E30E94280661E083E3B6
:103EC0000E942806809100048F5F80930004FFBE4B
:103ED00082E58093650A1092660A8091650A909146
:103EE000660A0E94040B6AE0F62E8FEF0E94DF0A3A
:103EF000FA94F110FACF87E69AE00E94070B20E0CF
:103F000030E0A90160E087E69AE00E941D0BF82EE0
:103F10008093710A81E0F816A9F00E94BB06601B2D
:103F2000710B613D774058F381E080936C0A87E61E
:103F30009AE00E94D40A68EA72E088EC99E00E9454
:103F40005317FFCF2AEA31E040E050E068E087E60F
:103F50009AE00E941D0B82FF2AC0F092720A8091A3
:103F6000720AC12CD12CE12C40E4F42E823019F0DD
:103F7000C12CD12C760120E030E0A90167E387E66F
:103F80009AE00E941D0BA701960169E287E69AE07C
:103F90000E941D0B8093710A8823D1F00E94BB06FA
:103FA000601B710B613D774030F388E0BECF54E079
:103FB000F52E0E94E60A8093710AFA94F110F9CF67
:103FC0008A3A11F082E0B1CF82E08093720AC7CFC3
:103FD0008091720A8230D1F420E030E0A9016AE3D6
:103FE00087E69AE00E941D0B882311F086E09DCFA2
:103FF0000E94E60A807C803C19F483E08093720A78
:104000000E94E60A0E94E60A0E94E60A87E69AE013
:104010000E94D40A80E58093650A1092660A81E0C6
:104020000E94230D882379F181E99AE00E94DA0F3A
:10403000882309F480CF65E972E088EC99E00E945A
:1040400053171092330787E390E0C12CD12C7601EF
:10405000C3940097F9F0FC0123E0F595E7952A95C4
:10406000E1F7EF5FFB4F282F2770B701A60104C0CF
:10407000440F551F661F771F2A95D2F72081242BE6
:1040800020830197E6CF80E00E94230D882309F466
:1040900052CFCACF60E072E084E494E00E94291617
:1040A0008CEB92E090933304809332040CB406FCC2
:1040B00025C061E085E30E94280661E085E30E9457
:1040C0009C0561E083E30E94280661E084E30E948E
:1040D000280660E082E30E94280661E083E30E94F4
:1040E0009C0560E083E30E949C0560E084E30E94FD
:1040F0009C0580E58CBD8DB581608DBD85E3809389
:10410000300461E00E9428060E949A084FEF60E0A8
:104110008FEF0E94CE0862E070E080E090E00E94A5
:1041200089060E94A1088DE10E94950880E00E9406
:1041300095081EB50E949A0810FFF3CF70E060E06A
:1041400088E00E940C0970E060E08CE00E940C099D
:104150006FEF7BE08AE00E940C0960E07CE084E085
:104160000E940C096FEF71E186E00E940C0966E77E
:1041700074E084E10E94530A61EB88E30E94FF0827
:104180006FE370E388E20E940C0969EF77EF80E348
:104190000E940C0961E080EC0E94FF0842E362EC9F
:1041A00080E80E94CE0862E17CE086EC0E940C0967
:1041B00062E184EC0E94FF086CED75E08AEC0E94DD
:1041C0000C096091440484EE0E94FF08609145044C
:1041D00085EE0E94FF086091460482EE0E94FF086F
:1041E0006091470483EE0E94FF086091480480EECE
:1041F0000E94FF086091490481EE0E94FF0860E080
:1042000071E080E10E94530A8FE10E94E30840ECD4
:104210006BE180E80E94CE0844E06FE180E80E94F4
:10422000CE0882E70E941909863008F08F5F6FEB95
:1042300072E0882311F064EE72E088EC99E00E944D
:10424000531781E08093330780914904282F30E091
:1042500094E0359527959A95E1F7EAE0F2E0019030
:104260000020E9F7ED50F24090E32A300CF097E39C
:10427000E65FFD4F920F9083EAE0F2E001900020AC
:10428000E9F7EC50F2408F7090E38A300CF097E33E
:10429000890FE65FFD4F808310922F040E94BB06BA
:1042A0008B01F0902F04E3E0FE1641F00E94BB0664
:1042B000601B710B60367A4E08F448C0ECE9F9E0F7
:1042C00028E939E06AE474E040EA59E09191D901C3
:1042D0008D919D018095892BDB018D93BD014E173A
:1042E0005F07A1F71092310710923007B3E0FB1679
:1042F00031F060EF72E088EC99E00E9453176CEFA8
:1043000072E088EC99E00E9453170E94BB068B0173
:104310000E943B0A882321F1FF24F39484E297E072
:104320000E94E503882309F4CEC0809123078F25DE
:1043300009F4CEC00E9431090E94071C0E94BB06EE
:10434000601B710B6033754748F311C00E943B0A34
:10435000882309F4A6CF0E9431090E94AC1AA1CF8C
:104360000E94BB06601B710B6033754788F26AE4DC
:1043700073E088EC99E00E94531780913402909189
:104380003502A0913602B091370289839A83AB83BC
:10439000BC83BE016F5F7F4F8EE197E00E943C16A9
:1043A00080E49FE190932C0280932B026CE979E0EA
:1043B00089E093E00E9469176CE277E08FE093E078
:1043C0000E94691764E277E085E193E00E94691733
:1043D0006EE177E08BE193E00E94691761E273E0A0
:1043E00088EC99E00E94671780E0E82E82E0F82EC2
:1043F00010E0D7014D917D0150E070E060E020E1D8
:1044000088EC99E00E940717153029F06AE388ECE0
:1044100099E00E94FE041F5F163059F76CE772E0C6
:1044200088EC99E00E94531760E081E00E94173207
:1044300090930E0480930D0460E081E00E94173297
:104440009093100480930F0470E060E080910D045D
:1044500090910E040E94152C70E060E080910F0492
:10446000909110040E94152C67E273E088EC99E0AB
:104470000E9453170BE014E021E040E054E068E3B1
:1044800073E085E393E20E94093109E014E021E042
:1044900048EF50E061E473E08EED95E20E9409314F
:1044A00062E370E080E090E00E9489060F900F9038
:1044B0000F900F90DF91CF911F910F91FF90EF9090
:1044C000DF90CF90089580913207869581702FCF2D
:1044D000EEE1F7E084E0DF011D928A95E9F7809133
:1044E000080411E0180F109308048091240781112B
:1044F00008C044E050E068E070E084E297E00E9489
:104500006D37812F90E045E350E064E277E0906EF4
:104510000E948C19EAE8F4E08CE0DF011D928A9594
:10452000E9F7A6E9B4E062EB71E080E0FB012491D9
:104530006F5F7F4F2E3249F0222339F08F5FAD013C
:10454000480F511DFA012083F1CF8C9390E0019622
:10455000A80FB91F2111E9CF1C9211961C92119737
:1045600081E012968C93129713961C9213971496CF
:104570008C93149720E634E0A21BA552A0938A04E2
:104580009091080490938B0480938C0480938F0403
:104590008A2F90E00E94FB090E94BB068B0180914C
:1045A0001E078111EACE0E94BB06601B710B6033AF
:1045B000754708F0DCCE0E9431097C01009779F341
:1045C0000E94071C892B59F786E4E816F10438F39A
:1045D00080918304853319F780918404803EF9F635
:1045E00080918504909108048913D9CF90918B0410
:1045F0008913D5CF80918D048F7009F0B8CEE091EA
:104600008A04F0E0E657FB4F9701205A3B4F808128
:10461000807CDF011296811109C0DF011196A2177B
:10462000B30720F48181811119C01196CD010E9636
:104630002817390708F4B3CF1996EC9119971196FA
:104640008C911197813061F4E43051F4BD01665FC3
:104650007F4F8EE197E00E943C16A1CFFD01DDCF98
:10466000F0E03A96EA0FFB1FD2CFCF93DF93CDB79E
:10467000DEB72F970FB6F894DEBF0FBECDBF8FEB1E
:10468000682E81E0782E0DEE12E092EBE92E91E09B
:10469000F92E20EAC22E21E0D22E33EFA32E33E2F0
:1046A000B32E4CE2842E45E2942E5524539459E1C6
:1046B000452E80910F04909110040E94752D6AEA96
:1046C00073E088EC99E00E9467177092380460925A
:1046D000370410933A0400933904F0923C04E092BA
:1046E0003B04D0923E04C0923D04109240041092CC
:1046F0003F04109242041092410480912B02909149
:104700002C02B0925304A0925204909251048092D1
:1047100050049093290780932A0750922B07809189
:1047200028078F5F877080932807809343040E9437
:1047300031090E94071C892B09F43FC06AE673E027
:1047400088EC99E00E94671780910D0490910E0407
:104750000E94752D6CE773E088EC99E00E94671762
:104760008FE0E9E9F3E0DE01119601900D928A9560
:10477000E1F74FE050E0BE016F5F7F4F86E994E0C4
:104780000E94163560E080914E0490914F040E9483
:10479000561640928F048EE090E00E941D0A70E051
:1047A00060E080910D0490910E040E94152C6AE83F
:1047B00073E088EC99E00E94531770E060E080910C
:1047C0000F04909110040E94152C0E94792860E03B
:1047D00088E391E00E94AF290E94EF2A811169CFFE
:1047E0000E94292A66CF0F931F93CF93DF938901ED
:1047F00090914304981781F0E0914104F0914204B4
:1048000050E040E070E060E084E0199580E0DF91E6
:10481000CF911F910F9108956111F8CF2D3031057F
:10482000A8F3C0914104D0914204209779F3BA01D2
:1048300067597B4F43E050E088EA93E00E947B3762
:1048400060918E0470E024E0759567952A95E1F7F4
:10485000660F771F660F771F6E5D7F4F21E0892BF4
:1048600009F420E0A801822FFE01CFCFAF92BF92C2
:10487000CF92DF92EF92FF920F931F93CF93DF932C
:10488000CDB7DEB7EE84FF84C888D9888E010E5E6E
:104890001F4FC6010196F6012491222309F4D1C0CD
:1048A000243279F0D7011696ED91FC911797AF015C
:1048B0004F5F5F4F17965C934E93169720836C0162
:1048C000E8CFB2E0CB0ED11CFC018491863409F410
:1048D00081C0A0F4843409F44CC0853409F494C038
:1048E000D7011696ED91FC9117979F012F5F3F4FCF
:1048F00017963C932E9316978083CBCFD7011696AD
:104900004D915C918C3409F44DC0833509F457C046
:10491000883431F7B8016E5F7F4FF8019081292FFD
:10492000092E000C330B84E0359527958A95E1F725
:104930002F709F709A300CF0995F905D2A300CF0C8
:10494000295FFA013196D7011796FC93EE931697DB
:10495000205DFA0120831696ED91FC9117979F0137
:104960002F5F3F4F17963C932E93169790838B01A2
:1049700090CF5801B2E0AB0EB11CF7016681778190
:10498000D8018D919C910E944B04F70186819781FB
:10499000DC010D900020E9F7CD0101979783868314
:1049A000850177CF5801F4E0AF0EB11CD8016D91AD
:1049B0007D918D919C912AE00E941F35E6CF580190
:1049C000B2E0AB0EB11CF80160817181CA010E9496
:1049D0007437DBCFF8010190F081E02D0E5F1F4F9F
:1049E00084913196882309F454CFD70116964D91BE
:1049F0005C9117979A012F5F3F4F17963C932E9328
:104A00001697DA018C93ECCFF801808191810E5FCB
:104A10001F4F5C01BFEFAB1ABB0A0E9460358823B1
:104A200009F437CFD7011696ED91FC9117979F01A6
:104A30002F5F3F4F17963C932E9316978083C501A7
:104A4000E8CFDF91CF911F910F91FF90EF90DF9012
:104A5000CF90BF90AF9008950F931F93CF93DF93A4
:104A600000D000D01F921F92CDB7DEB71C821B82F0
:104A70002CE332E03A83298326E934E03E832D8318
:104A800038872F839091430498132EC0A0913F0440
:104A9000B091400410913B0400913C0460913704B4
:104AA0007091380480913D0490913E04AE014F5FB7
:104AB0005F4F109751F59F938F930F931F938091A2
:104AC0003A048F93809139048F937F936F938BE592
:104AD00092E09F938F935F934F930E9436240FB67B
:104AE000F894DEBF0FBECDBF8F8198852D813E81AA
:104AF000821B930B28960FB6F894DEBF0FBECDBF76
:104B0000DF91CF911F910F910895FD010190002039
:104B1000E9F73197EA1BFB0B2AE732E0009721F413
:104B20002CE732E083EE91E0BF93AF93FF93EF93D6
:104B30003F932F939F938F930F931F937F936F9325
:104B400084EE91E09F938F935F934F930E9436245E
:104B5000C6CFEF92FF920F931F93CF93DF93EC0199
:104B60007B018A011B821A8288EE93E0A0E0B0E00C
:104B70008C839D83AE83BF838CE692E09983888388
:104B80008DE190E00E94F1339A8F898F009779F040
:104B90002DE1F701DC0101900D922A95E1F74CE03F
:104BA00050E0B801CE010C960E948937188EDF9133
:104BB000CF911F910F91FF90EF900895CF93DF93C6
:104BC000CDB7DEB7C357D1090FB6F894DEBF0FBE1D
:104BD000CDBF00E612E028EE422E23E0522E612CDB
:104BE000712C3CE6232E32E0332E80910F049091FD
:104BF00010040E94752D6CEA73E088EC99E00E9425
:104C000067170E94C706882341F08091D10A8B3034
:104C100059F018F08551823020F1C12CD12C90EC44
:104C2000E92E9FE7F92E09C06091CB0A70E090E071
:104C300080E00E9404366B017C010E94C706882335
:104C400049F08091D10A8B3069F120F08551823092
:104C500008F40CC1812C912C80ECA82E8FE7B82E83
:104C60002AC06091CB0A70E090E080E00E94043698
:104C700020E030E040E853E40E9492366B017C0172
:104C80006091CC0A70E090E080E00E940636A701B7
:104C900096010E9469352DEC3CEC4CEC5DE30E94E2
:104CA0009236C9CF6091CD0A70E090E080E00E941A
:104CB00004364B015C0180910D0490910E040E941A
:104CC000752D1C821B821A8309831E82CE010196D8
:104CD0000E94DA0FBE016F5F7F4FCE01CB960E941C
:104CE0001F1419A218A21F8F0E8F1BA221968FAD21
:104CF00021978111ECC06C961FAE1EAE6C97A096EA
:104D00004CAE5DAE6EAE7FAEA0976A963FAE2EAE55
:104D10006A97E3961FAE1EAEE397A5961FAEA597C2
:104D20006C968EAD9FAD6C979093B30A8093B20A48
:104D3000A0968CAD9DADAEADBFADA0978093B40AEB
:104D40009093B50AA093B60AB093B70AA4968CAD17
:104D50009DADAEADBFADA4978093B80A9093B90A4C
:104D6000A093BA0AB093BB0AA8E5B0E0AC0FBD1F90
:104D70001C96ECEBFAE08D9181938AE0E93CF80710
:104D8000D1F7E396EEADFFADE397F093CA0AE09357
:104D9000C90A3097A9F18581882391F16BEB73E003
:104DA00080EB9AE00E946717C501B4010E94D535D7
:104DB000462F50E070E060E02AE080EB9AE00E942D
:104DC000071764EC73E080EB9AE00E946717C70155
:104DD000B6010E94D535462F50E070E060E02AE031
:104DE00080EB9AE00E94071761ED73E080EB9AE098
:104DF0000E94531763ED73E088EC99E00E9453170B
:104E00008091C90A9091CA0A009761F00E946612C7
:104E10008091C90A9091CA0A0E948D341092CA0AE0
:104E20001092C90A70E060E080910D0490910E0428
:104E30000E94152C61EE73E088EC99E00E945317F4
:104E400070E060E080910F04909110040E94152C96
:104E50000E94792860E08EE290E00E94AF290E94D3
:104E6000EF2A8111C2CE0E94292ABFCE8091CD0A9D
:104E7000E4968FAFE497682F6F7770E090E080E062
:104E80000E94063620E030E040E853E40E9492366B
:104E90004B015C016091CE0A70E090E080E00E94DE
:104EA0000636A50194010E9469352DEC3CEC4CECD2
:104EB0005DE30E9492364B015C01E4968FADE4976E
:104EC00087FFF9CEB7FAB094B7F8B094F4CE27E1E3
:104ED0004EEA53E0BE01655C7F4FCE014E960E94C4
:104EE000AD17882309F407CFCE01CB960E94661236
:104EF00049A95AA96BA97CA9CE014E960E942E10F1
:104F0000BE01625E7F4FCE0101960E941F144EEAE1
:104F100053E0BE016F5F7F4FCE01885A9F4F0E94C2
:104F2000A925FECE1F920F920FB60F9211240BB639
:104F30000F922F933F934F935F936F937F938F9332
:104F40009F93AF93BF93EF93FF9388EC99E00E94F8
:104F5000DC04FF91EF91BF91AF919F918F917F9171
:104F60006F915F914F913F912F910F900BBE0F90DA
:104F70000FBE0F901F9018951F920F920FB60F92B1
:104F800011240BB60F922F938F939F93EF93FF9360
:104F9000E091D809F091D9098081E091DE09F09182
:104FA000DF0982FD1DC090818091E1098F5F8F73C1
:104FB0002091E209821741F0E091E109F0E0E85325
:104FC000F64F958F8093E109FF91EF919F918F911B
:104FD0002F910F900BBE0F900FBE0F901F90189542
:104FE0008081F2CF1F920F920FB60F9211242F9350
:104FF0003F938F939F93AF93BF9380913B07909183
:105000003C07A0913D07B0913E0730913A0723E05D
:10501000230F2D3758F50196A11DB11D20933A0796
:1050200080933B0790933C07A0933D07B0933E07C6
:1050300080913F0790914007A0914107B0914207AE
:105040000196A11DB11D80933F0790934007A09347
:105050004107B0934207BF91AF919F918F913F91CC
:105060002F910F900FBE0F901F90189526E8230FD9
:105070000296A11DB11DD2CFFC01DB010FB6F89441
:105080000F924091A0095091A1092D913C91119747
:105090002F3F3207E1F0818192816091A2097081F6
:1050A000761719F048175907C0F4481B590B4217D7
:1050B000530788F4241B350B2D933C938091A20950
:1050C00080838091A0099091A1099283818380E0DF
:1050D0000F900FBE08951D921C9281E0F9CF0FB67C
:1050E000F8940F928091A0099091A1090F900FBEA2
:1050F000089580915F078F5F80935F0708950FB6D3
:10510000F8940F92FC01928D0F900FBE81E09111E7
:1051100080E00895CF93DF939C01FB01DC011196A1
:10512000CD91DC91D383C2838C819D8195838483CF
:105130008C819D81DC0113967C936E9312977D8305
:105140006C8331872087F90180818F5F8083DF91B5
:10515000CF910895CF93DF93FC01A085B185828123
:10516000938124813581EC013D832C83C481D581D9
:105170009B838A8311968D919C9112978E179F071E
:1051800021F41296DC93CE931197118610868C91A0
:1051900081508C938C91DF91CF9108950F931F9341
:1051A000CF93DF93DC011596ED91FC91C681D781F9
:1051B0008E01045F1F4FC8010E94AA2880915F07DB
:1051C000811125C00A501109C8010E94AA288E89A0
:1051D0009091C709981710F48093C709B9E08B9F85
:1051E000C0011124B8018D55964F0E948A28E09184
:1051F000FE03F091FF039E898689891760F481E0A0
:1052000080933707DF91CF911F910F910895B801D7
:1052100088E797E0EACF80E0F5CFEF92FF920F9317
:105220001F93CF93DF93EC010FB6F8940F921E8D6E
:105230007C0181E1E80EF11C01E01116D4F08FEF42
:105240008E8F0F900FBE0FB6F8940F921D8D7E01BA
:1052500088E0E80EF11C01E01116B4F08FEF8D8F9D
:105260000F900FBEDF91CF911F910F91FF90EF90A4
:1052700008958989882319F3C7010E94CE288111D6
:10528000009337071150D9CF8885882339F3C70198
:105290000E94CE288111009337071150DDCF0F9364
:1052A0001F93CF93DF938C01FB0180819181D80103
:1052B00013968F3F9807F1F4E801AF81B8851296F5
:1052C0008D919C91139793838283EC01FD83EC83F2
:1052D000B583A4831396FC93EE93129711870087EE
:1052E000F80180818F5F8083DF91CF911F910F91B3
:1052F0000895D90112962D913C911397E9014881A7
:10530000598184179507A8F7DACFFC01738362836C
:10531000918780874617570790F0421B530B84856F
:10532000958548175907C8F4BF016E5F7F4F80917C
:105330004307909144070E944F2980E00895421747
:10534000530718F46217730740F4BF016E5F7F4F75
:105350008091450790914607EECF81E00895FF9236
:105360000F931F93CF93DF93EC01F62E0091A009CA
:105370001091A1098091FE039091FF0302960E9473
:10538000AA28CF3FDC0789F4FF2079F06091FE0363
:105390007091FF036E5F7F4F86E697E0DF91CF91BC
:1053A0001F910F91FF900C948A28C00FD11FE0919C
:1053B000FE03F091FF03D383C2836091FE037091DB
:1053C000FF03C017D10768F48091620790916307CB
:1053D0006E5F7F4FDF91CF911F910F91FF900C94E3
:1053E0004F2980916407909165076E5F7F4F0E94FF
:1053F0004F2980915B0790915C07C817D90720F46B
:10540000D0935C07C0935B07DF91CF911F910F9101
:10541000FF900895CF93DF93EB016091FE037091AD
:10542000FF03645F7F4F0E944F2961E0CE01DF914F
:10543000CF910C94AF29FC010396928381832FEFC7
:105440003FEF3483238396838583908787831082FD
:1054500008950F920FB6F8940F920BB60F920CB6F8
:105460000F921F9211242F923F924F925F926F9250
:105470007F928F929F92AF92BF92CF92DF92EF92E4
:10548000FF920F931F932F933F934F935F936F93CD
:105490007F938F939F93AF93BF93CF93DF93EF93BC
:1054A000FF93A091FE03B091FF030DB60D920EB6CF
:1054B0000D9280915F07882321F081E08093370768
:1054C0005FC010923707A091FE03B091FF03E091F7
:1054D000FE03F091FF032D913C918789908D8217F7
:1054E0009307A8F08091FE039091FF038091FE0343
:1054F0009091FF03279A2F9A2FEF87EA91E6215088
:1055000080409040E1F700C000001F9AF5CF209145
:10551000C70989E001C02150422F50E0849FF0016B
:10552000859FF00D1124ED55F64F9081992399F345
:10553000A181B28112960D90BC91A02DB283A1835E
:10554000289FC00111248A55964FA817B90729F43E
:1055500012968D919C919283818389E0849FF001C2
:10556000859FF00D1124ED55F64F0180F281E02D5D
:10557000868197819093FF038093FE032093C70950
:10558000A091FE03B091FF03CD91CDBFDD91DEBFB1
:10559000FF91EF91DF91CF91BF91AF919F918F914B
:1055A0007F916F915F914F913F912F911F910F913B
:1055B000FF90EF90DF90CF90BF90AF909F908F9033
:1055C0007F906F905F904F903F902F901F900F9023
:1055D0000CBE0F900BBE0F900FBE0F9008957F92E0
:1055E0008F929F92AF92BF92CF92DF92EF92FF92F3
:1055F0000F931F93CF93DF930FB6F8940F92809180
:105600005F07815080935F0780915F07882389F04F
:1056100080E00F900FBEDF91CF911F910F91FF900F
:10562000EF90DF90CF90BF90AF909F908F907F9042
:10563000089580919507882359F3D0E0C0E029E0D0
:10564000F22EEE24E39429C0E0917D07F0917E07CD
:10565000C681D781CE010C960E94AA288E010E5FCA
:105660001F4FC8010E94AA288E899091C7099817D8
:1056700010F48093C7098F9DC0011124B8018D5586
:10568000964F0E948A28E091FE03F091FF039E89C5
:105690008689981710F0E09237078091780781117A
:1056A000D3CFCD2B11F00E94BF07E0903507F090CB
:1056B0003607E114F10409F4AFC089E0A82E77247D
:1056C0007394CC24CA94DC2C80915F07811192C022
:1056D000C091A009D091A1092196D093A109C093AE
:1056E000A0092097B9F480916407909165072091F3
:1056F00062073091630730936507209364079093A6
:105700006307809362078091A2098F5F8093A2094B
:105710000E94BF0780915B0790915C07B12CC8176E
:10572000D90708F05BC0E091FE03F091FF03E68922
:10573000AE9EF0011124ED55F64F8081823010F0BD
:10574000BB24B39480913707811103C0BB2009F4B7
:105750005AC07092370757C0E0916407F09165070F
:105760000580F681E02D06811781D80112968D9172
:105770009C91C817D90728F490935C0780935B0726
:10578000D2CF4801B2E08B0E911CC4010E94AA281E
:10579000F80184899589892B21F0C8010C960E9413
:1057A000AA28D80156968C919091C709981710F4A1
:1057B0008093C7098A9DC0011124B4018D55964F6D
:1057C0000E948A28E091FE03F091FF03D8015696CB
:1057D0009C918689981710F0BB24B394E0916407DC
:1057E000F091650780818111B7CFD0925C07C0929C
:1057F0005B0799CF8091350790913607019690937A
:10580000360780933507B1E0EB1AF10809F05CCF59
:10581000109236071092350780913707882309F4D4
:10582000F7CE0E94292A81E0F4CEAF92BF92DF9298
:10583000EF92FF920F931F93CF93DF9300D01F92AD
:105840001F92CDB7DEB78C017B011D821C8280E0E8
:10585000580128E0A20EB11C0FB6F8940F92F8017F
:10586000228D938D291708F077C0D28C448D411179
:1058700059C080819181892B11F080E009C0E480BA
:10588000F580E114F10419F580E0F8011582148225
:10589000D394F801D28E9189992321F0C8014196C1
:1058A0000E94CE2881110E94292A0F900FBE81E00C
:1058B0000F900F900F900F900F90DF91CF911F914D
:1058C0000F91FF90EF90DF90BF90AF900895F70198
:1058D00082A1815082A3268991A12917A9F2811161
:1058E000D3CF5701F2E0AF0EB11CC5010E94AA2828
:1058F000F70181A1868B24E030E0281B3109358730
:1059000024879091C709981710F48093C709F9E08C
:105910008F9FC0011124B5018D55964F0E948A2892
:1059200081E0B3CF50E0B701828193810E94643758
:10593000F801848D22813381820F932F911D9383EF
:105940008283248135818217930708F496CF808162
:1059500091819383828391CF2C813D81232B21F4EC
:105960000F900FBE80E0A4CF811109C08091A209E1
:1059700089838091A0099091A1099B838A830F90CC
:105980000FBE0E9479280FB6F8940F92F801858D0A
:105990008F3F09F4158EF801868D8F3F09F4168E1E
:1059A0000F900FBEBE016C5F7F4FCE0101960E942B
:1059B0003C28811120C00FB6F8940F92F801928D07
:1059C000838D0F900FBE981310C06C817D81C5012F
:1059D0000E940A2AC8010E940D290E94EF2A811103
:1059E00002C00E94292A81E037CFC8010E940D29F8
:1059F0000E94EF2AF8CFC8010E940D290E94EF2AC9
:105A0000B1CFCF93DF9300D01F921F92CDB7DEB7F7
:105A10009C0180916007909161070097B9F019820D
:105A20007B836A833D832C8320919407BE016F5F43
:105A30007F4F211120915F070E94152C0F900F902E
:105A40000F900F900F90DF91CF91089580E0F6CFE7
:105A5000EF92FF920F931F93CF93DF93E09145074F
:105A6000F09146078081811113C080914307909186
:105A700044079093460780934507F0934407E093CB
:105A80004307DF91CF911F910F91FF90EF90089501
:105A90000580F681E02D00811181C681D7817E01CC
:105AA00082E0E80EF11CC7010E94AA28E889F98962
:105AB000CE0119958A8982FFD1CF8C859D85800F73
:105AC000911F0817190760F49B838A83D987C887B9
:105AD000B70180914507909146070E944F29BECF9C
